{
  "address": "0x5ABbB94D1305E1cD73A1f976b54b548fBAE6f401",
  "abi": [
    {
      "inputs": [],
      "stateMutability": "nonpayable",
      "type": "constructor"
    },
    {
      "anonymous": false,
      "inputs": [
        {
          "indexed": false,
          "internalType": "address",
          "name": "oldGuardian",
          "type": "address"
        },
        {
          "indexed": false,
          "internalType": "address",
          "name": "newGuardian",
          "type": "address"
        }
      ],
      "name": "GuardianChanged",
      "type": "event"
    },
    {
      "inputs": [
        {
          "internalType": "bytes32",
          "name": "_key",
          "type": "bytes32"
        },
        {
          "internalType": "uint256",
          "name": "_amount",
          "type": "uint256"
        }
      ],
      "name": "addUint",
      "outputs": [],
      "stateMutability": "nonpayable",
      "type": "function"
    },
    {
      "inputs": [],
      "name": "burnKeys",
      "outputs": [],
      "stateMutability": "nonpayable",
      "type": "function"
    },
    {
      "inputs": [],
      "name": "confirmGuardian",
      "outputs": [],
      "stateMutability": "nonpayable",
      "type": "function"
    },
    {
      "inputs": [
        {
          "internalType": "bytes32",
          "name": "_key",
          "type": "bytes32"
        }
      ],
      "name": "deleteAddress",
      "outputs": [],
      "stateMutability": "nonpayable",
      "type": "function"
    },
    {
      "inputs": [
        {
          "internalType": "bytes32",
          "name": "_key",
          "type": "bytes32"
        }
      ],
      "name": "deleteBool",
      "outputs": [],
      "stateMutability": "nonpayable",
      "type": "function"
    },
    {
      "inputs": [
        {
          "internalType": "bytes32",
          "name": "_key",
          "type": "bytes32"
        }
      ],
      "name": "deleteUint",
      "outputs": [],
      "stateMutability": "nonpayable",
      "type": "function"
    },
    {
      "inputs": [
        {
          "internalType": "bytes32",
          "name": "_key",
          "type": "bytes32"
        }
      ],
      "name": "getAddress",
      "outputs": [
        {
          "internalType": "address",
          "name": "r",
          "type": "address"
        }
      ],
      "stateMutability": "view",
      "type": "function"
    },
    {
      "inputs": [
        {
          "internalType": "bytes32",
          "name": "_key",
          "type": "bytes32"
        }
      ],
      "name": "getBool",
      "outputs": [
        {
          "internalType": "bool",
          "name": "r",
          "type": "bool"
        }
      ],
      "stateMutability": "view",
      "type": "function"
    },
    {
      "inputs": [],
      "name": "getGuardian",
      "outputs": [
        {
          "internalType": "address",
          "name": "",
          "type": "address"
        }
      ],
      "stateMutability": "view",
      "type": "function"
    },
    {
      "inputs": [
        {
          "internalType": "bytes32",
          "name": "_key",
          "type": "bytes32"
        }
      ],
      "name": "getUint",
      "outputs": [
        {
          "internalType": "uint256",
          "name": "r",
          "type": "uint256"
        }
      ],
      "stateMutability": "view",
      "type": "function"
    },
    {
      "inputs": [
        {
          "internalType": "bytes32",
          "name": "_key",
          "type": "bytes32"
        },
        {
          "internalType": "address",
          "name": "_value",
          "type": "address"
        }
      ],
      "name": "setAddress",
      "outputs": [],
      "stateMutability": "nonpayable",
      "type": "function"
    },
    {
      "inputs": [
        {
          "internalType": "bytes32",
          "name": "_key",
          "type": "bytes32"
        },
        {
          "internalType": "bool",
          "name": "_value",
          "type": "bool"
        }
      ],
      "name": "setBool",
      "outputs": [],
      "stateMutability": "nonpayable",
      "type": "function"
    },
    {
      "inputs": [
        {
          "internalType": "address",
          "name": "_newAddress",
          "type": "address"
        }
      ],
      "name": "setGuardian",
      "outputs": [],
      "stateMutability": "nonpayable",
      "type": "function"
    },
    {
      "inputs": [
        {
          "internalType": "bytes32",
          "name": "_key",
          "type": "bytes32"
        },
        {
          "internalType": "uint256",
          "name": "_value",
          "type": "uint256"
        }
      ],
      "name": "setUint",
      "outputs": [],
      "stateMutability": "nonpayable",
      "type": "function"
    },
    {
      "inputs": [
        {
          "internalType": "bytes32",
          "name": "_key",
          "type": "bytes32"
        },
        {
          "internalType": "uint256",
          "name": "_amount",
          "type": "uint256"
        }
      ],
      "name": "subUint",
      "outputs": [],
      "stateMutability": "nonpayable",
      "type": "function"
    }
  ],
  "transactionHash": "0x334f999422f043676823e5803dc1a9cdca7b7ff2e16b7aadcfa5ad31b3eb83a3",
  "args": [],
  "solcInputHash": "3bc19613e984972e45201a3474f4a9f0",
  "bytecode": "0x6080806040523461002857600380546001600160a01b03191633179055610624908161002e8239f35b600080fdfe6040608081526004908136101561001557600080fd5b600091823560e01c80630e14a376146105455780631e0ea61e1461046e57806321f8a7211461043c5780632c62ff2d1461040057806367a6a917146103405780637ae1cfca146103145780638a0dac4a146102cb578063a75b87d2146102a2578063abfdcced1461024f578063adb353dc1461020f578063bd02d0f5146101e9578063ca446dd91461018f578063e2a4853a1461015857838163e2b202bf1461011e575063ebb9d8c9146100c857600080fd5b3461011a576100d636610587565b92906100ed60018060a01b036003541633146105a2565b845283602052832090815492830392831161010757505580f35b634e487b7160e01b845260119052602483fd5b8280fd5b808484346101545760203660031901126101545761014760018060a01b036003541633146105a2565b3582528160205281205580f35b5050fd5b50503461018b5761016836610587565b919061017f60018060a01b036003541633146105a2565b83528260205282205580f35b5080fd5b50903461011a578060031936011261011a576024356001600160a01b0381811693918490036101e5576101c7906003541633146105a2565b3583526001602052822080546001600160a01b031916909117905580f35b8480fd5b503461011a57602036600319011261011a57602092829135815280845220549051908152f35b503461011a5761021e36610587565b929061023560018060a01b036003541633146105a2565b845283602052832090815492830180931161010757505580f35b50903461011a578060031936011261011a576024359182151580930361029e5761028460018060a01b036003541633146105a2565b358352600260205282209060ff8019835416911617905580f35b8380fd5b50503461018b578160031936011261018b5760035490516001600160a01b039091168152602090f35b83823461018b57602036600319011261018b5780356001600160a01b038181169182900361029e57610302906003541633146105a2565b81546001600160a01b03191617905580f35b503461011a57602036600319011261011a578160209360ff923581526002855220541690519015158152f35b5091903461018b578160031936011261018b57600354926001600160a01b03808516919061036f3384146105a2565b8154166103bd57507fa14fc14d8620a708a896fd11392a235647d99385500a295f0d7da2a258b2e96792936bffffffffffffffffffffffff60a01b166003558151908152836020820152a180f35b606490602084519162461bcd60e51b8352820152601f60248201527f6d7573742073657420677561726469616e20746f2030783030206669727374006044820152fd5b503461011a57602036600319011261011a5761042760018060a01b036003541633146105a2565b35825260026020528120805460ff1916905580f35b503461011a57602036600319011261011a5735825260016020908152918190205490516001600160a01b039091168152f35b5091903461018b578160031936011261018b5782546001600160a01b0380821690338290036104e9577fa14fc14d8620a708a896fd11392a235647d99385500a295f0d7da2a258b2e9679495600354936bffffffffffffffffffffffff60a01b9084828716176003551690558351921682526020820152a180f35b835162461bcd60e51b8152602081880152603060248201527f436f6e6669726d6174696f6e206d75737420636f6d652066726f6d206e65772060448201526f677561726469616e206164647265737360801b6064820152608490fd5b503461011a57602036600319011261011a5761056c60018060a01b036003541633146105a2565b3582526001602052812080546001600160a01b031916905580f35b604090600319011261059d576004359060243590565b600080fd5b156105a957565b60405162461bcd60e51b815260206004820152601960248201527f4163636f756e74206973206e6f74206120677561726469616e000000000000006044820152606490fdfea2646970667358221220a031521ec57cd5d08107b7afd8e9750195b3ef20b925f28a177849208ba35a8564736f6c63430008110033",
  "devdoc": {
    "kind": "dev",
    "methods": {
      "addUint(bytes32,uint256)": {
        "params": {
          "_amount": "An amount to add to the record's value  - 0xWildhare removed safeMath",
          "_key": "The key for the record"
        }
      },
      "constructor": {
        "details": "Construct FrensStorage"
      },
      "deleteAddress(bytes32)": {
        "params": {
          "_key": "The key for the record"
        }
      },
      "deleteBool(bytes32)": {
        "params": {
          "_key": "The key for the record"
        }
      },
      "deleteUint(bytes32)": {
        "params": {
          "_key": "The key for the record - added for Frens ~ 0xWildhare"
        }
      },
      "getAddress(bytes32)": {
        "params": {
          "_key": "The key for the record"
        }
      },
      "getBool(bytes32)": {
        "params": {
          "_key": "The key for the record"
        }
      },
      "getUint(bytes32)": {
        "params": {
          "_key": "The key for the record"
        }
      },
      "setAddress(bytes32,address)": {
        "params": {
          "_key": "The key for the record"
        }
      },
      "setBool(bytes32,bool)": {
        "params": {
          "_key": "The key for the record"
        }
      },
      "setUint(bytes32,uint256)": {
        "params": {
          "_key": "The key for the record"
        }
      },
      "subUint(bytes32,uint256)": {
        "params": {
          "_amount": "An amount to subtract from the record's value - 0xWildhare removed safeMath",
          "_key": "The key for the record"
        }
      }
    },
    "version": 1
  },
  "userdoc": {
    "kind": "user",
    "methods": {},
    "version": 1
  },
  "storageLayout": {
    "storage": [
      {
        "astId": 4729,
        "contract": "contracts/FrensStorage.sol:FrensStorage",
        "label": "uintStorage",
        "offset": 0,
        "slot": "0",
        "type": "t_mapping(t_bytes32,t_uint256)"
      },
      {
        "astId": 4733,
        "contract": "contracts/FrensStorage.sol:FrensStorage",
        "label": "addressStorage",
        "offset": 0,
        "slot": "1",
        "type": "t_mapping(t_bytes32,t_address)"
      },
      {
        "astId": 4737,
        "contract": "contracts/FrensStorage.sol:FrensStorage",
        "label": "booleanStorage",
        "offset": 0,
        "slot": "2",
        "type": "t_mapping(t_bytes32,t_bool)"
      },
      {
        "astId": 4739,
        "contract": "contracts/FrensStorage.sol:FrensStorage",
        "label": "guardian",
        "offset": 0,
        "slot": "3",
        "type": "t_address"
      },
      {
        "astId": 4741,
        "contract": "contracts/FrensStorage.sol:FrensStorage",
        "label": "newGuardian",
        "offset": 0,
        "slot": "4",
        "type": "t_address"
      }
    ],
    "types": {
      "t_address": {
        "encoding": "inplace",
        "label": "address",
        "numberOfBytes": "20"
      },
      "t_bool": {
        "encoding": "inplace",
        "label": "bool",
        "numberOfBytes": "1"
      },
      "t_bytes32": {
        "encoding": "inplace",
        "label": "bytes32",
        "numberOfBytes": "32"
      },
      "t_mapping(t_bytes32,t_address)": {
        "encoding": "mapping",
        "key": "t_bytes32",
        "label": "mapping(bytes32 => address)",
        "numberOfBytes": "32",
        "value": "t_address"
      },
      "t_mapping(t_bytes32,t_bool)": {
        "encoding": "mapping",
        "key": "t_bytes32",
        "label": "mapping(bytes32 => bool)",
        "numberOfBytes": "32",
        "value": "t_bool"
      },
      "t_mapping(t_bytes32,t_uint256)": {
        "encoding": "mapping",
        "key": "t_bytes32",
        "label": "mapping(bytes32 => uint256)",
        "numberOfBytes": "32",
        "value": "t_uint256"
      },
      "t_uint256": {
        "encoding": "inplace",
        "label": "uint256",
        "numberOfBytes": "32"
      }
    }
  }
}