{
  "address": "0xb6Ba495f68A11B8d0B189c2D919C035B907a40E1",
  "abi": [
    {
      "inputs": [
        {
          "internalType": "contract IFrensStorage",
          "name": "frensStorage_",
          "type": "address"
        }
      ],
      "stateMutability": "nonpayable",
      "type": "constructor"
    },
    {
      "anonymous": false,
      "inputs": [
        {
          "indexed": true,
          "internalType": "address",
          "name": "contractAddress",
          "type": "address"
        },
        {
          "indexed": false,
          "internalType": "address",
          "name": "creator",
          "type": "address"
        },
        {
          "indexed": false,
          "internalType": "address",
          "name": "owner",
          "type": "address"
        }
      ],
      "name": "Create",
      "type": "event"
    },
    {
      "inputs": [
        {
          "internalType": "address",
          "name": "_owner",
          "type": "address"
        },
        {
          "internalType": "bool",
          "name": "_validatorLocked",
          "type": "bool"
        }
      ],
      "name": "create",
      "outputs": [
        {
          "internalType": "address",
          "name": "",
          "type": "address"
        }
      ],
      "stateMutability": "nonpayable",
      "type": "function"
    }
  ],
  "transactionHash": "0x8f69b43657dacab5fb549799d39c96d095f93bfd7523a586558f457da958e11d",
  "args": [
    "0x5ABbB94D1305E1cD73A1f976b54b548fBAE6f401"
  ],
  "solcInputHash": "3bc19613e984972e45201a3474f4a9f0",
  "bytecode": "0x6080604090808252346101535780612cd0803803809161001f8285610158565b833960209283918101031261015357516001600160a01b0380821692909183900361015357600180546001600160a01b0319908116851790915584516f636f6e74726163742e6164647265737360801b8382019081526d4672656e73506f6f6c536861726560901b6030830152601e825291949092838701929091906001600160401b0384118585101761013d5760248484938193828c52885190206321f8a72160e01b835260448901525afa928315610132576000936100f5575b5050501690600054161760005551612b54908161017c8239f35b813d831161012b575b6101088185610158565b81010312610127575190828216820361012457503880806100db565b80fd5b5080fd5b503d6100fe565b86513d6000823e3d90fd5b634e487b7160e01b600052604160045260246000fd5b600080fd5b601f909101601f19168101906001600160401b0382119082101761013d5760405256fe6080604090808252600436101561001557600080fd5b600091823560e01c63319e90901461002c57600080fd5b346101705780600319360112610170576001600160a01b039160043583811691908290036101965760243591821515809303610192578460015416612984938484019267ffffffffffffffff958585108786111761017e5792859491928a97969360609561019b8639835260208301528782015203019083f09384156101745780835416941693803b156101705782906044855180958193632f2ff15d60e01b83527f9f2df0fed2c77648de5860a4cc508cd0818c85b8b8a1ab4ceeef8d981c8956a660048401528960248401525af180156101665761013f575b60208484817fb224da6575b2c2ffd42454faedb236f7dbe5f92a0c96bb99c0273dbe98464c7e8280513381523087820152a251908152f35b8111610152576020935081523880610107565b634e487b7160e01b84526041600452602484fd5b83513d87823e3d90fd5b8280fd5b83513d84823e3d90fd5b634e487b7160e01b8a52604160045260248afd5b8580fd5b8480fdfe6080604081815234620002605760608262002984803803809162000024828562000297565b83398101031262000260576200003a82620002bb565b602092838101519081151580920362000260578301516001600160a01b03808216959186900362000260576200007033620002d0565b60018060a01b0319918683600f541617600f5585518181016f636f6e74726163742e6164647265737360801b9182825267119c995b9cd05c9d60c21b603082015260188152620000c08162000265565b5190209087516321f8a72160e01b92838252600482015283816024818d5afa90811562000255578493929186916000916200020c575b5090602492911687600e541617600e5589518481019182526d4672656e73506f6f6c536861726560901b6030820152601e8152620001348162000265565b5190209189519a8b938492835260048301525afa9081156200020157600091620001bd575b50620001969596501690600d541617600d5560ff8019600854169116809117600855600014620001a4576000805460ff60a01b19169055620002d0565b5161266c9081620003188239f35b6000805460ff60a01b1916600160a01b179055620002d0565b87813d8311620001f9575b620001d4818362000297565b81010312620001f65750620001ee620001969596620002bb565b869562000159565b80fd5b503d620001c8565b86513d6000823e3d90fd5b85819495969293503d83116200024d575b62000229818362000297565b81010312620001f657508392918562000244602493620002bb565b909192620000f6565b503d6200021d565b89513d6000823e3d90fd5b600080fd5b604081019081106001600160401b038211176200028157604052565b634e487b7160e01b600052604160045260246000fd5b601f909101601f19168101906001600160401b038211908210176200028157604052565b51906001600160a01b03821682036200026057565b600080546001600160a01b039283166001600160a01b03198216811783559216907f8be0079c531659141344cd1fd0a4f28419497f9722a3daafe3b4186f6b6457e09080a356fe6080604081815260048036101561001e575b505050361561001c57005b005b600092833560e01c90816312686aae1461157f575080631865c57d1461154e5780632cf2cd48146115275780632daad61d1461150057806330dbf887146114d7578063379607f5146110225780633a4b66f11461100957806341c6138314610fea578063441a3e7014610e2457806345b58fe414610d715780634b2b4e3614610cb457806351ff484714610c1c578063591167c714610bf3578063678e300a14610bd3578063715018a614610b795780637d88209714610b5a5780638620891c146109d4578063888e9cf8146109875780638ae578fd1461095e5780638da5cb5b146109365780639426e2261461090f578063ac2a5dfd14610877578063b45a3c0e1461084b578063cfb5a5f8146107a2578063e2d9ae3e14610783578063e3f05d831461075f578063e4a5027614610684578063e6b1a3ae14610544578063e920eec014610518578063f2fde38b1461044e578063f9faa104146101cd5763fc03bad20361001157346101c95760203660031901126101c957606092818392358252602052209081549160ff60026001830154920154169082519384526020840152151590820152f35b8280fd5b50826003193601126101c95734156104175760ff835460a01c16818110156104045760016101fb9114611800565b61021b6801bc16d674ec80000061021460055434611845565b1115611868565b600d5482516318160ddd60e01b8152602093909290916001600160a01b0390859085908490829085165afa9384156103a15786946103d1575b5083865260018552348387205561026d34600554611845565b600555600754680100000000000000008110156103be5760018101806007558110156103ab5790848793927fa66cc928b5edb82af9bd49922954155ab7b0942694bea4ce44661d9a8736c68801558483526002865260018484205560ff60085460081c16600387528484209060ff801983541691151516179055600d5416803b156101c957829060248551809581936335313c2160e11b835233878401525af180156103a157610351575b857fd91527a40417d48f76ba016aaa9157e2ddaca6cb5b660432901659cb075058fc60608787878051923484523390840152820152a180f35b67ffffffffffffffff829693961161038e5750845292817fd91527a40417d48f76ba016aaa9157e2ddaca6cb5b660432901659cb075058fc610318565b634e487b7160e01b835260419052602482fd5b83513d88823e3d90fd5b634e487b7160e01b875260328352602487fd5b634e487b7160e01b875260418352602487fd5b9093508481813d83116103fd575b6103e98183611786565b810103126103f957519238610254565b8580fd5b503d6103df565b634e487b7160e01b845260218252602484fd5b6020606492519162461bcd60e51b8352820152601260248201527136bab9ba103232b837b9b4ba1032ba3432b960711b6044820152fd5b5090346101c95760203660031901126101c9576001600160a01b03823581811693919290849003610514576104816117a8565b83156104c257505082546001600160a01b0319811683178455167f8be0079c531659141344cd1fd0a4f28419497f9722a3daafe3b4186f6b6457e08380a380f35b906020608492519162461bcd60e51b8352820152602660248201527f4f776e61626c653a206e6577206f776e657220697320746865207a65726f206160448201526564647265737360d01b6064820152fd5b8480fd5b83346105415761053e61052a3661161e565b956105399591959492946117a8565b611e1a565b80f35b80fd5b50346101c9576020806003193601126106805781356001600160a01b0381169390849003610514576105746117a8565b805163516b636d60e11b81526001848201528581602481885afa9081156106765786916105f9575b5051156105c1575050506bffffffffffffffffffffffff60a01b600e541617600e5580f35b5162461bcd60e51b81529182015260146024820152731a5b9d985b1a5908185c9d0818dbdb9d1c9858dd60621b604482015260649150fd5b90503d8087833e61060a8183611786565b81019083818303126106725780519067ffffffffffffffff821161066e570181601f8201121561067257805161063f81611949565b9261064c85519485611786565b81845285828401011161066e57610668918580850191016115a3565b3861059c565b8780fd5b8680fd5b82513d88823e3d90fd5b8380fd5b50503461075b578160031936011261075b5780519082600a546106a681611688565b8085529160019180831690811561073357506001146106e8575b5050506106d2826106e4940383611786565b519182916020835260208301906115c6565b0390f35b9450600a85526000805160206125d78339815191525b82861061071b575050506106d28260206106e495820101946106c0565b805460208787018101919091529095019481016106fe565b6106e49750869350602092506106d294915060ff191682840152151560051b820101946106c0565b5080fd5b50503461075b578160031936011261075b5760209060ff6008541690519015158152f35b50503461075b578160031936011261075b57602090600c549051908152f35b50346101c95760203660031901126101c957600d548251631dc82a7560e01b81528235928101839052906001600160a01b03906020908390602490829085165afa91821561084157916108069161080b949360209792610812575b501630146118e5565b61233d565b9051908152f35b610833919250873d811161083a575b61082b8183611786565b8101906118c6565b90386107fd565b503d610821565b84513d87823e3d90fd5b50346101c95760203660031901126101c9578160209360ff923581526003855220541690519015158152f35b50503461075b578160031936011261075b578051908260095461089981611688565b8085529160019180831690811561073357506001146108c4575050506106d2826106e4940383611786565b9450600985526000805160206125f78339815191525b8286106108f7575050506106d28260206106e495820101946106c0565b805460208787018101919091529095019481016108da565b50503461075b578160031936011261075b5760209060ff60085460101c1690519015158152f35b50503461075b578160031936011261075b57905490516001600160a01b039091168152602090f35b50503461075b578160031936011261075b57600e5490516001600160a01b039091168152602090f35b50346101c95760203660031901126101c957356007548110156101c9576007602093527fa66cc928b5edb82af9bd49922954155ab7b0942694bea4ce44661d9a8736c68801549051908152f35b50602090816003193601126106805780359060ff855460a01c1681811015610b47576001610a029114611800565b610a1b6801bc16d674ec80000061021460055434611845565b600d548451631dc82a7560e01b8152828101849052906001600160a01b039081168583602481845afa928315610b3d576024938793610a63928b92610b2557501630146118e5565b865192838092634f558e7960e01b825287878301525afa908115610b1b578691610aee575b5015610ab75750906001918452528120610aa3348254611845565b9055610ab134600554611845565b60055580f35b835162461bcd60e51b815290810183905260116024820152701a5908191bd95cc81b9bdd08195e1a5cdd607a1b6044820152606490fd5b610b0e9150843d8611610b14575b610b068183611786565b810190611931565b38610a88565b503d610afc565b85513d88823e3d90fd5b610833919250853d871161083a5761082b8183611786565b87513d8a823e3d90fd5b634e487b7160e01b865260218252602486fd5b50503461075b578160031936011261075b576020906005549051908152f35b8334610541578060031936011261054157610b926117a8565b80546001600160a01b03198116825581906001600160a01b03167f8be0079c531659141344cd1fd0a4f28419497f9722a3daafe3b4186f6b6457e08280a380f35b509134610541576020366003190112610541575061080b602092356123b0565b50503461075b578160031936011261075b57600d5490516001600160a01b039091168152602090f35b50503461075b578160031936011261075b5780519082600b54610c3e81611688565b808552916001918083169081156107335750600114610c69575050506106d2826106e4940383611786565b9450600b85526000805160206126178339815191525b828610610c9c575050506106d28260206106e495820101946106c0565b80546020878701810191909152909501948101610c7f565b50346101c957610cc33661161e565b93610cd29896989391936117a8565b60085460101c60ff1615610d5c57505050505092610cf39192933691611965565b602081519101208151610d1081610d09816116c2565b0382611786565b6020815191012003610d275750505b61053e6119d6565b906020606492519162461bcd60e51b8352820152600f60248201526e0e0eac496caf240dad2e6dac2e8c6d608b1b6044820152fd5b92955092955092610d6c96611e1a565b610d1f565b8284346105415780600319360112610541579080519182906007549182855260208095018093600784527fa66cc928b5edb82af9bd49922954155ab7b0942694bea4ce44661d9a8736c68890845b818110610e105750505081610dd5910382611786565b83519485948186019282875251809352850193925b828110610df957505050500390f35b835185528695509381019392810192600101610dea565b825484529288019260019283019201610dbf565b5090346101c957806003193601126101c9578135602480359360ff865460a01c1681811015610fd8576001610e599114611800565b600d5484516331a9108f60e11b8082528382018690526020949290916001600160a01b0391869082908690829086165afa908115610fce579082918b91610fb1575b50163303610f7f578589526001855287878a205410610f4657918493918695938a9897895260018552878920610ed28b82546122ed565b9055610ee08a6005546122ed565b600555600d54168751968794859384528301525afa928315610f3d575061053e948493849384938492610f20575b50505af1610f1a6122fa565b50611dfd565b610f369250803d1061083a5761082b8183611786565b3880610f0e565b513d85823e3d90fd5b865162461bcd60e51b8152808501869052601481850152731b9bdd08195b9bdd59da0819195c1bdcda5d195960621b6044820152606490fd5b865162461bcd60e51b8152808501869052600d818501526c3737ba103a34329037bbb732b960991b6044820152606490fd5b610fc89150873d891161083a5761082b8183611786565b38610e9b565b88513d8c823e3d90fd5b50634e487b7160e01b86526021905284fd5b50503461075b578160031936011261075b576020906006549051908152f35b8334610541578060031936011261054157610d1f6117a8565b509134610541576020918260031936011261075b578335938360018060a01b039586600d5416845196878092631dc82a7560e01b825284878301526024998a915afa908115610b1b57906110819187916114ba575b50881630146118e5565b60ff855460a01c16838110156114a857600181146114665760644711156114165760031461140a5786600f541696828551818101906f636f6e74726163742e6164647265737360801b82526a4672656e734f7261636c6560a81b6030820152601b81526110ed81611754565b519020888751809b81936321f8a72160e01b8352898301525afa978815610b1b57818888999a86938a916113ed575b50885163404df7b160e11b81523089820152998a938492165af19586156113e35787966113c4575b508580611399575b611383575b61115a8261233d565b9582885260028452858820611170888254611845565b905561117e87600654611845565b60065581600f541690865185810190731c1c9bdd1bd8dbdb0b9999594b9c195c98d95b9d60621b8252601481526111b481611754565b5190209087519163bd02d0f560e01b83528783015285828c81865afa918215610fce578a92611350575b508115159081611347575b50611238575b50509086978392600d989798541694865195869384926331a9108f60e11b84528301525afa928315610f3d575061053e948493849384938492610f205750505af1610f1a6122fa565b8487989293985181810190751c1c9bdd1bd8dbdb0b9999594b9c9958da5c1a595b9d60521b82526016815261126c81611754565b5190208b8951809681936321f8a72160e01b83528b8301525afa92831561133d578993611315575b506112a18260649261232a565b0491600183116112ca575b50976112be849392899a9998996122ed565b969791928199506111ef565b6000198301908382116113035792899a926112f58b8080809d9e6112be978c9b9a5af1610f1a6122fa565b929a509293509796976112ac565b634e487b7160e01b8a52601187528a8afd5b6064919350826113346112a192883d8a1161083a5761082b8183611786565b94925050611294565b87513d8b823e3d90fd5b905015386111e9565b9091508581813d831161137c575b6113688183611786565b81010312611378575190386111de565b8980fd5b503d61135e565b865460ff60a01b1916600360a01b178755611151565b5060ff875460a01c16848110156113b25760021461114c565b634e487b7160e01b8852602185528888fd5b6113dc919650833d8511610b1457610b068183611786565b9438611144565b85513d89823e3d90fd5b6114049150843d861161083a5761082b8183611786565b3861111c565b60019694959694611151565b845162461bcd60e51b81528085018490526025818901527f6d7573742062652067726561746572207468616e203130302077656920746f20604482015264636c61696d60d81b6064820152608490fd5b845162461bcd60e51b8152808501849052601c818901527f757365207769746864726177207768656e206e6f74207374616b6564000000006044820152606490fd5b634e487b7160e01b8652602184528686fd5b6114d19150843d861161083a5761082b8183611786565b38611077565b50503461075b578160031936011261075b57600f5490516001600160a01b039091168152602090f35b50346101c95760203660031901126101c95760209282913581526001845220549051908152f35b50346101c95760203660031901126101c95760209282913581526002845220549051908152f35b50503461075b578160031936011261075b576106e49061156c6124d0565b90519182916020835260208301906115c6565b84903461075b578160031936011261075b5760209060ff60085460081c1615158152f35b60005b8381106115b65750506000910152565b81810151838201526020016115a6565b906020916115df815180928185528580860191016115a3565b601f01601f1916010190565b9181601f840112156116195782359167ffffffffffffffff8311611619576020838186019501011161161957565b600080fd5b9060806003198301126116195767ffffffffffffffff600435818111611619578361164b916004016115eb565b939093926024358381116116195782611666916004016115eb565b9390939260443591821161161957611680916004016115eb565b909160643590565b90600182811c921680156116b8575b60208310146116a257565b634e487b7160e01b600052602260045260246000fd5b91607f1691611697565b600954600092916116d282611688565b8082529160019081811690811561173757506001146116f057505050565b9192935060096000526000805160206125f7833981519152916000925b84841061171f57505060209250010190565b8054602085850181019190915290930192810161170d565b915050602093945060ff929192191683830152151560051b010190565b6040810190811067ffffffffffffffff82111761177057604052565b634e487b7160e01b600052604160045260246000fd5b90601f8019910116810190811067ffffffffffffffff82111761177057604052565b6000546001600160a01b031633036117bc57565b606460405162461bcd60e51b815260206004820152602060248201527f4f776e61626c653a2063616c6c6572206973206e6f7420746865206f776e65726044820152fd5b1561180757565b60405162461bcd60e51b81526020600482015260166024820152756e6f7420616363657074696e67206465706f7369747360501b6044820152606490fd5b9190820180921161185257565b634e487b7160e01b600052601160045260246000fd5b1561186f57565b60405162461bcd60e51b815260206004820152602960248201527f746f74616c206465706f736974732063616e6e6f74206265206d6f72652074686044820152680c2dc406664408ae8d60bb1b6064820152608490fd5b9081602091031261161957516001600160a01b03811681036116195790565b156118ec57565b60405162461bcd60e51b815260206004820152601960248201527f77726f6e67207374616b696e6720706f6f6c20666f72206964000000000000006044820152606490fd5b90816020910312611619575180151581036116195790565b67ffffffffffffffff811161177057601f01601f191660200190565b92919261197182611949565b9161197f6040519384611786565b829481845281830111611619578281602093846000960137010152565b156119a357565b60405162461bcd60e51b815260206004820152600b60248201526a77726f6e6720737461746560a81b6044820152606490fd5b6801bc16d674ec80000090814710611dc7578160055403611d8c57600080549260ff8460a01c169360049485811015611d7957611a16600180921461199c565b60ff60085460101c1615611d415760018060a01b039384600f54166040958651602095868201937f65787465726e616c2e636f6e74726163742e616464726573730000000000000085526e11195c1bdcda5d10dbdb9d1c9858dd608a1b603984015260288352606083019067ffffffffffffffff9584831087841117611d2d57828c52845190206321f8a72160e01b835260648501528890829060249082905afa928315611d23578693611cee575b505060ff60a01b1916600160a11b178455600c54911695863b156106805787516304512a2360e31b815260808b82015294849286929190611b08608485016116c2565b60031985820381016024870152600a54879492611b2482611688565b918282528d8582169182600014611ccf575050600114611c86575b50508584030160448601528592600b5491611b5983611688565b92838352878d8383169283600014611c6557505050600114611c19575b5050508391829160648301520391895af18015611c0f57611bc6575b5050507f72b356fd889b9abd3530accd2c9f4aecbce67d70757181f9f862ac91464ce19293945082519182523390820152a1565b8211611bfc57507f72b356fd889b9abd3530accd2c9f4aecbce67d70757181f9f862ac91464ce192949550835284933880611b92565b634e487b7160e01b815260418752602490fd5b86513d84823e3d90fd5b918b939450600b88526000805160206126178339815191529288935b828510611c4a57505050010190808480611b76565b80548486018701528b99508c98508d95909401938101611c35565b60ff19168582015294151560051b9093019093019450839250819050611b76565b8c929550600a89526000805160206125d78339815191529189925b818410611cb45750500101923880611b3f565b80548385018601528c9a508d99508e94909301928501611ca1565b60ff19168382015292151560051b909101909101945038905080611b3f565b611d1392935060609089903d8b11611d1b575b611d0b8285611786565b0101906118c6565b903880611ac5565b3d9150611d01565b8a513d88823e3d90fd5b50634e487b7160e01b875260418d52602487fd5b60405162461bcd60e51b815260208188015260116024820152701d985b1a59185d1bdc881b9bdd081cd95d607a1b6044820152606490fd5b634e487b7160e01b845260218652602484fd5b60405162461bcd60e51b81526020600482015260136024820152726e6f7420656e6f756768206465706f7369747360681b6044820152606490fd5b60405162461bcd60e51b815260206004820152600e60248201526d0dcdee840cadcdeeaced040cae8d60931b6044820152606490fd5b15611e0457565b634e487b7160e01b600052600160045260246000fd5b929094939194600160f81b30019081301161185257604051602092838201908152838252611e4782611754565b611e5236868b611965565b84815191012091519020036122a85760085460ff811661224e575b5060009260ff845460a01c1697600489101561223a57611e906001809a1461199c565b67ffffffffffffffff928381116122265780611ead600954611688565b98601f998a81116121cb575b5087908a831160011461215557889261214a575b5050600019600383901b1c1916908a1b176009555b828211612136578190611ef6600a54611688565b8881116120db575b50859088831160011461206e578692612063575b5050600019600383901b1c191690881b17600a555b851161204f57611f38600b54611688565b848111611fff575b5081938511600114611f8d575091839491849394611f82575b50501b916000199060031b1c191617600b555b600c556201000062ff0000196008541617600855565b013592503880611f59565b600b825260008051602061261783398151915293918591601f19831691905b88838310611fe55750505010611fcb575b505050811b01600b55611f6c565b0135600019600384901b60f8161c19169055388080611fbd565b868601358855909601959384019387935090810190611fac565b600b83526000805160206126178339815191528580880160051c820192848910612046575b0160051c019087905b82811061203b575050611f40565b84815501879061202d565b92508192612024565b634e487b7160e01b82526041600452602482fd5b013590503880611f12565b600a87528a93506000805160206125d783398151915291601f198416885b888282106120c557505084116120ab575b505050811b01600a55611f27565b0135600019600384901b60f8161c1916905538808061209d565b8385013586558e9790950194928301920161208c565b909150600a86526000805160206125d78339815191528880850160051c82019287861061212d575b918c91869594930160051c01915b82811061211f575050611efe565b8881558594508c9101612111565b92508192612103565b634e487b7160e01b85526041600452602485fd5b013590503880611ecd565b600989528c93506000805160206125f783398151915291601f1984168a5b8a8282106121ac5750508411612192575b505050811b01600955611ee2565b0135600019600384901b60f8161c19169055388080612184565b91929596849587849396013581550195019201908e9594939291612173565b909150600988526000805160206125f78339815191528a80850160051c82019289861061221d575b918e91869594930160051c01915b82811061220f575050611eb9565b8a81558594508e9101612201565b925081926121f3565b634e487b7160e01b86526041600452602486fd5b634e487b7160e01b85526021600452602485fd5b6000549060ff8260a01c1660048110156122925761227c9161227260ff921561199c565b60101c1615611dfd565b60ff60a01b1916600160a01b1760005538611e6d565b634e487b7160e01b600052602160045260246000fd5b60405162461bcd60e51b815260048101839052601e60248201527f7769746864726177616c2063726564656e7469616c206d69736d6174636800006044820152606490fd5b9190820391821161185257565b3d15612325573d9061230b82611949565b916123196040519384611786565b82523d6000602084013e565b606090565b8181029291811591840414171561185257565b47156123aa57600090815260016020526040812054600260205261237360408320549161236d4760065490611845565b9061232a565b600554908115612396570480156123915761238e92506122ed565b90565b505090565b634e487b7160e01b84526012600452602484fd5b50600090565b600060ff815460a01c169160048310156124bc57600183036123d25750905090565b6123db9061233d565b9160018060a01b03600f5416602060405181810190731c1c9bdd1bd8dbdb0b9999594b9c195c98d95b9d60621b82526014815261241781611754565b51902060246040518094819363bd02d0f560e01b835260048301525afa9283156124b057809361247a575b5050811515908161246e575b50612457575090565b9060646124678261238e9461232a565b04906122ed565b6003915014153861244e565b909192506020823d82116124a8575b8161249660209383611786565b81010312610541575051903880612442565b3d9150612489565b604051903d90823e3d90fd5b634e487b7160e01b82526021600452602482fd5b60ff60005460a01c16600481101561229257801561259c5760028114612579576001811461254a576003146125285760405161250b81611754565b600d81526c7374617465206661696c75726560981b602082015290565b60405161253481611754565b6006815265195e1a5d195960d21b602082015290565b5060405161255781611754565b6012815271616363657074696e67206465706f7369747360701b602082015290565b5060405161258681611754565b60068152651cdd185ad95960d21b602082015290565b506040516125a981611754565b601781527f6177616974696e672076616c696461746f7220696e666f00000000000000000060208201529056fec65a7bb8d6351c1cf70c95a316cc6a92839c986682d98bc35f958f4883f9d2a86e1540171b6c0c960b71a7020d9f60077f6af931a8bbf590da0223dacf75c7af0175b7a638427703f0dbe7bb9bbf987a2551717b34e79f33b5b1008d1fa01db9a2646970667358221220bddb1f0e212f0a4a5404e6b69d52a4a1e3d9980901df78ff1e07cf3ebff32f7064736f6c63430008110033a2646970667358221220db1a49e5a063baeb9c651587c50a02c7932ea9f0ab5135cfdcb817598d8de0fb64736f6c63430008110033",
  "devdoc": {
    "kind": "dev",
    "methods": {
      "create(address,bool)": {
        "details": "creates a new pool",
        "returns": {
          "_0": "address of new pool"
        }
      }
    },
    "version": 1
  },
  "userdoc": {
    "kind": "user",
    "methods": {},
    "version": 1
  },
  "storageLayout": {
    "storage": [
      {
        "astId": 6088,
        "contract": "contracts/StakingPoolFactory.sol:StakingPoolFactory",
        "label": "frensPoolShare",
        "offset": 0,
        "slot": "0",
        "type": "t_contract(IFrensPoolShare)6450"
      },
      {
        "astId": 6091,
        "contract": "contracts/StakingPoolFactory.sol:StakingPoolFactory",
        "label": "frensStorage",
        "offset": 0,
        "slot": "1",
        "type": "t_contract(IFrensStorage)6550"
      }
    ],
    "types": {
      "t_contract(IFrensPoolShare)6450": {
        "encoding": "inplace",
        "label": "contract IFrensPoolShare",
        "numberOfBytes": "20"
      },
      "t_contract(IFrensStorage)6550": {
        "encoding": "inplace",
        "label": "contract IFrensStorage",
        "numberOfBytes": "20"
      }
    }
  }
}