{
  "address": "0x52f1247b30Eba0cA4E3333B4FF0f34FE3FA9A483",
  "abi": [
    {
      "inputs": [
        {
          "internalType": "contract IFrensStorage",
          "name": "frensStorage_",
          "type": "address"
        }
      ],
      "stateMutability": "nonpayable",
      "type": "constructor"
    },
    {
      "inputs": [
        {
          "internalType": "address",
          "name": "poolAddress",
          "type": "address"
        }
      ],
      "name": "checkValidatorState",
      "outputs": [
        {
          "internalType": "bool",
          "name": "",
          "type": "bool"
        }
      ],
      "stateMutability": "view",
      "type": "function"
    },
    {
      "inputs": [
        {
          "internalType": "bytes",
          "name": "",
          "type": "bytes"
        }
      ],
      "name": "isExiting",
      "outputs": [
        {
          "internalType": "bool",
          "name": "",
          "type": "bool"
        }
      ],
      "stateMutability": "view",
      "type": "function"
    },
    {
      "inputs": [
        {
          "internalType": "bytes",
          "name": "pubKey",
          "type": "bytes"
        },
        {
          "internalType": "bool",
          "name": "_isExiting",
          "type": "bool"
        }
      ],
      "name": "setExiting",
      "outputs": [],
      "stateMutability": "nonpayable",
      "type": "function"
    }
  ],
  "transactionHash": "0xe344da5936ab205462c44920562de56dbcb676d75cdb475a66a6cdabdb0cf181",
  "args": [
    "0xB003C1756B0e6dDDC360372C7183B25D296CCCE3"
  ],
  "solcInputHash": "3bc19613e984972e45201a3474f4a9f0",
  "bytecode": "0x60803461007457601f61045a38819003918201601f19168301916001600160401b038311848410176100795780849260209460405283398101031261007457516001600160a01b0381169081900361007457600180546001600160a01b0319169190911790556040516103ca90816100908239f35b600080fd5b634e487b7160e01b600052604160045260246000fdfe6080604081815260048036101561001557600080fd5b600092833560e01c908163809bef62146101d757508063d3b150e6146100ab5763d6e65cb91461004457600080fd5b346100a75760203660031901126100a757803567ffffffffffffffff81116100a3576020809461007c60ff9461008f94369101610325565b9082865194838680955193849201610371565b820190815203019020541690519015158152f35b8380fd5b8280fd5b50346100a757816003193601126100a757803567ffffffffffffffff81116100a3576100da9036908301610325565b90602435918215158093036101d35760015484516353adc3e960e11b8152602093916001600160a01b039190859082908590829086165afa9081156101c957889161018f575b501633036101595750906101409181855193828580945193849201610371565b8101868152030190209060ff8019835416911617905551f35b845162461bcd60e51b8152908101839052601060248201526f36bab9ba1031329033bab0b93234b0b760811b6044820152606490fd5b90508481813d83116101c2575b6101a681836102d1565b810103126101be575181811681036101be5738610120565b8780fd5b503d61019c565b87513d8a823e3d90fd5b8480fd5b83858492346102cd57602093846003193601126100a75780356001600160a01b038116908190036100a35763ac2a5dfd60e01b83528391839182905afa9081156102c3579084918391610240575b509061008f9160ff9382865194838680955193849201610371565b9150503d8083833e61025281836102d1565b81019084818303126100a75780519067ffffffffffffffff82116100a3570181601f820112156100a75780519061028882610309565b92610295865194856102d1565b8284528683830101116100a35792826102ba879360ff96858061008f98019101610371565b91925092610225565b83513d84823e3d90fd5b5080fd5b90601f8019910116810190811067ffffffffffffffff8211176102f357604052565b634e487b7160e01b600052604160045260246000fd5b67ffffffffffffffff81116102f357601f01601f191660200190565b81601f8201121561036c5780359061033c82610309565b9261034a60405194856102d1565b8284526020838301011161036c57816000926020809301838601378301015290565b600080fd5b60005b8381106103845750506000910152565b818101518382015260200161037456fea264697066735822122011eb54ba434a4b4519054736cbfbdac189ba011283fe01bec2652d8ee98c8dfd64736f6c63430008100033",
  "devdoc": {
    "kind": "dev",
    "methods": {
      "checkValidatorState(address)": {
        "details": "called by the staking pool to check if the validator is exiting"
      },
      "setExiting(bytes,bool)": {
        "details": "allows multisig (guardian) to set a pool as exiting. "
      }
    },
    "version": 1
  },
  "userdoc": {
    "kind": "user",
    "methods": {},
    "version": 1
  },
  "storageLayout": {
    "storage": [
      {
        "astId": 4070,
        "contract": "contracts/FrensOracle.sol:FrensOracle",
        "label": "isExiting",
        "offset": 0,
        "slot": "0",
        "type": "t_mapping(t_bytes_memory_ptr,t_bool)"
      },
      {
        "astId": 4073,
        "contract": "contracts/FrensOracle.sol:FrensOracle",
        "label": "frensStorage",
        "offset": 0,
        "slot": "1",
        "type": "t_contract(IFrensStorage)6550"
      }
    ],
    "types": {
      "t_bool": {
        "encoding": "inplace",
        "label": "bool",
        "numberOfBytes": "1"
      },
      "t_bytes_memory_ptr": {
        "encoding": "bytes",
        "label": "bytes",
        "numberOfBytes": "32"
      },
      "t_contract(IFrensStorage)6550": {
        "encoding": "inplace",
        "label": "contract IFrensStorage",
        "numberOfBytes": "20"
      },
      "t_mapping(t_bytes_memory_ptr,t_bool)": {
        "encoding": "mapping",
        "key": "t_bytes_memory_ptr",
        "label": "mapping(bytes => bool)",
        "numberOfBytes": "32",
        "value": "t_bool"
      }
    }
  }
}