{
  "address": "0xaaDd2698a0C7D46bad4297b9aFDD61B0eFc6ADb9",
  "abi": [
    {
      "inputs": [
        {
          "internalType": "bytes32[]",
          "name": "merkleProof",
          "type": "bytes32[]"
        },
        {
          "internalType": "bytes32",
          "name": "merkleRoot",
          "type": "bytes32"
        },
        {
          "internalType": "address",
          "name": "sender",
          "type": "address"
        }
      ],
      "name": "verify",
      "outputs": [],
      "stateMutability": "pure",
      "type": "function"
    }
  ],
  "transactionHash": "0x245ce9a9fffcd1624cf9d823f1c4170f4f008f693cccc74b79adb4c640196963",
  "args": [],
  "solcInputHash": "48c0b9c4bc9820bca42d5fbff55cba5d",
  "bytecode": "0x6080806040523461001657610216908161001c8239f35b600080fdfe608060048036101561001057600080fd5b6000803560e01c63879c84e91461002657600080fd5b346101dd57606091826003193601126101d95780359267ffffffffffffffff908185116101d557366023860112156101d557848301358281116101d15760059181831b9760249889818a01013681116101cd57604435996001600160a01b038b168b036101c9576020958685019b6bffffffffffffffffffffffff1990871b168c52601485526040988986019c8d828882109111176101b7578d8b528651902094603f01601f191686018a019081118d8210176101a55789528b528b01858486015b83831061019557505050509387945b895186101561014b5785821b8301840151908181101561013e57895284528588205b94600019811461012c57600101946100f7565b634e487b7160e01b8952601188528a89fd5b9089528452858820610119565b86888c878c9482350361015e5750505051f35b90601491606494519362461bcd60e51b85528401528201527334b73b30b634b21036b2b935b63290383937b7b360611b6044820152fd5b82358152918101918791016100e8565b634e487b7160e01b8c5260418b528d8cfd5b634e487b7160e01b8d5260418c528e8dfd5b8980fd5b8880fd5b8480fd5b8380fd5b5080fd5b80fdfea2646970667358221220fa938159adfa7deccbfd059a87b8bc502cfa8d39d4d305844deee97d78cb7a3a64736f6c63430008100033",
  "devdoc": {
    "kind": "dev",
    "methods": {},
    "version": 1
  },
  "userdoc": {
    "kind": "user",
    "methods": {},
    "version": 1
  },
  "storageLayout": {
    "storage": [],
    "types": null
  }
}