{
  "address": "0xc1cF9d7c79B353D363034979041C2A47078b535d",
  "abi": [
    {
      "inputs": [
        {
          "internalType": "contract IFrensStorage",
          "name": "frensStorage_",
          "type": "address"
        }
      ],
      "stateMutability": "nonpayable",
      "type": "constructor"
    },
    {
      "anonymous": false,
      "inputs": [
        {
          "indexed": true,
          "internalType": "address",
          "name": "contractAddress",
          "type": "address"
        },
        {
          "indexed": false,
          "internalType": "address",
          "name": "creator",
          "type": "address"
        },
        {
          "indexed": false,
          "internalType": "address",
          "name": "owner",
          "type": "address"
        }
      ],
      "name": "Create",
      "type": "event"
    },
    {
      "inputs": [
        {
          "internalType": "address",
          "name": "_owner",
          "type": "address"
        },
        {
          "internalType": "bool",
          "name": "_validatorLocked",
          "type": "bool"
        },
        {
          "internalType": "bool",
          "name": "_frensLocked",
          "type": "bool"
        },
        {
          "internalType": "uint256",
          "name": "_poolMin",
          "type": "uint256"
        },
        {
          "internalType": "uint256",
          "name": "_poolMax",
          "type": "uint256"
        },
        {
          "internalType": "bytes32",
          "name": "_merkleRoot",
          "type": "bytes32"
        }
      ],
      "name": "create",
      "outputs": [
        {
          "internalType": "address",
          "name": "",
          "type": "address"
        }
      ],
      "stateMutability": "nonpayable",
      "type": "function"
    }
  ],
  "transactionHash": "0x3f3bf5a2d34e8209f99cce299325b0f0ce6445e63e13062d86fb38b2e92d08ba",
  "args": [
    "0xE55308935438C3FBB997619146890eFF325313EC"
  ],
  "solcInputHash": "48c0b9c4bc9820bca42d5fbff55cba5d",
  "bytecode": "0x6080604090808252346101535780613ad8803803809161001f8285610158565b833960209283918101031261015357516001600160a01b0380821692909183900361015357600180546001600160a01b0319908116851790915584516f636f6e74726163742e6164647265737360801b8382019081526d4672656e73506f6f6c536861726560901b6030830152601e825291949092838701929091906001600160401b0384118585101761013d5760248484938193828c52885190206321f8a72160e01b835260448901525afa928315610132576000936100f5575b505050169060005416176000555161395c908161017c8239f35b813d831161012b575b6101088185610158565b81010312610127575190828216820361012457503880806100db565b80fd5b5080fd5b503d6100fe565b86513d6000823e3d90fd5b634e487b7160e01b600052604160045260246000fd5b600080fd5b601f909101601f19168101906001600160401b0382119082101761013d5760405256fe6080604090808252600436101561001557600080fd5b600091823560e01c635445c1711461002c57600080fd5b3461019c5760c036600319011261019c576001600160a01b039160043583811691908290036101c657602435918215158093036101c2576044358015158091036101be5785600154169061375c948585019367ffffffffffffffff96868610888711176101aa579286959260e095928c9998956101cb873984526020840152888301526064356060830152608435608083015260a43560a083015260c082015203019083f09384156101a05780835416941693803b1561019c5782906044855180958193632f2ff15d60e01b83527f9f2df0fed2c77648de5860a4cc508cd0818c85b8b8a1ab4ceeef8d981c8956a660048401528960248401525af180156101925761016b575b60208484817fb224da6575b2c2ffd42454faedb236f7dbe5f92a0c96bb99c0273dbe98464c7e8280513381523087820152a251908152f35b811161017e576020935081523880610133565b634e487b7160e01b84526041600452602484fd5b83513d87823e3d90fd5b8280fd5b83513d84823e3d90fd5b634e487b7160e01b8b52604160045260248bfd5b8680fd5b8580fd5b8480fdfe6080604081815234620002d35760e0826200375c80380380916200002482856200030a565b833981010312620002d3576200003a826200032e565b6020926200004a84820162000343565b6200005784830162000343565b9060608301519160808401519660c060a08601519501519060018060a01b0390818316809303620002d3576200008d3362000351565b60018060a01b0319928084601354161760135589518281016f636f6e74726163742e6164647265737360801b9182825267119c995b9cd05c9d60c21b603082015260188152620000dd81620002d8565b519020908b516321f8a72160e01b9283825260048201528481602481875afa908115620002c8578593929187916000916200027f575b509060249291168860125416176012558d518481019182526d4672656e73506f6f6c536861726560901b6030820152601e81526200015181620002d8565b519020918d519485938492835260048301525afa91821562000274576000926200021c575b50509161ff00959391620001d8999a95931690601154161760115560ff600b5492151516948591151560081b169161ffff19161717600b5560095560085560001462000203576000805460ff60a01b191690555b80620001e6575b5062000351565b516133be90816200039e8239f35b601055630100000063ff00000019600b541617600b5538620001d1565b6000805460ff60a01b1916600160a01b179055620001ca565b81819392933d83116200026c575b6200023681836200030a565b810103126200026957509161ff0095939162000259620001d89a9b96946200032e565b9193959a99819395975062000176565b80fd5b503d6200022a565b8a513d6000823e3d90fd5b85819495969293503d8311620002c0575b6200029c81836200030a565b8101031262000269575084929186620002b76024936200032e565b90919262000113565b503d62000290565b8d513d6000823e3d90fd5b600080fd5b604081019081106001600160401b03821117620002f457604052565b634e487b7160e01b600052604160045260246000fd5b601f909101601f19168101906001600160401b03821190821017620002f457604052565b51906001600160a01b0382168203620002d357565b51908115158203620002d357565b600080546001600160a01b039283166001600160a01b03198216811783556040519093909116917f8be0079c531659141344cd1fd0a4f28419497f9722a3daafe3b4186f6b6457e091a356fe6080604081815260048036101561001e575b505050361561001c57005b005b600092833560e01c90816312686aae1461216e575080631865c57d1461213d578063299179541461203b5780632cf2cd48146120145780632daad61d14611fed5780632eb4a7ab14611fce57806330dbf88714611fa5578063379607f514611b205780633a4b66f114611b0657806341c6138314611ae7578063441a3e701461198957806345b58fe4146118d65780634b2b4e361461179057806351ff4847146116cf578063591167c7146116a657806359b5e75e1461167f578063678e300a1461165f578063715018a61461160257806373b2e80e146115c45780637d882097146115a55780638620891c1461142a578063888e9cf8146113dd5780638ae578fd146113b45780638da5cb5b1461138c5780639426e22614611365578063958e2d31146111de578063a77f05e9146111b9578063ac2a5dfd14611120578063b45a3c0e146110f4578063b4bc91bc14610c15578063be8587981461092c578063bed62f3514610850578063cd8df8a614610831578063cfb5a5f8146107a0578063e2d9ae3e14610781578063e3f05d831461075d578063e4a5027614610682578063e6b1a3ae14610541578063e920eec014610517578063f038afe31461033b578063f2fde38b14610269578063f8f306e1146102465763fc03bad203610011573461024257602036600319011261024257606092818392358252602052209081549160ff60026001830154920154169082519384526020840152151590820152f35b8280fd5b5050346102655781600319360112610265576020906009549051908152f35b5080fd5b5034610242576020366003190112610242576001600160a01b03813581811692908390036103375761029961232a565b82156102e5575060005492826bffffffffffffffffffffffff60a01b8516176000555192167f8be0079c531659141344cd1fd0a4f28419497f9722a3daafe3b4186f6b6457e0600084a3f35b608490602085519162461bcd60e51b8352820152602660248201527f4f776e61626c653a206e6577206f776e657220697320746865207a65726f206160448201526564647265737360d01b6064820152fd5b8480fd5b50346102425761034a366121da565b60115484516331a9108f60e11b815280850184905291939260209290916001600160a01b03908116918481602481865afa92831561050d5761039b8360249588948d916104f0575b50163314612517565b885193848092631dc82a7560e01b8252878a8301525afa9081156104e6576103cd9289926104b7575b501630146124b3565b8086526003825260ff85872054161561046457808652600182528486205484116104155790600293929186525282842090815542600182015501600160ff1982541617905551f35b845162461bcd60e51b81528084018390526024808201527f63616e6e6f742073657420707269636520686967686572207468616e206465706044820152631bdcda5d60e21b6064820152608490fd5b845162461bcd60e51b8152808401839052602760248201527f6e6f20726561736f6e20746f20726167655175697420616e20756e6c6f636b656044820152666420736861726560c81b6064820152608490fd5b6104d8919250853d87116104df575b6104d08183612308565b810190612494565b90386103c4565b503d6104c6565b87513d8a823e3d90fd5b6105079150853d87116104df576104d08183612308565b38610392565b88513d8b823e3d90fd5b5050346102655761053e61052a3661221e565b9561053995919594929461232a565b612b77565b51f35b5034610242576020908160031936011261067e5780356001600160a01b03811692908390036103375761057261232a565b835163516b636d60e11b81526001838201528581602481875afa9081156106745786916105f7575b5051156105be5750506bffffffffffffffffffffffff60a01b601254161760125551f35b835162461bcd60e51b81529182015260146024820152731a5b9d985b1a5908185c9d0818dbdb9d1c9858dd60621b604482015260649150fd5b90503d8087833e6106088183612308565b81019082818303126106705780519067ffffffffffffffff821161066c570181601f8201121561067057805161063d81612560565b9261064a88519485612308565b81845284828401011161066c5761066691848085019101612192565b3861059a565b8780fd5b8680fd5b85513d88823e3d90fd5b8380fd5b82843461075a578060031936011261075a57508051600091600d546106a681612288565b8084529060019081811690811561073257506001146106e7575b50506106d1826106e3940383612308565b519182916020835260208301906121b5565b0390f35b600d600090815294506000805160206133698339815191525b82861061071a57505050918101602001916106d1826106c0565b80546020878701810191909152909501948101610700565b6106e3965085925060209150926106d19360ff191682840152151560051b82010194506106c0565b80fd5b50503461026557816003193601126102655760209060ff600b541690519015158152f35b505034610265578160031936011261026557602090600f549051908152f35b5034610242576020366003190112610242576011548251631dc82a7560e01b81528235928101839052906001600160a01b03906020908390602490829085165afa91821561082757916108039161080894936020979261080f57501630146124b3565b61308f565b9051908152f35b6104d8919250873d81116104df576104d08183612308565b84513d87823e3d90fd5b5050346102655781600319360112610265576020906008549051908152f35b50346102425760208060031936011261067e57600b5491803561087884841c60ff161561305d565b64010000000064ff000000001980951617600b558086528183526001858720015462093a8081018091116109195742106108d7578552600382528385209160ff199283815416905552600283852001908154169055600b5416600b5551f35b5060649184519162461bcd60e51b8352820152601c60248201527f616c6c6f77206f6e65207765656b206265666f726520756e6c6f636b000000006044820152fd5b634e487b7160e01b875260118352602487fd5b50610936366121da565b60115484516331a9108f60e11b808252818601849052946001600160a01b0394909360209391926024928716919085818581865afa908115610bf4576109879189918d91610bfe5750163314612517565b8851631dc82a7560e01b918282528782015285818581865afa8015610bf4576109bb918c91610bd7575b50881630146124b3565b8851908152838682015284818481855afa8015610bcd576109e7918b91610bb0575b50871630146124b3565b600b54966109fa60ff89871c161561305d565b64ff000000001997881664010000000017600b55838a52858552888a206002015460ff1615610b7657838a52858552888a20543410610b3457908483928b948b51809481938252888b8301525afa908115610b2a578391610b0d575b50610a718380808c5134865af1610a6b61257c565b506125ac565b838352600385528883209660ff19978881541690558060115416803b15610337578492836064928d519687958694632142170760e11b8652168c85015233908401528860448401525af18015610b0357610aef575b50526003815284862060018482541617905552600283852001908154169055600b5416600b5551f35b610af8906122c2565b610670578638610ac6565b88513d84823e3d90fd5b610b249150853d87116104df576104d08183612308565b38610a56565b89513d85823e3d90fd5b885162461bcd60e51b81528087018690526017818501527f6d7573742073656e6420636f72726563742076616c75650000000000000000006044820152606490fd5b885162461bcd60e51b8152808701869052601581850152746d7573742062652072616765207175697474696e6760581b6044820152606490fd5b610bc79150863d88116104df576104d08183612308565b386109dd565b89513d8c823e3d90fd5b610bee9150873d89116104df576104d08183612308565b386109b1565b8a513d8d823e3d90fd5b6105079150883d8a116104df576104d08183612308565b5091906020806003193601126102425767ffffffffffffffff93803585811161033757366023820112156103375780820135868111610fc7578060051b6024923684838301011161066c5734156110bd5760ff885460a01c16858110156110ab576001610c829114612382565b610ca26801bc16d674ec800000610c9b600654346123c7565b11156123ea565b600954341061106957610cb9600854341115612448565b60ff600b5460181c16610e85575b5050509080929394955060018060a01b038481601154168751958680926318160ddd60e01b82525afa938415610e7b578794610e47575b50838752600185523486882055610d17346006546123c7565b600655600a5468010000000000000000811015610e35576001810180600a55811015610e2157908488949392600a6000527fc65a7bb8d6351c1cf70c95a316cc6a92839c986682d98bc35f958f4883f9d2a801558484526002865260018785205560ff600b5460081c16600387528785209060ff80198354169115151617905560115416803b1561067e5783928392885194859384926335313c2160e11b845233908401525af18015610e1757610e03575b50507fd91527a40417d48f76ba016aaa9157e2ddaca6cb5b660432901659cb075058fc91606091845191348352339083015284820152a151f35b610e0c906122c2565b61067e578338610dc9565b85513d84823e3d90fd5b83603284634e487b7160e01b600052526000fd5b634e487b7160e01b8852604183528388fd5b9093508481813d8311610e74575b610e5f8183612308565b81010312610e6f57519238610cfe565b600080fd5b503d610e55565b86513d89823e3d90fd5b3388526005865260ff878920541661101c5760135487516f636f6e74726163742e6164647265737360801b88820190815270233932b739a6b2b935b632a83937bb32b960791b6030830152602182526001600160a01b039283169b60608301919082118383101761100857988188818e9f8e9f9b9c9d859f839052875190206321f8a72160e01b835260648801525afa918215610ffe578792610fcb575b50501660105491813b15610fc757895163879c84e960e01b815260608982015260648101869052946001600160fb1b0310610fc7578560848686819684988c849701858501378b83015233604483015281010301925af18015610fbd57610fa9575b505033855260058352838520805460ff191660011790558493929190388080610cc7565b610fb2906122c2565b610337578438610f85565b86513d84823e3d90fd5b8580fd5b610fef92506060908b903d8d11610ff6575b610fe78285612308565b010190612494565b3880610f23565b3d9150610fdd565b8b513d89823e3d90fd5b8760418a634e487b7160e01b600052526000fd5b865162461bcd60e51b81528086018790526022818601527f796f75206861766520616c7265616479206d61646520796f7572206465706f736044820152611a5d60f21b6064820152608490fd5b865162461bcd60e51b8152808601879052601e818601527f62656c6f77206d696e696d756d206465706f73697420666f7220706f6f6c00006044820152606490fd5b634e487b7160e01b8952602186528489fd5b865162461bcd60e51b81528086018790526012818601527136bab9ba103232b837b9b4ba1032ba3432b960711b6044820152606490fd5b5034610242576020366003190112610242578160209360ff923581526003855220541690519015158152f35b82843461075a578060031936011261075a57508051600091600c5461114481612288565b80845290600190818116908115610732575060011461116e5750506106d1826106e3940383612308565b600c600090815294506000805160206133298339815191525b8286106111a157505050918101602001916106d1826106c0565b80546020878701810191909152909501948101611187565b505034610265578160031936011261026557600b549051602091821c60ff1615158152f35b50829034610265576020806003193601126102425781359060ff845460a01c16838110156113525760016112129114612382565b6011548551631dc82a7560e01b81528481018490526001600160a01b0392918316908281602481855afa908115611348579161125d84926024948a9161132b575b50861630146124b3565b8851928380926331a9108f60e11b8252888a8301525afa9081156113215783600593926112939289916113045750163314612517565b838652600181526112a787872054856125c9565b33865252848420805460ff191690556011541691823b1561067e5790602484928387519586948593630852cd8d60e31b85528401525af180156112fa576112ed57509051f35b6112f6906122c2565b9051f35b83513d84823e3d90fd5b61131b9150843d86116104df576104d08183612308565b8a610392565b87513d88823e3d90fd5b6113429150843d86116104df576104d08183612308565b8b611253565b88513d89823e3d90fd5b634e487b7160e01b855260218452602485fd5b50503461026557816003193601126102655760209060ff600b5460101c1690519015158152f35b505034610265578160031936011261026557905490516001600160a01b039091168152602090f35b50503461026557816003193601126102655760125490516001600160a01b039091168152602090f35b50346102425760203660031901126102425735600a5481101561024257600a602093527fc65a7bb8d6351c1cf70c95a316cc6a92839c986682d98bc35f958f4883f9d2a801549051908152f35b506020908160031936011261067e5780359060ff855460a01c16818110156115925760016114589114612382565b6114716801bc16d674ec800000610c9b600654346123c7565b6011548451631dc82a7560e01b8152828101849052906001600160a01b039081168583602481845afa9283156104e65760249387936114b9928b926104b757501630146124b3565b865192838092634f558e7960e01b825287878301525afa908115610674578691611565575b501561152e5750908160019285528282526115096114ff34868820546123c7565b6008541015612448565b84525280822061151a3482546123c7565b9055611528346006546123c7565b60065551f35b835162461bcd60e51b815290810183905260116024820152701a5908191bd95cc81b9bdd08195e1a5cdd607a1b6044820152606490fd5b6115859150843d861161158b575b61157d8183612308565b8101906124ff565b386114de565b503d611573565b634e487b7160e01b865260218252602486fd5b5050346102655781600319360112610265576020906006549051908152f35b503461024257602036600319011261024257356001600160a01b0381169081900361024257818360ff92602095526005855220541690519015158152f35b50503461026557816003193601126102655761161c61232a565b81546001600160a01b03198116835590519082906001600160a01b03167f8be0079c531659141344cd1fd0a4f28419497f9722a3daafe3b4186f6b6457e08284a3f35b50913461075a57602036600319011261075a575061080860209235613102565b50503461026557816003193601126102655760209060ff600b5460181c1690519015158152f35b50503461026557816003193601126102655760115490516001600160a01b039091168152602090f35b50503461026557816003193601126102655780519082600e546116f181612288565b80855291600191808316908115611768575060011461171d575b5050506106d1826106e3940383612308565b9450600e85526000805160206133498339815191525b828610611750575050506106d18260206106e3958201019461170b565b80546020878701810191909152909501948101611733565b6106e39750869350602092506106d194915060ff191682840152151560051b8201019461170b565b50346102425761179f3661221e565b926117b0979695949792919261232a565b600b5460101c60ff16156118c257505050506117cf9293503691612674565b80516020918201208351600c549086816117e884612288565b91828252868201946001908882821691826000146118a457505060011461185c575b5061181792500382612308565b5190200361182a5750505b61053e6126e5565b606492519162461bcd60e51b8352820152600f60248201526e0e0eac496caf240dad2e6dac2e8c6d608b1b6044820152fd5b600c8b528791508a906000805160206133298339815191525b85831061188c57505061181793508201013861180a565b80548388018501528694508993909201918101611875565b60ff1916885261181795151560051b850101925038915061180a9050565b929550926118d1969194612b77565b611822565b82843461075a578060031936011261075a57908051918290600a549182855260208095018093600a84527fc65a7bb8d6351c1cf70c95a316cc6a92839c986682d98bc35f958f4883f9d2a890845b818110611975575050508161193a910382612308565b83519485948186019282875251809352850193925b82811061195e57505050500390f35b83518552869550938101939281019260010161194f565b825484529288019260019283019201611924565b503461024257611998366121da565b9160ff855460a01c16818110156115925760016119b59114612382565b6011548451631dc82a7560e01b81528281018490526020916001600160a01b039081168383602481845afa90811561050d57611a0085926024958c91611aca575b50841630146124b3565b8851938480926331a9108f60e11b825289898301525afa80156104e657611a30928991611ab35750163314612517565b8286526001815284862054611a47856009546123c7565b11611a585750509061053e916125c9565b845162461bcd60e51b815291820152603060248201527f696e76616c696420616d6f756e742c207769746864726177206c657373206f7260448201526f081d5cd9481dda5d1a191c985dd05b1b60821b606482015260849150fd5b6105079150843d86116104df576104d08183612308565b611ae19150843d86116104df576104d08183612308565b386119f6565b5050346102655781600319360112610265576020906007549051908152f35b50503461026557816003193601126102655761182261232a565b509190346102655760209283600319360112610242576011548251631dc82a7560e01b815282358184018190526024966001600160a01b039493909290839082908a90829089165afa908115610e7b5790611b86918891611f88575b50851630146124b3565b60ff865460a01c1683811015611f765760018114611f34576064471115611ee457600314611edc578360135416828651818101906f636f6e74726163742e6164647265737360801b82526a4672656e734f7261636c6560a81b6030820152601b8152611bf1816122ec565b519020898851809481936321f8a72160e01b8352898301525afa908115610e7b578589899386938591611ebf575b50895163404df7b160e11b815230898201529485938492165af1908115610e7b578791611ea2575b50935b611c538261308f565b9482885260028452868820611c698782546123c7565b9055611c77866007546123c7565b600755816013541690875185810190731c1c9bdd1bd8dbdb0b9999594b9c195c98d95b9d60621b825260148152611cad816122ec565b5190209088519163bd02d0f560e01b83528783015285828c81865afa918215610bcd578a92611e6f575b508115159081611e66575b50611d5b575b50509086978392601198969798541694885195869384926331a9108f60e11b84528301525afa8015611d515761053e94849384938493611d32575b50508651915af1610a6b61257c565b611d49929350803d106104df576104d08183612308565b903880611d23565b85513d85823e3d90fd5b8488979293975181810190751c1c9bdd1bd8dbdb0b9999594b9c9958da5c1a595b9d60521b825260168152611d8f816122ec565b5190208b8a51809681936321f8a72160e01b83528b8301525afa92831561050d578993611e3e575b50611dc48260649261304a565b049160018311611def575b5097611de2849392899a99979899612553565b9597969192819950611ce8565b6000198301838111611e2c5792899a92611e1d8b8080611de2968e9f9d9e998c9b9a51915af1610a6b61257c565b929a5092935097969597611dcf565b634e487b7160e01b8a52601187528a8afd5b606491935082611e5d611dc492883d8a116104df576104d08183612308565b94925050611db7565b90501538611ce2565b9091508581813d8311611e9b575b611e878183612308565b81010312611e9757519038611cd7565b8980fd5b503d611e7d565b611eb99150833d851161158b5761157d8183612308565b38611c47565b611ed69150843d86116104df576104d08183612308565b38611c1f565b600193611c4a565b855162461bcd60e51b81528085018490526025818a01527f6d7573742062652067726561746572207468616e203130302077656920746f20604482015264636c61696d60d81b6064820152608490fd5b855162461bcd60e51b8152808501849052601c818a01527f757365207769746864726177207768656e206e6f74207374616b6564000000006044820152606490fd5b634e487b7160e01b8752602184528787fd5b611f9f9150843d86116104df576104d08183612308565b38611b7c565b50503461026557816003193601126102655760135490516001600160a01b039091168152602090f35b5050346102655781600319360112610265576020906010549051908152f35b50346102425760203660031901126102425760209282913581526001845220549051908152f35b50346102425760203660031901126102425760209282913581526002845220549051908152f35b503461024257826003193601126102425760018060a01b03806013541660208451818101906f636f6e74726163742e6164647265737360801b82526a4672656e734f7261636c6560a81b6030820152601b8152612097816122ec565b51902060248651809481936321f8a72160e01b8352888301525afa90811561082757859161211f575b501633036120dd5750815460ff60a01b1916600360a01b17825551f35b6020606492519162461bcd60e51b8352820152601860248201527f6d7573742062652063616c6c6564206279206f7261636c6500000000000000006044820152fd5b612137915060203d81116104df576104d08183612308565b386120c0565b5050346102655781600319360112610265576106e39061215b613222565b90519182916020835260208301906121b5565b84903461026557816003193601126102655760209060ff600b5460081c1615158152f35b60005b8381106121a55750506000910152565b8181015183820152602001612195565b906020916121ce81518092818552858086019101612192565b601f01601f1916010190565b6040906003190112610e6f576004359060243590565b9181601f84011215610e6f5782359167ffffffffffffffff8311610e6f5760208381860195010111610e6f57565b906080600319830112610e6f5767ffffffffffffffff600435818111610e6f578361224b916004016121f0565b93909392602435838111610e6f5782612266916004016121f0565b93909392604435918211610e6f57612280916004016121f0565b909160643590565b90600182811c921680156122b8575b60208310146122a257565b634e487b7160e01b600052602260045260246000fd5b91607f1691612297565b67ffffffffffffffff81116122d657604052565b634e487b7160e01b600052604160045260246000fd5b6040810190811067ffffffffffffffff8211176122d657604052565b90601f8019910116810190811067ffffffffffffffff8211176122d657604052565b6000546001600160a01b0316330361233e57565b606460405162461bcd60e51b815260206004820152602060248201527f4f776e61626c653a2063616c6c6572206973206e6f7420746865206f776e65726044820152fd5b1561238957565b60405162461bcd60e51b81526020600482015260166024820152756e6f7420616363657074696e67206465706f7369747360501b6044820152606490fd5b919082018092116123d457565b634e487b7160e01b600052601160045260246000fd5b156123f157565b60405162461bcd60e51b815260206004820152602960248201527f746f74616c206465706f736974732063616e6e6f74206265206d6f72652074686044820152680c2dc406664408ae8d60bb1b6064820152608490fd5b1561244f57565b60405162461bcd60e51b815260206004820152601e60248201527f61626f7665206d6178696d756d206465706f73697420666f7220706f6f6c00006044820152606490fd5b90816020910312610e6f57516001600160a01b0381168103610e6f5790565b156124ba57565b60405162461bcd60e51b815260206004820152601960248201527f77726f6e67207374616b696e6720706f6f6c20666f72206964000000000000006044820152606490fd5b90816020910312610e6f57518015158103610e6f5790565b1561251e57565b60405162461bcd60e51b815260206004820152600d60248201526c3737ba103a34329037bbb732b960991b6044820152606490fd5b919082039182116123d457565b67ffffffffffffffff81116122d657601f01601f191660200190565b3d156125a7573d9061258d82612560565b9161259b6040519384612308565b82523d6000602084013e565b606090565b156125b357565b634e487b7160e01b600052600160045260246000fd5b6000918183526001602052604083206125e3828254612553565b90556125f181600654612553565b6006556011546040516331a9108f60e11b81526004810193909352602090839060249082906001600160a01b03165afa918215612669579280928192612647958392612649575b50604051915af1610a6b61257c565b565b61266291925060203d81116104df576104d08183612308565b9038612638565b6040513d85823e3d90fd5b92919261268082612560565b9161268e6040519384612308565b829481845281830111610e6f578281602093846000960137010152565b156126b257565b60405162461bcd60e51b815260206004820152600b60248201526a77726f6e6720737461746560a81b6044820152606490fd5b6801bc16d674ec80000090814710612b41578160065403612b0657600080549260ff8460a01c169360049485811015612af35761272560018092146126ab565b60ff600b5460101c1615612abb5760018060a01b039384601354166040958651602095868201937f65787465726e616c2e636f6e74726163742e616464726573730000000000000085526e11195c1bdcda5d10dbdb9d1c9858dd608a1b603984015260288352606083019067ffffffffffffffff9584831087841117612aa757828c52845190206321f8a72160e01b835260648501528890829060249082905afa928315612a9d578693612a79575b505060ff60a01b1916600160a11b178455600f54911695863b1561067e5790839188519586926304512a2360e31b845260808d8501528491600c5461281881612288565b908160848801528281169081600014612a5b5750600114612a10575b5060031985840381016024870152600d54879461285082612288565b918282528d85821691826000146129f15750506001146129a8575b50508584030160448601528592600e549161288583612288565b92838352878d83831692836000146129875750505060011461293b575b5050508391829160648301520391895af18015610fbd576128f2575b5050507f72b356fd889b9abd3530accd2c9f4aecbce67d70757181f9f862ac91464ce19293945082519182523390820152a1565b821161292857507f72b356fd889b9abd3530accd2c9f4aecbce67d70757181f9f862ac91464ce1929495508352849338806128be565b634e487b7160e01b815260418752602490fd5b918b939450600e88526000805160206133498339815191529288935b82851061296c575050500101908084806128a2565b80548486018701528b99508c98508d95909401938101612957565b60ff19168582015294151560051b90930190930194508392508190506128a2565b8c929550600d89526000805160206133698339815191529189925b8184106129d6575050010192388061286b565b80548385018601528c9a508d99508e949093019285016129c3565b60ff19168382015292151560051b90910190910194503890508061286b565b600c875290925085908a6000805160206133298339815191525b828410612a4057505050840160a4019138612834565b80548c850160a401528a98508b97509201918b908501612a2a565b905060a492945060ff191682870152151560051b8501019138612834565b612a9592935060609089903d8b11610ff657610fe78285612308565b9038806127d4565b8a513d88823e3d90fd5b50634e487b7160e01b875260418d52602487fd5b60405162461bcd60e51b815260208188015260116024820152701d985b1a59185d1bdc881b9bdd081cd95d607a1b6044820152606490fd5b634e487b7160e01b845260218652602484fd5b60405162461bcd60e51b81526020600482015260136024820152726e6f7420656e6f756768206465706f7369747360681b6044820152606490fd5b60405162461bcd60e51b815260206004820152600e60248201526d0dcdee840cadcdeeaced040cae8d60931b6044820152606490fd5b929094939194600160f81b3001908130116123d457604051602092838201908152838252612ba4826122ec565b612baf36868b612674565b848151910120915190200361300557600b5460ff8116612fab575b5060009260ff845460a01c16976004891015612f9757612bed6001809a146126ab565b67ffffffffffffffff92838111612f835780612c0a600c54612288565b98601f998a8111612f28575b5087908a8311600114612eb2578892612ea7575b5050600019600383901b1c1916908a1b17600c555b828211612e93578190612c53600d54612288565b888111612e38575b508590888311600114612dcb578692612dc0575b5050600019600383901b1c191690881b17600d555b8511612dac57612c95600e54612288565b848111612d5c575b5081938511600114612cea575091839491849394612cdf575b50501b916000199060031b1c191617600e555b600f556201000062ff000019600b541617600b55565b013592503880612cb6565b600e825260008051602061334983398151915293918591601f19831691905b88838310612d425750505010612d28575b505050811b01600e55612cc9565b0135600019600384901b60f8161c19169055388080612d1a565b868601358855909601959384019387935090810190612d09565b600e83526000805160206133498339815191528580880160051c820192848910612da3575b0160051c019087905b828110612d98575050612c9d565b848155018790612d8a565b92508192612d81565b634e487b7160e01b82526041600452602482fd5b013590503880612c6f565b600d87528a935060008051602061336983398151915291601f198416885b88828210612e225750508411612e08575b505050811b01600d55612c84565b0135600019600384901b60f8161c19169055388080612dfa565b8385013586558e97909501949283019201612de9565b909150600d86526000805160206133698339815191528880850160051c820192878610612e8a575b918c91869594930160051c01915b828110612e7c575050612c5b565b8881558594508c9101612e6e565b92508192612e60565b634e487b7160e01b85526041600452602485fd5b013590503880612c2a565b600c89528c935060008051602061332983398151915291601f1984168a5b8a828210612f095750508411612eef575b505050811b01600c55612c3f565b0135600019600384901b60f8161c19169055388080612ee1565b91929596849587849396013581550195019201908e9594939291612ed0565b909150600c88526000805160206133298339815191528a80850160051c820192898610612f7a575b918e91869594930160051c01915b828110612f6c575050612c16565b8a81558594508e9101612f5e565b92508192612f50565b634e487b7160e01b86526041600452602486fd5b634e487b7160e01b85526021600452602485fd5b6000549060ff8260a01c166004811015612fef57612fd991612fcf60ff92156126ab565b60101c16156125ac565b60ff60a01b1916600160a01b1760005538612bca565b634e487b7160e01b600052602160045260246000fd5b60405162461bcd60e51b815260048101839052601e60248201527f7769746864726177616c2063726564656e7469616c206d69736d6174636800006044820152606490fd5b80600019048211811515166123d4570290565b1561306457565b606460405162461bcd60e51b81526020600482015260046024820152636e6f706560e01b6044820152fd5b47156130fc5760009081526001602052604081205460026020526130c56040832054916130bf47600754906123c7565b9061304a565b6006549081156130e8570480156130e3576130e09250612553565b90565b505090565b634e487b7160e01b84526012600452602484fd5b50600090565b600060ff815460a01c1691600483101561320e57600183036131245750905090565b61312d9061308f565b9160018060a01b0360135416602060405181810190731c1c9bdd1bd8dbdb0b9999594b9c195c98d95b9d60621b825260148152613169816122ec565b51902060246040518094819363bd02d0f560e01b835260048301525afa9283156132025780936131cc575b505081151590816131c0575b506131a9575090565b9060646131b9826130e09461304a565b0490612553565b600391501415386131a0565b909192506020823d82116131fa575b816131e860209383612308565b8101031261075a575051903880613194565b3d91506131db565b604051903d90823e3d90fd5b634e487b7160e01b82526021600452602482fd5b60ff60005460a01c166004811015612fef5780156132ee57600281146132cb576001811461329c5760031461327a5760405161325d816122ec565b600d81526c7374617465206661696c75726560981b602082015290565b604051613286816122ec565b6006815265195e1a5d195960d21b602082015290565b506040516132a9816122ec565b6012815271616363657074696e67206465706f7369747360701b602082015290565b506040516132d8816122ec565b60068152651cdd185ad95960d21b602082015290565b506040516132fb816122ec565b601781527f6177616974696e672076616c696461746f7220696e666f00000000000000000060208201529056fedf6966c971051c3d54ec59162606531493a51404a002842f56009d7e5cf4a8c7bb7b4a454dc3493923482f07822329ed19e8244eff582cc204f8554c3620c3fdd7b6990105719101dabeb77144f2a3385c8033acd3af97e9423a695e81ad1eb5a26469706673582212209297bc0c836de5ae066679e122cbf72ec386edd70033edc7f9ade202d7ca181e64736f6c63430008100033a264697066735822122089a08d432138c20c316040cdd5de25ccd20e3268c31ac8d2a532199ee35eace964736f6c63430008100033",
  "devdoc": {
    "kind": "dev",
    "methods": {
      "create(address,bool,bool,uint256,uint256,bytes32)": {
        "details": "creates a new pool",
        "returns": {
          "_0": "address of new pool"
        }
      }
    },
    "version": 1
  },
  "userdoc": {
    "kind": "user",
    "methods": {},
    "version": 1
  },
  "storageLayout": {
    "storage": [
      {
        "astId": 7043,
        "contract": "contracts/StakingPoolFactory.sol:StakingPoolFactory",
        "label": "frensPoolShare",
        "offset": 0,
        "slot": "0",
        "type": "t_contract(IFrensPoolShare)7430"
      },
      {
        "astId": 7046,
        "contract": "contracts/StakingPoolFactory.sol:StakingPoolFactory",
        "label": "frensStorage",
        "offset": 0,
        "slot": "1",
        "type": "t_contract(IFrensStorage)7530"
      }
    ],
    "types": {
      "t_contract(IFrensPoolShare)7430": {
        "encoding": "inplace",
        "label": "contract IFrensPoolShare",
        "numberOfBytes": "20"
      },
      "t_contract(IFrensStorage)7530": {
        "encoding": "inplace",
        "label": "contract IFrensStorage",
        "numberOfBytes": "20"
      }
    }
  }
}