{
  "_format": "hh-sol-artifact-1",
  "contractName": "FrensPoolShare",
  "sourceName": "contracts/FrensPoolShare.sol",
  "abi": [
    {
      "inputs": [
        {
          "internalType": "contract IFrensStorage",
          "name": "_frensStorage",
          "type": "address"
        }
      ],
      "stateMutability": "nonpayable",
      "type": "constructor"
    },
    {
      "anonymous": false,
      "inputs": [
        {
          "indexed": true,
          "internalType": "address",
          "name": "owner",
          "type": "address"
        },
        {
          "indexed": true,
          "internalType": "address",
          "name": "approved",
          "type": "address"
        },
        {
          "indexed": true,
          "internalType": "uint256",
          "name": "tokenId",
          "type": "uint256"
        }
      ],
      "name": "Approval",
      "type": "event"
    },
    {
      "anonymous": false,
      "inputs": [
        {
          "indexed": true,
          "internalType": "address",
          "name": "owner",
          "type": "address"
        },
        {
          "indexed": true,
          "internalType": "address",
          "name": "operator",
          "type": "address"
        },
        {
          "indexed": false,
          "internalType": "bool",
          "name": "approved",
          "type": "bool"
        }
      ],
      "name": "ApprovalForAll",
      "type": "event"
    },
    {
      "anonymous": false,
      "inputs": [
        {
          "indexed": true,
          "internalType": "address",
          "name": "previousOwner",
          "type": "address"
        },
        {
          "indexed": true,
          "internalType": "address",
          "name": "newOwner",
          "type": "address"
        }
      ],
      "name": "OwnershipTransferred",
      "type": "event"
    },
    {
      "anonymous": false,
      "inputs": [
        {
          "indexed": true,
          "internalType": "address",
          "name": "from",
          "type": "address"
        },
        {
          "indexed": true,
          "internalType": "address",
          "name": "to",
          "type": "address"
        },
        {
          "indexed": true,
          "internalType": "uint256",
          "name": "tokenId",
          "type": "uint256"
        }
      ],
      "name": "Transfer",
      "type": "event"
    },
    {
      "inputs": [
        {
          "internalType": "address",
          "name": "to",
          "type": "address"
        },
        {
          "internalType": "uint256",
          "name": "tokenId",
          "type": "uint256"
        }
      ],
      "name": "approve",
      "outputs": [],
      "stateMutability": "nonpayable",
      "type": "function"
    },
    {
      "inputs": [
        {
          "internalType": "address",
          "name": "owner",
          "type": "address"
        }
      ],
      "name": "balanceOf",
      "outputs": [
        {
          "internalType": "uint256",
          "name": "",
          "type": "uint256"
        }
      ],
      "stateMutability": "view",
      "type": "function"
    },
    {
      "inputs": [
        {
          "internalType": "uint256",
          "name": "_id",
          "type": "uint256"
        }
      ],
      "name": "exists",
      "outputs": [
        {
          "internalType": "bool",
          "name": "",
          "type": "bool"
        }
      ],
      "stateMutability": "view",
      "type": "function"
    },
    {
      "inputs": [
        {
          "internalType": "uint256",
          "name": "tokenId",
          "type": "uint256"
        }
      ],
      "name": "getApproved",
      "outputs": [
        {
          "internalType": "address",
          "name": "",
          "type": "address"
        }
      ],
      "stateMutability": "view",
      "type": "function"
    },
    {
      "inputs": [
        {
          "internalType": "uint256",
          "name": "_id",
          "type": "uint256"
        }
      ],
      "name": "getPoolById",
      "outputs": [
        {
          "internalType": "address",
          "name": "",
          "type": "address"
        }
      ],
      "stateMutability": "view",
      "type": "function"
    },
    {
      "inputs": [
        {
          "internalType": "address",
          "name": "owner",
          "type": "address"
        },
        {
          "internalType": "address",
          "name": "operator",
          "type": "address"
        }
      ],
      "name": "isApprovedForAll",
      "outputs": [
        {
          "internalType": "bool",
          "name": "",
          "type": "bool"
        }
      ],
      "stateMutability": "view",
      "type": "function"
    },
    {
      "inputs": [
        {
          "internalType": "address",
          "name": "userAddress",
          "type": "address"
        },
        {
          "internalType": "address",
          "name": "_pool",
          "type": "address"
        }
      ],
      "name": "mint",
      "outputs": [],
      "stateMutability": "nonpayable",
      "type": "function"
    },
    {
      "inputs": [],
      "name": "name",
      "outputs": [
        {
          "internalType": "string",
          "name": "",
          "type": "string"
        }
      ],
      "stateMutability": "view",
      "type": "function"
    },
    {
      "inputs": [],
      "name": "owner",
      "outputs": [
        {
          "internalType": "address",
          "name": "",
          "type": "address"
        }
      ],
      "stateMutability": "view",
      "type": "function"
    },
    {
      "inputs": [
        {
          "internalType": "uint256",
          "name": "tokenId",
          "type": "uint256"
        }
      ],
      "name": "ownerOf",
      "outputs": [
        {
          "internalType": "address",
          "name": "",
          "type": "address"
        }
      ],
      "stateMutability": "view",
      "type": "function"
    },
    {
      "inputs": [
        {
          "internalType": "uint256",
          "name": "id",
          "type": "uint256"
        }
      ],
      "name": "renderTokenById",
      "outputs": [
        {
          "internalType": "string",
          "name": "",
          "type": "string"
        }
      ],
      "stateMutability": "view",
      "type": "function"
    },
    {
      "inputs": [],
      "name": "renounceOwnership",
      "outputs": [],
      "stateMutability": "nonpayable",
      "type": "function"
    },
    {
      "inputs": [
        {
          "internalType": "address",
          "name": "from",
          "type": "address"
        },
        {
          "internalType": "address",
          "name": "to",
          "type": "address"
        },
        {
          "internalType": "uint256",
          "name": "tokenId",
          "type": "uint256"
        }
      ],
      "name": "safeTransferFrom",
      "outputs": [],
      "stateMutability": "nonpayable",
      "type": "function"
    },
    {
      "inputs": [
        {
          "internalType": "address",
          "name": "from",
          "type": "address"
        },
        {
          "internalType": "address",
          "name": "to",
          "type": "address"
        },
        {
          "internalType": "uint256",
          "name": "tokenId",
          "type": "uint256"
        },
        {
          "internalType": "bytes",
          "name": "_data",
          "type": "bytes"
        }
      ],
      "name": "safeTransferFrom",
      "outputs": [],
      "stateMutability": "nonpayable",
      "type": "function"
    },
    {
      "inputs": [
        {
          "internalType": "address",
          "name": "operator",
          "type": "address"
        },
        {
          "internalType": "bool",
          "name": "approved",
          "type": "bool"
        }
      ],
      "name": "setApprovalForAll",
      "outputs": [],
      "stateMutability": "nonpayable",
      "type": "function"
    },
    {
      "inputs": [
        {
          "internalType": "bytes4",
          "name": "interfaceId",
          "type": "bytes4"
        }
      ],
      "name": "supportsInterface",
      "outputs": [
        {
          "internalType": "bool",
          "name": "",
          "type": "bool"
        }
      ],
      "stateMutability": "view",
      "type": "function"
    },
    {
      "inputs": [],
      "name": "symbol",
      "outputs": [
        {
          "internalType": "string",
          "name": "",
          "type": "string"
        }
      ],
      "stateMutability": "view",
      "type": "function"
    },
    {
      "inputs": [
        {
          "internalType": "uint256",
          "name": "index",
          "type": "uint256"
        }
      ],
      "name": "tokenByIndex",
      "outputs": [
        {
          "internalType": "uint256",
          "name": "",
          "type": "uint256"
        }
      ],
      "stateMutability": "view",
      "type": "function"
    },
    {
      "inputs": [
        {
          "internalType": "address",
          "name": "owner",
          "type": "address"
        },
        {
          "internalType": "uint256",
          "name": "index",
          "type": "uint256"
        }
      ],
      "name": "tokenOfOwnerByIndex",
      "outputs": [
        {
          "internalType": "uint256",
          "name": "",
          "type": "uint256"
        }
      ],
      "stateMutability": "view",
      "type": "function"
    },
    {
      "inputs": [
        {
          "internalType": "uint256",
          "name": "id",
          "type": "uint256"
        }
      ],
      "name": "tokenURI",
      "outputs": [
        {
          "internalType": "string",
          "name": "",
          "type": "string"
        }
      ],
      "stateMutability": "view",
      "type": "function"
    },
    {
      "inputs": [],
      "name": "totalSupply",
      "outputs": [
        {
          "internalType": "uint256",
          "name": "",
          "type": "uint256"
        }
      ],
      "stateMutability": "view",
      "type": "function"
    },
    {
      "inputs": [
        {
          "internalType": "address",
          "name": "from",
          "type": "address"
        },
        {
          "internalType": "address",
          "name": "to",
          "type": "address"
        },
        {
          "internalType": "uint256",
          "name": "tokenId",
          "type": "uint256"
        }
      ],
      "name": "transferFrom",
      "outputs": [],
      "stateMutability": "nonpayable",
      "type": "function"
    },
    {
      "inputs": [
        {
          "internalType": "address",
          "name": "newOwner",
          "type": "address"
        }
      ],
      "name": "transferOwnership",
      "outputs": [],
      "stateMutability": "nonpayable",
      "type": "function"
    },
    {
      "inputs": [],
      "name": "version",
      "outputs": [
        {
          "internalType": "uint8",
          "name": "",
          "type": "uint8"
        }
      ],
      "stateMutability": "view",
      "type": "function"
    }
  ],
  "bytecode": "0x608034620003a957601f906001600160401b0390601f1990620022d93881900385810184168301858111848210176200039357839282916040528339602092839181010312620003a957516001600160a01b03948582169491859003620003a9576200006a620003ae565b9260128452717374616b696e6720636f6e20616d69676f7360701b8185015262000093620003ae565b9060058252644652454e5360d81b8183015284519584871162000393576000968754966001978881811c9116801562000388575b85821014620003745790818784931162000321575b508490878311600114620002c0578a92620002b4575b5050600019600383901b1c191690871b1787555b8251948511620002a05785548681811c9116801562000295575b83821014620002815790818587969594931162000228575b5081938511600114620001c35750508592620001b7575b5050600019600383901b1c191690821b1790555b600a5460018060a01b0319913383831617600a557f8be0079c531659141344cd1fd0a4f28419497f9722a3daafe3b4186f6b6457e0604051953393169186a3600b541617600b55611f0a9081620003cf8239f35b0151905038806200014f565b869593929193168588528388209388905b8282106200020e5750508411620001f4575b505050811b01905562000163565b015160001960f88460031b161c19169055388080620001e6565b8484015186558897909501949384019390810190620001d4565b9091929394508688528288208580880160051c82019285891062000277575b9188978a9297969594930160051c01915b8281106200026857505062000138565b8a815588975089910162000258565b9250819262000247565b634e487b7160e01b88526022600452602488fd5b90607f169062000120565b634e487b7160e01b87526041600452602487fd5b015190503880620000f2565b90848a9416918b8052868c20928c5b888282106200030a5750508411620002f0575b505050811b01875562000106565b015160001960f88460031b161c19169055388080620002e2565b8385015186558d97909501949384019301620002cf565b909150898052848a208780850160051c8201928786106200036a575b918b91869594930160051c01915b8281106200035b575050620000dc565b8c81558594508b91016200034b565b925081926200033d565b634e487b7160e01b8a52602260045260248afd5b90607f1690620000c7565b634e487b7160e01b600052604160045260246000fd5b600080fd5b60408051919082016001600160401b03811183821017620003935760405256fe60806040526004361015610013575b600080fd5b60003560e01c806301ffc9a7146101f357806306fdde03146101ea578063081812fc146101e1578063095ea7b3146101d85780630bc59b38146101cf57806318160ddd146101c657806323b872dd146101bd5780632f745c59146101b457806342842e0e146101ab5780634f558e79146101a25780634f6ccce71461019957806354fd4d50146101905780636352211e1461018757806370a082311461017e578063715018a6146101755780638da5cb5b1461016c57806395d89b4114610163578063a22cb4651461015a578063a2d6c6da14610151578063b88d4fde14610148578063c87b56dd1461013f578063e985e9c514610136578063ee1fe2ad1461012d5763f2fde38b1461012557600080fd5b61000e610e95565b5061000e610dba565b5061000e610d6f565b5061000e610cbc565b5061000e610c2a565b5061000e610a8e565b5061000e61099d565b5061000e6108d1565b5061000e6108a7565b5061000e610842565b5061000e610812565b5061000e6107f3565b5061000e6107ce565b5061000e610722565b5061000e6106e6565b5061000e6106bd565b5061000e610605565b5061000e6105db565b5061000e610590565b5061000e610534565b5061000e610440565b5061000e6103fe565b5061000e6102f3565b5061000e61020e565b6001600160e01b031981160361000e57565b503461000e57602036600319011261000e57602060043561022e816101fc565b63ffffffff60e01b1663780e9d6360e01b8114908115610254575b506040519015158152f35b6380ac58cd60e01b811491508115610286575b8115610275575b5038610249565b6301ffc9a760e01b1490503861026e565b635b5e139f60e01b81149150610267565b60005b8381106102aa5750506000910152565b818101518382015260200161029a565b906020916102d381518092818552858086019101610297565b601f01601f1916010190565b9060206102f09281815201906102ba565b90565b503461000e576000806003193601126103fb57604051908080549060019180831c928082169283156103f1575b60209283861085146103dd5785885260208801949081156103bc5750600114610364575b6103608761035481890382610bdd565b604051918291826102df565b0390f35b6000805294509192917f290decd9548b62a8d60345a988386fc84ba6bc95484008f6362f93160ef3e5635b8386106103ab5750505091019050610354826103603880610344565b80548587015294820194810161038f565b60ff191685525050505090151560051b019050610354826103603880610344565b634e487b7160e01b82526022600452602482fd5b93607f1693610320565b80fd5b503461000e57602036600319011261000e57602061041d60043561112d565b6040516001600160a01b039091168152f35b6001600160a01b0381160361000e57565b503461000e57604036600319011261000e5760043561045e8161042f565b60243561046a81611043565b916001600160a01b0380841690821681146104e55761049c9361049791331490811561049e575b506110bb565b6115e6565b005b6001600160a01b031660009081526005602052604090206104df91506104d89033905b9060018060a01b0316600052602052604060002090565b5460ff1690565b38610491565b60405162461bcd60e51b815260206004820152602160248201527f4552433732313a20617070726f76616c20746f2063757272656e74206f776e656044820152603960f91b6064820152608490fd5b503461000e57602036600319011261000e57602061041d604051828101906105888161057a60043585602b916a1c1bdbdb0b999bdc8b9a5960aa1b8252600b8201520190565b03601f198101835282610bdd565b519020611df4565b503461000e57600036600319011261000e576020600854604051908152f35b606090600319011261000e576004356105c78161042f565b906024356105d48161042f565b9060443590565b503461000e5761049c6105ed366105af565b916106006105fb84336112ca565b6111bf565b611449565b503461000e57604036600319011261000e576004356106238161042f565b6024359061063081610fcb565b821015610664576001600160a01b031660009081526006602090815260408083209383529281529082902054915191825290f35b60405162461bcd60e51b815260206004820152602b60248201527f455243373231456e756d657261626c653a206f776e657220696e646578206f7560448201526a74206f6620626f756e647360a81b6064820152608490fd5b503461000e5761049c6106cf366105af565b90604051926106dd84610b7c565b60008452611225565b503461000e57602036600319011261000e576004356000908152600260209081526040909120546001600160a01b031615156040519015158152f35b503461000e57602036600319011261000e576004356008548110156107745760086000527ff3f7a9fe364faab93b216da50a3214154f22a0a2b415b23a84c8169e8b636ee30154604051908152602090f35b60405162461bcd60e51b815260206004820152602c60248201527f455243373231456e756d657261626c653a20676c6f62616c20696e646578206f60448201526b7574206f6620626f756e647360a01b6064820152608490fd5b503461000e57600036600319011261000e57602060ff600a5460a01c16604051908152f35b503461000e57602036600319011261000e57602061041d600435611043565b503461000e57602036600319011261000e57602061083a6004356108358161042f565b610fcb565b604051908152f35b503461000e576000806003193601126103fb57600a546001600160a01b0381169061086e338314610f30565b6001600160a01b031916600a556040519082907f8be0079c531659141344cd1fd0a4f28419497f9722a3daafe3b4186f6b6457e08284a3f35b503461000e57600036600319011261000e57600a546040516001600160a01b039091168152602090f35b503461000e576000806003193601126103fb576040519080600190815480831c92808216928315610989575b60209283861085146103dd5785885260208801949081156103bc5750600114610930576103608761035481890382610bdd565b600160005294509192917fb10e2d527612073b26eecdfd717e6a320cf44b4afac2b0732d9fcbe2b7fa0cf65b8386106109785750505091019050610354826103603880610344565b80548587015294820194810161095c565b93607f16936108fd565b8015150361000e57565b503461000e57604036600319011261000e576004356109bb8161042f565b6024356109c781610993565b6001600160a01b03821691338314610a495781610a06610a179233600052600560205260406000209060018060a01b0316600052602052604060002090565b9060ff801983541691151516179055565b604051901515815233907f17307eab39ab6107e8899845ad3d59bd9653f200f220920489ca2b5937696c3190602090a3005b60405162461bcd60e51b815260206004820152601960248201527f4552433732313a20617070726f766520746f2063616c6c6572000000000000006044820152606490fd5b503461000e57602036600319011261000e57610360610af4610ae8610ae860405160208101906f636f6e74726163742e6164647265737360801b825267119c995b9cd05c9d60c21b60308201526018815261058881610ba5565b6001600160a01b031690565b60405163516b636d60e11b815260048035908201529060009082908180602481015b03915afa908115610b58575b600091610b37575b50604051918291826102df565b610b52913d8091833e610b4a8183610bdd565b810190611e75565b38610b2a565b610b606116bd565b610b22565b50634e487b7160e01b600052604160045260246000fd5b6020810190811067ffffffffffffffff821117610b9857604052565b610ba0610b65565b604052565b6040810190811067ffffffffffffffff821117610b9857604052565b6060810190811067ffffffffffffffff821117610b9857604052565b90601f8019910116810190811067ffffffffffffffff821117610b9857604052565b60209067ffffffffffffffff8111610c1d575b601f01601f19160190565b610c25610b65565b610c12565b503461000e57608036600319011261000e57600435610c488161042f565b602435610c548161042f565b6064359167ffffffffffffffff831161000e573660238401121561000e57826004013591610c8183610bff565b92610c8f6040519485610bdd565b808452366024828701011161000e57602081600092602461049c9801838801378501015260443591611225565b503461000e57602036600319011261000e57610360610d24610ae8610ae860405160208101906f636f6e74726163742e6164647265737360801b8252754672656e73506f6f6c5368617265546f6b656e55524960501b60308201526026815261058881610bc1565b60405163c87b56dd60e01b81526004803590820152906000908290818060248101610b16565b604090600319011261000e57600435610d628161042f565b906024356102f08161042f565b503461000e57602060ff610dae610d8536610d4a565b6001600160a01b0391821660009081526005865260408082209290931681526020919091522090565b54166040519015158152f35b503461000e57610dc936610d4a565b60405160208101906a706f6f6c2e65786973747360a81b82523360601b602b820152601f8152610df881610ba5565b51902091602060018060a01b03600b541693602460405180968193633d70e7e560e11b835260048301525afa928315610e88575b600093610e46575b50610e4161049c93611b25565b611b60565b926020843d8211610e80575b81610e5f60209383610bdd565b810103126103fb5750610e4161049c9351610e7981610993565b9350610e34565b3d9150610e52565b610e906116bd565b610e2c565b503461000e57602036600319011261000e57600435610eb38161042f565b600a546001600160a01b0390610ecc9082163314610f30565b811615610edc5761049c90610f7b565b60405162461bcd60e51b815260206004820152602660248201527f4f776e61626c653a206e6577206f776e657220697320746865207a65726f206160448201526564647265737360d01b6064820152608490fd5b15610f3757565b606460405162461bcd60e51b815260206004820152602060248201527f4f776e61626c653a2063616c6c6572206973206e6f7420746865206f776e65726044820152fd5b600a549060018060a01b0380911691826bffffffffffffffffffffffff60a01b821617600a55167f8be0079c531659141344cd1fd0a4f28419497f9722a3daafe3b4186f6b6457e06000604051a3565b6001600160a01b03168015610feb57600052600360205260406000205490565b60405162461bcd60e51b815260206004820152602a60248201527f4552433732313a2062616c616e636520717565727920666f7220746865207a65604482015269726f206164647265737360b01b6064820152608490fd5b6000908152600260205260409020546001600160a01b031680156110645790565b60405162461bcd60e51b815260206004820152602960248201527f4552433732313a206f776e657220717565727920666f72206e6f6e657869737460448201526832b73a103a37b5b2b760b91b6064820152608490fd5b156110c257565b60405162461bcd60e51b815260206004820152603860248201527f4552433732313a20617070726f76652063616c6c6572206973206e6f74206f7760448201527f6e6572206e6f7220617070726f76656420666f7220616c6c00000000000000006064820152608490fd5b6000818152600260205260409020546001600160a01b031615611165576000908152600460205260409020546001600160a01b031690565b60405162461bcd60e51b815260206004820152602c60248201527f4552433732313a20617070726f76656420717565727920666f72206e6f6e657860448201526b34b9ba32b73a103a37b5b2b760a11b6064820152608490fd5b156111c657565b60405162461bcd60e51b815260206004820152603160248201527f4552433732313a207472616e736665722063616c6c6572206973206e6f74206f6044820152701ddb995c881b9bdc88185c1c1c9bdd9959607a1b6064820152608490fd5b91611251939161124c9361123c6105fb84336112ca565b611247838383611449565b6117bb565b6112a6565b565b60809060208152603260208201527f4552433732313a207472616e7366657220746f206e6f6e20455243373231526560408201527131b2b4bb32b91034b6b83632b6b2b73a32b960711b60608201520190565b156112ad57565b60405162461bcd60e51b8152806112c660048201611253565b0390fd5b6000828152600260205260409020546001600160a01b03161561135b576112f082611043565b6001600160a01b038281168282168114949091908515611343575b505050821561131957505090565b6001600160a01b0316600090815260056020526040902060ff925061133e91906104c1565b541690565b611350919293955061112d565b16149138808061130b565b60405162461bcd60e51b815260206004820152602c60248201527f4552433732313a206f70657261746f7220717565727920666f72206e6f6e657860448201526b34b9ba32b73a103a37b5b2b760a11b6064820152608490fd5b156113bc57565b60405162461bcd60e51b8152602060048201526024808201527f4552433732313a207472616e7366657220746f20746865207a65726f206164646044820152637265737360e01b6064820152608490fd5b50634e487b7160e01b600052601160045260246000fd5b60001981019190821161143357565b61125161140d565b906001820180921161143357565b9061145383611043565b6001600160a01b038381169290918216839003611539576114ad6115109282169461147f8615156113b5565b61148a878483611839565b61149387611590565b6001600160a01b0316600090815260036020526040902090565b6114b78154611424565b90556001600160a01b03811660009081526003602052604090206114db815461143b565b90556114f1856000526002602052604060002090565b80546001600160a01b0319166001600160a01b03909216919091179055565b7fddf252ad1be2c89b69c2b068fc378daa952ba7f163c4a11628f55a4df523b3ef6000604051a4565b60405162461bcd60e51b815260206004820152602960248201527f4552433732313a207472616e73666572206f6620746f6b656e2074686174206960448201526839903737ba1037bbb760b91b6064820152608490fd5b600081815260046020526040812080546001600160a01b03191690556001600160a01b036115bd83611043565b167f8c5be1e5ebec7d5bd14f71427d1e84f3dd0314c0f7b2291e5b200ac8c7c3b92582604051a4565b600082815260046020526040902080546001600160a01b0319166001600160a01b0383161790556001600160a01b038061161f84611043565b169116907f8c5be1e5ebec7d5bd14f71427d1e84f3dd0314c0f7b2291e5b200ac8c7c3b9256000604051a4565b9081602091031261000e57516102f0816101fc565b6102f0939260809260018060a01b0316825260006020830152604082015281606082015201906102ba565b6001600160a01b0391821681529116602082015260408101919091526080606082018190526102f0929101906102ba565b506040513d6000823e3d90fd5b3d156116f5573d906116db82610bff565b916116e96040519384610bdd565b82523d6000602084013e565b606090565b909190803b156117b35761172c602091600093604051948580948193630a85bd0160e11b998a84523360048501611661565b03926001600160a01b03165af160009181611783575b506117755761174f6116ca565b805190816117705760405162461bcd60e51b8152806112c660048201611253565b602001fd5b6001600160e01b0319161490565b6117a591925060203d81116117ac575b61179d8183610bdd565b81019061164c565b9038611742565b503d611793565b505050600190565b92909190823b156117ee5761172c926020926000604051809681958294630a85bd0160e11b9a8b8552336004860161168c565b50505050600190565b50634e487b7160e01b600052603260045260246000fd5b9061181881611996565b6001600160a01b038216611830576112519150611a0f565b6112519161195e565b9091906001600160a01b038082169182611873575061185783611996565b83168061186a5750506112519150611a0f565b03611830575050565b8185168303611883575b50611857565b6118f761188f82610fcb565b6000198101908111611951575b6118e8600093878552600760205260408520548381036118fe575b50846118cd896000526007602052604060002090565b556001600160a01b0316600090815260066020526040902090565b90600052602052604060002090565b553861187d565b87865260066020526040862084875260205261194a604087205480611939846118e88760018060a01b03166000526006602052604060002090565b556000526007602052604060002090565b55386118b7565b61195961140d565b61189c565b60409061196a81610fcb565b9260009160018060a01b0316825260066020528282208483526020528083832055815260076020522055565b6008548160005260096020528060406000205568010000000000000000811015611a02575b60018101806008558110156119f5575b60086000527ff3f7a9fe364faab93b216da50a3214154f22a0a2b415b23a84c8169e8b636ee30155565b6119fd6117f7565b6119cb565b611a0a610b65565b6119bb565b600880546000199290838101818111611b18575b611abf60009384928184526009602052846040852054911015611b0b575b868452611aae7ff3f7a9fe364faab93b216da50a3214154f22a0a2b415b23a84c8169e8b636ee2958681015490831015611afe575b88865280837ff3f7a9fe364faab93b216da50a3214154f22a0a2b415b23a84c8169e8b636ee301556000526009602052604060002090565b556000526009602052604060002090565b558254938415611aea5784019380851015611add575b838352015555565b611ae56117f7565b611ad5565b634e487b7160e01b83526031600452602483fd5b611b066117f7565b611a76565b611b136117f7565b611a41565b611b2061140d565b611a23565b15611b2c57565b60405162461bcd60e51b815260206004820152600c60248201526b125b9d985b1a5908141bdbdb60a21b6044820152606490fd5b9190916040519060209182810190671d1bdad95b8b9a5960c21b825260088152611b8981610ba5565b519020918060018060a01b03600b54169360246040518096819363bd02d0f560e01b835260048301525afa928315611c39575b600093611c08575b506112519394611c039160405190810190611bfb8161057a8885602b916a1c1bdbdb0b999bdc8b9a5960aa1b8252600b8201520190565b519020611d89565b611c46565b90928382813d8311611c32575b611c1f8183610bdd565b810103126103fb57505191611251611bc4565b503d611c15565b611c416116bd565b611bbc565b90604051611c5381610b7c565b600081526001600160a01b038316918215611d45576000818152600260205260409020546001600160a01b0316611d0057838161124c94611c97826112519861180e565b6001600160a01b0383166000908152600360205260409020611cb9815461143b565b9055611cd3836114f1846000526002602052604060002090565b60007fddf252ad1be2c89b69c2b068fc378daa952ba7f163c4a11628f55a4df523b3ef81604051a46116fa565b60405162461bcd60e51b815260206004820152601c60248201527f4552433732313a20746f6b656e20616c7265616479206d696e746564000000006044820152606490fd5b606460405162461bcd60e51b815260206004820152602060248201527f4552433732313a206d696e7420746f20746865207a65726f20616464726573736044820152fd5b600b546001600160a01b0392908316803b1561000e5760009283604492604051968795869463ca446dd960e01b865260048601521660248401525af18015611de7575b611dd35750565b67ffffffffffffffff8111610b9857604052565b611def6116bd565b611dcc565b600b546040516321f8a72160e01b81526004810192909252602090829060249082906001600160a01b03165afa908115611e68575b600091611e34575090565b906020823d8211611e60575b81611e4d60209383610bdd565b810103126103fb5750516102f08161042f565b3d9150611e40565b611e706116bd565b611e29565b60208183031261000e5780519067ffffffffffffffff821161000e570181601f8201121561000e578051611ea881610bff565b92611eb66040519485610bdd565b8184526020828401011161000e576102f0916020808501910161029756fea264697066735822122082135a35190251f09e8a13d62c942a39793ba76dafc152e6401a7adea5f8978b64736f6c63430008100033",
  "linkReferences": {},
  "deployedLinkReferences": {}
}