{
  "_format": "hh-sol-artifact-1",
  "contractName": "StakingPoolFactory",
  "sourceName": "contracts/StakingPoolFactory.sol",
  "abi": [
    {
      "inputs": [
        {
          "internalType": "address",
          "name": "depContAddress_",
          "type": "address"
        },
        {
          "internalType": "address",
          "name": "ssvRegistryAddress_",
          "type": "address"
        }
      ],
      "stateMutability": "nonpayable",
      "type": "constructor"
    },
    {
      "anonymous": false,
      "inputs": [
        {
          "indexed": true,
          "internalType": "address",
          "name": "contractAddress",
          "type": "address"
        },
        {
          "indexed": false,
          "internalType": "address",
          "name": "creator",
          "type": "address"
        },
        {
          "indexed": false,
          "internalType": "address",
          "name": "owner",
          "type": "address"
        },
        {
          "indexed": false,
          "internalType": "address",
          "name": "depositContractAddress",
          "type": "address"
        }
      ],
      "name": "Create",
      "type": "event"
    },
    {
      "anonymous": false,
      "inputs": [
        {
          "indexed": true,
          "internalType": "address",
          "name": "previousOwner",
          "type": "address"
        },
        {
          "indexed": true,
          "internalType": "address",
          "name": "newOwner",
          "type": "address"
        }
      ],
      "name": "OwnershipTransferred",
      "type": "event"
    },
    {
      "inputs": [
        {
          "internalType": "address",
          "name": "owner_",
          "type": "address"
        }
      ],
      "name": "create",
      "outputs": [
        {
          "internalType": "address",
          "name": "",
          "type": "address"
        }
      ],
      "stateMutability": "nonpayable",
      "type": "function"
    },
    {
      "inputs": [
        {
          "internalType": "address",
          "name": "_stakingPoolAddress",
          "type": "address"
        }
      ],
      "name": "doesStakingPoolExist",
      "outputs": [
        {
          "internalType": "bool",
          "name": "",
          "type": "bool"
        }
      ],
      "stateMutability": "view",
      "type": "function"
    },
    {
      "inputs": [],
      "name": "lastContract",
      "outputs": [
        {
          "internalType": "address",
          "name": "",
          "type": "address"
        }
      ],
      "stateMutability": "view",
      "type": "function"
    },
    {
      "inputs": [],
      "name": "owner",
      "outputs": [
        {
          "internalType": "address",
          "name": "",
          "type": "address"
        }
      ],
      "stateMutability": "view",
      "type": "function"
    },
    {
      "inputs": [],
      "name": "renounceOwnership",
      "outputs": [],
      "stateMutability": "nonpayable",
      "type": "function"
    },
    {
      "inputs": [
        {
          "internalType": "address",
          "name": "frensPoolShareAddress_",
          "type": "address"
        }
      ],
      "name": "setFrensPoolShare",
      "outputs": [],
      "stateMutability": "nonpayable",
      "type": "function"
    },
    {
      "inputs": [
        {
          "internalType": "address",
          "name": "newOwner",
          "type": "address"
        }
      ],
      "name": "transferOwnership",
      "outputs": [],
      "stateMutability": "nonpayable",
      "type": "function"
    }
  ],
  "bytecode": "0x6080346100c357601f611e0c38819003918201601f19168301916001600160401b038311848410176100c85780849260409485528339810103126100c357610052602061004b836100de565b92016100de565b60008054336001600160a01b0319808316821784556040519590946001600160a01b03949093859391908416907f8be0079c531659141344cd1fd0a4f28419497f9722a3daafe3b4186f6b6457e09089a31683600354161760035516906004541617600455611d1990816100f38239f35b600080fd5b634e487b7160e01b600052604160045260246000fd5b51906001600160a01b03821682036100c35756fe60406080815260048036101561001457600080fd5b600091823560e01c80632edaf74d1461033f578063715018a6146102df57806376f42f8a146102a05780638da5cb5b146102785780639ed9331814610169578063b1557c2c1461013c5763f2fde38b1461006d57600080fd5b346101385760203660031901126101385781356001600160a01b038181169291839003610134578454908116936100a5338614610393565b83156100e257506001600160a01b0319168217845551917f8be0079c531659141344cd1fd0a4f28419497f9722a3daafe3b4186f6b6457e08484a3f35b608490602084519162461bcd60e51b8352820152602660248201527f4f776e61626c653a206e6577206f776e657220697320746865207a65726f206160448201526564647265737360d01b6064820152fd5b8480fd5b8280fd5b83823461016557816003193601126101655760025490516001600160a01b039091168152602090f35b5080fd5b509034610138576020366003190112610138576001600160a01b03813581811692908390036101345781600354169082600554168551926119058085019385851067ffffffffffffffff8611176102655750916080939185936103df853982523060208301528782015285606082015203019085f08015610258576060849383602097947f68ff1cfcdcf76864161555fc0de1878d8f83ec6949bf351df74d8a4a1a2679ab941696858880975260018a5220600160ff19825416179055846bffffffffffffffffffffffff60a01b6002541617600255600354168551913383528883015285820152a251908152f35b50505051903d90823e3d90fd5b634e487b7160e01b8a5260419052602489fd5b838234610165578160031936011261016557905490516001600160a01b039091168152602090f35b50903461013857602036600319011261013857356001600160a01b0381169081900361013857818360ff92602095526001855220541690519015158152f35b83823461016557816003193601126101655781546001600160a01b03811691839161030b338514610393565b6001600160a01b031916825551917f8be0079c531659141344cd1fd0a4f28419497f9722a3daafe3b4186f6b6457e08284a3f35b50903461013857602036600319011261013857356001600160a01b038181169182900361038f57610374908454163314610393565b6bffffffffffffffffffffffff60a01b600554161760055551f35b8380fd5b1561039a57565b606460405162461bcd60e51b815260206004820152602060248201527f4f776e61626c653a2063616c6c6572206973206e6f7420746865206f776e65726044820152fdfe6080346200010257601f6200190538819003918201601f19168301916001600160401b03831184841017620001075780849260809460405283398101031262000102578062000052620000f2926200011d565b9062000061602082016200011d565b6200007d606062000075604085016200011d565b93016200011d565b92620000893362000132565b600480546001600160a81b031916600892831b610100600160a81b03161790819055600680546001600160a01b031990811692841c6001600160a01b03908116939093179091556007805482169483169490941790935581549092169190921617905562000132565b60405161178690816200017f8239f35b600080fd5b634e487b7160e01b600052604160045260246000fd5b51906001600160a01b03821682036200010257565b600080546001600160a01b039283166001600160a01b03198216811783556040519093909116917f8be0079c531659141344cd1fd0a4f28419497f9722a3daafe3b4186f6b6457e091a356fe6040608081526004908136101561001d575b5050361561001b57005b005b600091823560e01c80631865c57d146110075780632a4dbd2b14610fdc5780632def662014610fb55780632edaf74d14610f66578063378de45b146105e2578063441a3e7014610dbd5780634ad02ef114610d8c5780634b2b4e3614610972578063678e300a14610952578063715018a6146108f05780637be0b4a0146108185780637d882097146107f957806382a790cf146107c15780638620891c1461060957806387f8ab26146105e25780638da5cb5b146105ba578063cfb5a5f81461058e578063e2664e491461053d578063e32d291314610406578063e4fc6b6d146103e5578063f2fde38b1461030d5763f9faa1041461011c5750610011565b826003193601126102655760ff81541660038110156102fa5761013f90156112c5565b34156102c3576008548251632798987d60e11b815260209290916001600160a01b039084908490849082908a9086165af19283156102b9578693610286575b508286526001845234858720556101973460025461130a565b600255600354680100000000000000008110156102735790836101c28360018a9695016003556111e6565b819291549060031b600019811b9283911b169119161790556008541690813b15610265578593606484928387519586948593630d4d151360e01b8552339085015260248401523060448401525af180156102695761024e575b50507f1ed12c9855bd60407f7650e01c62ee4f0f40744b5b17983eec349a2b4e89981a918151903482523390820152a151f35b6102599192506110d2565b6102655781833861021b565b8280fd5b83513d84823e3d90fd5b634e487b7160e01b875260418352602487fd5b9092508381813d83116102b2575b61029e8183611118565b810103126102ae5751913861017e565b8580fd5b503d610294565b85513d88823e3d90fd5b6020606492519162461bcd60e51b8352820152601260248201527136bab9ba103232b837b9b4ba1032ba3432b960711b6044820152fd5b634e487b7160e01b845260218252602484fd5b5034610265576020366003190112610265576001600160a01b03813581811692908390036103e15761034382865416331461127a565b821561038f575060005492826bffffffffffffffffffffffff60a01b8516176000555192167f8be0079c531659141344cd1fd0a4f28419497f9722a3daafe3b4186f6b6457e0600084a3f35b608490602085519162461bcd60e51b8352820152602660248201527f4f776e61626c653a206e6577206f776e657220697320746865207a65726f206160448201526564647265737360d01b6064820152fd5b8480fd5b5050346104025781600319360112610402576103ff611359565b51f35b5080fd5b50919034610402576020806003193601126102655767ffffffffffffffff9084358281116103e157366023820112156103e15761044c9036906024818901359101611233565b9461046160018060a01b03865416331461127a565b855192831161052a575061047f8261047a600554611098565b6115ef565b80601f83116001146104ba57508394829394926104af575b50508160011b916000199060031b1c19161760055551f35b015190503880610497565b60058552601f19831695600080516020611731833981519152929186905b888210610512575050836001959697106104f9575b505050811b0160055551f35b015160001960f88460031b161c191690553880806104ed565b806001859682949686015181550195019301906104d8565b634e487b7160e01b855260419052602484fd5b50503461040257816003193601126104025761056360018060a01b03835416331461127a565b8180808047818115610585575b3390f11561057b5751f35b51903d90823e3d90fd5b506108fc610570565b5091346105b75760203660031901126105b757506105b060209247903561151d565b9051908152f35b80fd5b505034610402578160031936011261040257905490516001600160a01b039091168152602090f35b50346102655760203660031901126102655760209282913581526001845220549051908152f35b506020806003193601126106d35781359160018060a01b03858382600854166024885180948193634f558e7960e01b83528a898401525af190811561074f578791610787575b501561075957808360249260085416875193848092630178b36760e31b825289888301525afa91821561074f578792610720575b50309116036106ea5760ff8154169060038210156106d75750156106a6816112c5565b156106d3576001918452528082206106bf34825461130a565b90556106cd3460025461130a565b60025551f35b8380fd5b634e487b7160e01b865260219052602485fd5b60649184519162461bcd60e51b835282015260126024820152711ddc9bdb99c81cdd185ada5b99c81c1bdbdb60721b6044820152fd5b610741919250843d8611610748575b6107398183611118565b81019061132d565b9038610683565b503d61072f565b86513d89823e3d90fd5b5060649184519162461bcd60e51b835282015260096024820152681b9bdd08195e1a5cdd60ba1b6044820152fd5b90508381813d83116107ba575b61079e8183611118565b810103126107b6575180151581036107b6573861064f565b8680fd5b503d610794565b50346102655760203660031901126102655735916003548310156105b757506107eb6020926111e6565b90549060031b1c9051908152f35b5050346104025781600319360112610402576020906002549051908152f35b8284346105b757806003193601126105b75750805160009160055461083c81611098565b808452906001908181169081156108c8575060011461087d575b505061086782610879940383611118565b51918291602083526020830190611025565b0390f35b6005600090815294506000805160206117318339815191525b8286106108b0575050509181016020019161086782610856565b80546020878701810191909152909501948101610896565b610879965085925060209150926108679360ff191682840152151560051b8201019450610856565b505034610402578160031936011261040257600060018060a01b0361091981855416331461127a565b81546001600160a01b031981168355925192167f8be0079c531659141344cd1fd0a4f28419497f9722a3daafe3b4186f6b6457e08284a3f35b5091346105b75760203660031901126105b757506105b0602092356115b2565b5091346105b757600319916080368401126104025767ffffffffffffffff84358181116106d3576109a69036908701611065565b6024969187358481116107b6576109c09036908501611065565b9260449889359a878c11610d88576109e18a9b9c9a98999a36908901611065565b926109f760018060a01b03809b5416331461127a565b6801bc16d674ec80000093844710610d535760ff8a54166003811015610d4157610d0f57610a2361113a565b8051602091820120606051608020919d9114610c3e5750610a4261113a565b8c8151910120610a5336888b611233565b8d815191012003610bf0575b895460ff19166001178a5530600160f81b8101908110610bde578d51908d82019081528d8252610a8e826110fc565b8d610a9a368d8c611233565b80519101209151902003610b9b578d9e8b9d9e999a9b60069e9d9e541697883b15610b97578f516304512a2360e31b81526080818f01529b8c9a8b998a989291610ae89160848b019161170f565b91868984030190890152610afb9261170f565b928584030190850152610b0d9261170f565b606435606483015203925af180156102b957610b5e575b509183917f72b356fd889b9abd3530accd2c9f4aecbce67d70757181f9f862ac91464ce192935460081c169082519182523390820152a151f35b917f72b356fd889b9abd3530accd2c9f4aecbce67d70757181f9f862ac91464ce192939195610b8d86946110d2565b9591935091610b24565b8a80fd5b505050867f7769746864726177616c2063726564656e7469616c206d69736d6174636800008d601e6064948d8f519562461bcd60e51b8752860152840152820152fd5b634e487b7160e01b8f5260118b52848ffd5b505050867f7075626b657920646f6573206e6f74206d617463682073746f7265642076616c8d60226084948d8f519562461bcd60e51b875286015284015282015261756560f01b6064820152fd5b8611610cfd57858e610c558261047a600554611098565b80601f8311600114610c8b5791610c80575b508660011b906000198860031b1c191617600555610a5f565b905088013538610c67565b6005815260008051602061173183398151915292508e5b8b601f198b168310610ce75750505087601f19811610610ccd575b5050600186811b01600555610a5f565b890135600019600389901b60f8161c191690553880610cbd565b830135845560019093019291820191018e610ca2565b634e487b7160e01b8e5260418a52838efd5b505050866a77726f6e6720737461746560a81b8d600b60649460208f519562461bcd60e51b8752860152840152820152fd5b634e487b7160e01b8f5260218b52848ffd5b505050866d0dcdee840cadcdeeaced040cae8d60931b8d600e60649460208f519562461bcd60e51b8752860152840152820152fd5b8980fd5b50503461040257816003193601126104025761087990610daa61113a565b9051918291602083526020830190611025565b5034610265578160031936011261026557803560249081359260ff8154166003811015610f5457600114610f125760085485516331a9108f60e11b8152828101849052602094916001600160a01b039190869082908590829086165afa908115610f08578991610eeb575b50163303610eb95782875260018452848688205410610e80575050848093600182948394845252858220610e5d82825461134c565b9055610e6b8160025461134c565b600255818115610585573390f11561057b5751f35b855162461bcd60e51b8152918201849052601490820152731b9bdd08195b9bdd59da0819195c1bdcda5d195960621b6044820152606490fd5b855162461bcd60e51b8152918201849052600d908201526c3737ba103a34329037bbb732b960991b6044820152606490fd5b610f029150863d8811610748576107398183611118565b38610e28565b88513d8b823e3d90fd5b606490601b84602088519362461bcd60e51b85528401528201527f63616e6e6f74207769746864726177206f6e6365207374616b656400000000006044820152fd5b634e487b7160e01b8752602182528387fd5b503461026557602036600319011261026557356001600160a01b03818116918290036106d357610f9a90845416331461127a565b6bffffffffffffffffffffffff60a01b600854161760085551f35b5034610265578260031936011261026557610fce611359565b805460ff1916600217905551f35b503461026557826003193601126102655754905160089190911c6001600160a01b0316815260209150f35b50503461040257816003193601126104025761087990610daa61164e565b919082519283825260005b848110611051575050826000602080949584010152601f8019910116010190565b602081830181015184830182015201611030565b9181601f840112156110935782359167ffffffffffffffff8311611093576020838186019501011161109357565b600080fd5b90600182811c921680156110c8575b60208310146110b257565b634e487b7160e01b600052602260045260246000fd5b91607f16916110a7565b67ffffffffffffffff81116110e657604052565b634e487b7160e01b600052604160045260246000fd5b6040810190811067ffffffffffffffff8211176110e657604052565b90601f8019910116810190811067ffffffffffffffff8211176110e657604052565b604051906000826005549161114e83611098565b808352926001908181169081156111c45750600114611177575b5061117592500383611118565b565b6005600090815291506000805160206117318339815191525b8483106111a95750611175935050810160200138611168565b81935090816020925483858a01015201910190918592611190565b90506020925061117594915060ff191682840152151560051b82010138611168565b60035481101561121d5760036000527fc2575a0e9e593c00f959f8c92f12db2869c3395a3b0502d05e2516446f71f85b0190600090565b634e487b7160e01b600052603260045260246000fd5b92919267ffffffffffffffff82116110e6576040519161125d601f8201601f191660200184611118565b829481845281830111611093578281602093846000960137010152565b1561128157565b606460405162461bcd60e51b815260206004820152602060248201527f4f776e61626c653a2063616c6c6572206973206e6f7420746865206f776e65726044820152fd5b156112cc57565b60405162461bcd60e51b81526020600482015260166024820152756e6f7420616363657074696e67206465706f7369747360501b6044820152606490fd5b9190820180921161131757565b634e487b7160e01b600052601160045260246000fd5b9081602091031261109357516001600160a01b03811681036110935790565b9190820391821161131757565b60049060ff825416600392838210156115085760018092036114c45747606481111561148057600094835b611391575b505050509050565b805486101561147b576113a3866111e6565b905490821b1c60018060a01b03806008541691604092835180916331a9108f60e11b8252838983015281602460209485935afa918215611470579360009493859493898695948695869361144d575b50506113fe919261151d565b9183918315611443575b1690f11561143957506000198614611424579483019483611384565b601183634e487b7160e01b6000525260246000fd5b513d6000823e3d90fd5b6108fc9250611408565b6113fe9350908161146992903d10610748576107398183611118565b91386113f2565b85513d6000823e3d90fd5b611389565b60405162461bcd60e51b8152602081840181905260248201527f6d696e696d756d206f66203130302077656920746f20646973747269627574656044820152606490fd5b60649060206040519162461bcd60e51b8352820152601c60248201527f757365207769746864726177207768656e206e6f74207374616b6564000000006044820152fd5b602190634e487b7160e01b6000525260246000fd5b600090815260016020526040812054156115ad57604081205460001992908115158285048211166115995760025491821561158557020491600183111561157f57820191821161156b575090565b634e487b7160e01b81526011600452602490fd5b50905090565b634e487b7160e01b84526012600452602484fd5b634e487b7160e01b83526011600452602483fd5b905090565b60ff6004541660038110156115d9576115cb5750600090565b6115d690479061151d565b90565b634e487b7160e01b600052602160045260246000fd5b601f81116115fb575050565b60009060058252600080516020611731833981519152906020601f850160051c83019410611644575b601f0160051c01915b82811061163957505050565b81815560010161162d565b9092508290611624565b60ff6004541660038110156115d957600181146116ec5780156116bd5760021461169b5760405161167e816110fc565b600d81526c7374617465206661696c75726560981b602082015290565b6040516116a7816110fc565b6006815265195e1a5d195960d21b602082015290565b506040516116ca816110fc565b6012815271616363657074696e67206465706f7369747360701b602082015290565b506040516116f9816110fc565b60068152651cdd185ad95960d21b602082015290565b908060209392818452848401376000828201840152601f01601f191601019056fe036b6384b5eca791c62761152d0c79bb0604c104a5fb6f4eb0703f3154bb3db0a264697066735822122040efbf77d3a4daf84aeecd0d55b8d5b4cb658118a4dad4fccf988149ebeba77f64736f6c63430008100033a26469706673582212204b4e736df1b4bc9fada966f079b3d55e24de5e881632ebfc67c22212ae5c581464736f6c63430008100033",
  "linkReferences": {},
  "deployedLinkReferences": {}
}