{
  "_format": "hh-sol-artifact-1",
  "contractName": "StakingPool",
  "sourceName": "contracts/StakingPool.sol",
  "abi": [
    {
      "inputs": [
        {
          "internalType": "address",
          "name": "owner_",
          "type": "address"
        },
        {
          "internalType": "contract IFrensStorage",
          "name": "frensStorage_",
          "type": "address"
        }
      ],
      "stateMutability": "nonpayable",
      "type": "constructor"
    },
    {
      "anonymous": false,
      "inputs": [
        {
          "indexed": false,
          "internalType": "uint256",
          "name": "amount",
          "type": "uint256"
        },
        {
          "indexed": false,
          "internalType": "address",
          "name": "depositer",
          "type": "address"
        }
      ],
      "name": "DepositToPool",
      "type": "event"
    },
    {
      "anonymous": false,
      "inputs": [
        {
          "indexed": true,
          "internalType": "address",
          "name": "previousOwner",
          "type": "address"
        },
        {
          "indexed": true,
          "internalType": "address",
          "name": "newOwner",
          "type": "address"
        }
      ],
      "name": "OwnershipTransferred",
      "type": "event"
    },
    {
      "anonymous": false,
      "inputs": [
        {
          "indexed": false,
          "internalType": "address",
          "name": "depositContractAddress",
          "type": "address"
        },
        {
          "indexed": false,
          "internalType": "address",
          "name": "caller",
          "type": "address"
        }
      ],
      "name": "Stake",
      "type": "event"
    },
    {
      "stateMutability": "payable",
      "type": "fallback"
    },
    {
      "inputs": [
        {
          "internalType": "uint256",
          "name": "_id",
          "type": "uint256"
        }
      ],
      "name": "addToDeposit",
      "outputs": [],
      "stateMutability": "payable",
      "type": "function"
    },
    {
      "inputs": [],
      "name": "depositToPool",
      "outputs": [],
      "stateMutability": "payable",
      "type": "function"
    },
    {
      "inputs": [],
      "name": "distribute",
      "outputs": [],
      "stateMutability": "nonpayable",
      "type": "function"
    },
    {
      "inputs": [
        {
          "internalType": "uint256",
          "name": "_id",
          "type": "uint256"
        }
      ],
      "name": "getDepositAmount",
      "outputs": [
        {
          "internalType": "uint256",
          "name": "",
          "type": "uint256"
        }
      ],
      "stateMutability": "view",
      "type": "function"
    },
    {
      "inputs": [
        {
          "internalType": "uint256",
          "name": "_id",
          "type": "uint256"
        }
      ],
      "name": "getDistributableShare",
      "outputs": [
        {
          "internalType": "uint256",
          "name": "",
          "type": "uint256"
        }
      ],
      "stateMutability": "view",
      "type": "function"
    },
    {
      "inputs": [],
      "name": "getIdsInThisPool",
      "outputs": [
        {
          "internalType": "uint256[]",
          "name": "",
          "type": "uint256[]"
        }
      ],
      "stateMutability": "view",
      "type": "function"
    },
    {
      "inputs": [],
      "name": "getPubKey",
      "outputs": [
        {
          "internalType": "bytes",
          "name": "",
          "type": "bytes"
        }
      ],
      "stateMutability": "view",
      "type": "function"
    },
    {
      "inputs": [
        {
          "internalType": "uint256",
          "name": "_id",
          "type": "uint256"
        }
      ],
      "name": "getShare",
      "outputs": [
        {
          "internalType": "uint256",
          "name": "",
          "type": "uint256"
        }
      ],
      "stateMutability": "view",
      "type": "function"
    },
    {
      "inputs": [],
      "name": "getState",
      "outputs": [
        {
          "internalType": "string",
          "name": "",
          "type": "string"
        }
      ],
      "stateMutability": "view",
      "type": "function"
    },
    {
      "inputs": [],
      "name": "owner",
      "outputs": [
        {
          "internalType": "address",
          "name": "",
          "type": "address"
        }
      ],
      "stateMutability": "view",
      "type": "function"
    },
    {
      "inputs": [],
      "name": "renounceOwnership",
      "outputs": [],
      "stateMutability": "nonpayable",
      "type": "function"
    },
    {
      "inputs": [],
      "name": "rugpull",
      "outputs": [],
      "stateMutability": "nonpayable",
      "type": "function"
    },
    {
      "inputs": [
        {
          "internalType": "address",
          "name": "frensPoolShareAddress_",
          "type": "address"
        }
      ],
      "name": "setFrensPoolShare",
      "outputs": [],
      "stateMutability": "nonpayable",
      "type": "function"
    },
    {
      "inputs": [
        {
          "internalType": "bytes",
          "name": "_publicKey",
          "type": "bytes"
        }
      ],
      "name": "setPubKey",
      "outputs": [],
      "stateMutability": "nonpayable",
      "type": "function"
    },
    {
      "inputs": [
        {
          "internalType": "bytes",
          "name": "pubKey",
          "type": "bytes"
        },
        {
          "internalType": "bytes",
          "name": "withdrawal_credentials",
          "type": "bytes"
        },
        {
          "internalType": "bytes",
          "name": "signature",
          "type": "bytes"
        },
        {
          "internalType": "bytes32",
          "name": "deposit_data_root",
          "type": "bytes32"
        }
      ],
      "name": "stake",
      "outputs": [],
      "stateMutability": "nonpayable",
      "type": "function"
    },
    {
      "inputs": [
        {
          "internalType": "address",
          "name": "newOwner",
          "type": "address"
        }
      ],
      "name": "transferOwnership",
      "outputs": [],
      "stateMutability": "nonpayable",
      "type": "function"
    },
    {
      "inputs": [],
      "name": "unstake",
      "outputs": [],
      "stateMutability": "nonpayable",
      "type": "function"
    },
    {
      "inputs": [],
      "name": "version",
      "outputs": [
        {
          "internalType": "uint8",
          "name": "",
          "type": "uint8"
        }
      ],
      "stateMutability": "view",
      "type": "function"
    },
    {
      "inputs": [
        {
          "internalType": "uint256",
          "name": "_id",
          "type": "uint256"
        },
        {
          "internalType": "uint256",
          "name": "_amount",
          "type": "uint256"
        }
      ],
      "name": "withdraw",
      "outputs": [],
      "stateMutability": "nonpayable",
      "type": "function"
    },
    {
      "stateMutability": "payable",
      "type": "receive"
    }
  ],
  "bytecode": "0x60806040818152346200018357808262001dc9803803809162000023828562000188565b83398101031262000183576200003982620001ac565b6020928301516001600160a01b03808216949185900362000183576200005f33620001c1565b600180546001600160a01b0319908116871790915584516f636f6e74726163742e6164647265737360801b8185019081526d4672656e73506f6f6c536861726560901b6030830152601e82528187019792949192906001600160401b038911848a10176200016d5760248984938193828c52875190206321f8a72160e01b835260448801525afa91821562000162576000926200011e575b50506200011094955016906002541617600255620001c1565b51611bbb90816200020e8239f35b813d83116200015a575b62000134818a62000188565b810103126200015757506200014e620001109495620001ac565b859438620000f7565b80fd5b503d62000128565b86513d6000823e3d90fd5b634e487b7160e01b600052604160045260246000fd5b600080fd5b601f909101601f19168101906001600160401b038211908210176200016d57604052565b51906001600160a01b03821682036200018357565b600080546001600160a01b039283166001600160a01b03198216811783556040519093909116917f8be0079c531659141344cd1fd0a4f28419497f9722a3daafe3b4186f6b6457e091a356fe6040608081526004908136101561001d575b5050361561001b57005b005b600091823560e01c80631865c57d146110f15780632def6620146110765780632edaf74d1461102c578063378de45b14610fe5578063441a3e7014610df757806345b58fe414610d585780634ad02ef114610d135780634b2b4e361461092857806354fd4d5014610905578063678e300a146108e5578063715018a6146108835780638620891c146106a75780638da5cb5b1461067f578063cfb5a5f814610653578063e2664e4914610602578063e32d291314610563578063e4fc6b6d14610546578063f2fde38b146104775763f9faa104146100fb5750610011565b826003193601126103c757610127610111611ae7565b61012161011c6112a7565b611aef565b146112d4565b34156104405781519060209161017f6801bc16d674ec80000061017885840193610173816101553088611319565b0395610169601f19978881018552846111e7565b34925190206113c8565b611347565b111561136a565b835190838201671d1bdad95b8b9a5960c21b92838252600881526101a2816111af565b5190206001546001600160a01b03939190841690813b1561043b57600091604483928a519485938492632b6cd4f760e21b84528b840152600160248401525af1801561043057916102149189959493610421575b5087518781019182526008815261020c816111af565b5190206113c8565b908651868101906d19195c1bdcda5d0b985b5bdd5b9d60921b825283602e820152602e8152610242816111cb565b519020836001541690813b1561041d578591604483928b519485938492637152429d60e11b84528c8401523460248401525af19081156104135785916103fb575b50506102b187518781016102a78261029b3084611319565b038581018452836111e7565b3491519020611441565b86516a1a591ccb9a5b8b9c1bdbdb60aa1b8782019081523060601b6bffffffffffffffffffffffff1916600b820152916102f79082601f85015b039081018352826111e7565b519020826001541691823b156103f75760448592838a51958694859363785f002b60e11b85528b85015260248401525af19081156103ed5783916103d9575b50506002541691823b156103d557845163ee1fe2ad60e01b815233918101918252306020830152859390918391839182908490829060400103925af180156103cb576103b0575b50507f1ed12c9855bd60407f7650e01c62ee4f0f40744b5b17983eec349a2b4e89981a918151903482523390820152a151f35b6103bb919250611185565b6103c75781833861037d565b8280fd5b83513d84823e3d90fd5b5080fd5b6103e290611185565b6103d5578138610336565b86513d85823e3d90fd5b8480fd5b61040490611185565b61040f578338610283565b8380fd5b88513d87823e3d90fd5b8580fd5b61042a90611185565b386101f6565b87513d6000823e3d90fd5b600080fd5b6020606492519162461bcd60e51b8352820152601260248201527136bab9ba103232b837b9b4ba1032ba3432b960711b6044820152fd5b50346103c75760203660031901126103c7576001600160a01b03813581811692908390036103f7576104ad82865416331461125c565b82156104f4575060005492826001600160601b0360a01b8516176000555192167f8be0079c531659141344cd1fd0a4f28419497f9722a3daafe3b4186f6b6457e0600084a3f35b608490602085519162461bcd60e51b8352820152602660248201527f4f776e61626c653a206e6577206f776e657220697320746865207a65726f206160448201526564647265737360d01b6064820152fd5b5050346103d557816003193601126103d557610560611571565b51f35b50346103c75760203660031901126103c757803567ffffffffffffffff811161040f573660238201121561040f57610560918160246105a793369301359101611225565b6105bb60018060a01b03855416331461125c565b6105d76105c6611ae7565b6105d161011c6112a7565b146119cf565b825160208101906105fa816105ec30856118c9565b03601f1981018352826111e7565b519020611a09565b5050346103d557816003193601126103d55761062860018060a01b03835416331461125c565b818080804781811561064a575b3390f1156106405751f35b51903d90823e3d90fd5b506108fc610635565b50913461067c57602036600319011261067c57506106756020924790356117fa565b9051908152f35b80fd5b5050346103d557816003193601126103d557905490516001600160a01b039091168152602090f35b506020908160031936011261040f5780359060018060a01b036024848260025416875192838092634f558e7960e01b825288888301525afa90811561087957879161083f575b5015610808576107288551858101906a1c1bdbdb0b999bdc8b9a5960aa1b825285602b820152602b8152610720816111cb565b5190206114b0565b309116036107d057509061056091610741610111611ae7565b6107b08451916107836801bc16d674ec80000061017861077c878701876107683083611319565b039761020c601f19998a81018352826111e7565b3490611347565b855190848201906d19195c1bdcda5d0b985b5bdd5b9d60921b8252602e830152602e82526102a7826111cb565b6102a7845192830191836107c43085611319565b039081018452836111e7565b835162461bcd60e51b815290810183905260126024820152711ddc9bdb99c81cdd185ada5b99c81c1bdbdb60721b6044820152606490fd5b845162461bcd60e51b815280830185905260116024820152701a5908191bd95cc81b9bdd08195e1a5cdd607a1b6044820152606490fd5b90508481813d8311610872575b61085681836111e7565b8101031261086e5751801515810361086e57386106ed565b8680fd5b503d61084c565b86513d89823e3d90fd5b5050346103d557816003193601126103d557600060018060a01b036108ac81855416331461125c565b81546001600160a01b031981168355925192167f8be0079c531659141344cd1fd0a4f28419497f9722a3daafe3b4186f6b6457e08284a3f35b50913461067c57602036600319011261067c5750610675602092356118a0565b5050346103d557816003193601126103d55760ff6020925460a01c169051908152f35b509190346103d557600319926080368501126103c75767ffffffffffffffff9080358281116103f75761095e9036908301611157565b909160243584811161086e576109779036908301611157565b9094604435908111610d0f576109909036908401611157565b98909260018060a01b03966109a9888b5416331461125c565b6801bc16d674ec80000092834710610cdb576109c66105c6611ae7565b89519b60209c8d8a8d6109fc838501856109e030836118c9565b03956109f4601f19978881018352826111e7565b519020611932565b908c8251938584019485206060516080201415600014610c915750505051902090610a298c8c3691611225565b805191012003610c4357610a5e908e610a4d8e5b5191820192826102eb3086611a5f565b519020610a5861150a565b90611b40565b600160f81b3001803011610c30578b51808f019182528e8152908e610a82836111af565b610a8d368a88611225565b80519101209151902003610bed57610af28c9d8c9d9a9b9c51908101907f65787465726e616c2e636f6e74726163742e616464726573730000000000000082526e11195c1bdcda5d10dbdb9d1c9858dd608a1b603982015260288152610720816111cb565b9a8b1696873b15610be957610b3b610b4a946080988f610b2b90519e8f9d8e9c8d9b6304512a2360e31b8d528c015260848b0191611b1f565b91868984030160248a0152611b1f565b92858403016044860152611b1f565b606435606483015203925af18015610bdc57610ba5575b5081516001600160a01b0390911681523360208201527f72b356fd889b9abd3530accd2c9f4aecbce67d70757181f9f862ac91464ce1929080604081015b0390a151f35b7f72b356fd889b9abd3530accd2c9f4aecbce67d70757181f9f862ac91464ce1929193610bd4610b9f92611185565b939150610b61565b50505051903d90823e3d90fd5b8980fd5b8a5162461bcd60e51b81528085018e9052601e60248201527f7769746864726177616c2063726564656e7469616c206d69736d6174636800006044820152606490fd5b634e487b7160e01b8d526011855260248dfd5b8b5162461bcd60e51b81528086018f9052602260248201527f7075626b657920646f6573206e6f74206d617463682073746f7265642076616c604482015261756560f01b6064820152608490fd5b610a5e96959450610a4d935090610cd0610cd692845187810190610cc581610cb930856118c9565b038b81018352826111e7565b519020923691611225565b90611a09565b610a3d565b895162461bcd60e51b8152602081850152600e60248201526d0dcdee840cadcdeeaced040cae8d60931b6044820152606490fd5b8780fd5b5050346103d557816003193601126103d55780610d41610d54925160208101906109f4816105ec30856118c9565b9051918291602083526020830190611132565b0390f35b5050346103d557816003193601126103d55780516a1a591ccb9a5b8b9c1bdbdb60aa1b60208083019182523060601b6bffffffffffffffffffffffff1916602b840152929391610db89190610db081603f81016105ec565b519020611708565b9083519383808695860192818752855180945286019401925b828110610de057505050500390f35b835185528695509381019392810192600101610dd1565b50346103c757816003193601126103c757803560243591610e16611ae7565b610e2161011c61150a565b14610fa25760025484516331a9108f60e11b8152828101849052602093916001600160a01b03919085908290602490829086165afa908115610f98578891610f6b575b50163303610f395784519184610e9f8585016d19195c1bdcda5d0b985b5bdd5b9d60921b9586825285602e820152602e815261020c816111cb565b10610eff575083610eed81889695610ed98897889788978c5190858201928352602e820152602e8152610ed1816111cb565b51902061152c565b885190810190610ed1816105ec3085611319565b81811561064a573390f1156106405751f35b855162461bcd60e51b815290810184905260146024820152731b9bdd08195b9bdd59da0819195c1bdcda5d195960621b6044820152606490fd5b5060649184519162461bcd60e51b8352820152600d60248201526c3737ba103a34329037bbb732b960991b6044820152fd5b610f8b9150853d8711610f91575b610f8381836111e7565b810190611491565b38610e64565b503d610f79565b87513d8a823e3d90fd5b606490602085519162461bcd60e51b8352820152601b60248201527f63616e6e6f74207769746864726177206f6e6365207374616b656400000000006044820152fd5b50913461067c57602036600319011261067c57506106756020928251848101916d19195c1bdcda5d0b985b5bdd5b9d60921b835235602e820152602e815261020c816111cb565b50346103c75760203660031901126103c757356001600160a01b038181169182900361040f5761106090845416331461125c565b6001600160601b0360a01b600254161760025551f35b5050346103d557816003193601126103d55761109c60018060a01b03835416331461125c565b606447116110e4575b610560815160208101906110bd816105ec3085611a5f565b5190208251906110cc826111af565b6006825265195e1a5d195960d21b6020830152611b40565b6110ec611571565b6110a5565b5050346103d557816003193601126103d557610d5490610d41611a8d565b60005b8381106111225750506000910152565b8181015183820152602001611112565b9060209161114b8151809281855285808601910161110f565b601f01601f1916010190565b9181601f8401121561043b5782359167ffffffffffffffff831161043b576020838186019501011161043b57565b67ffffffffffffffff811161119957604052565b634e487b7160e01b600052604160045260246000fd5b6040810190811067ffffffffffffffff82111761119957604052565b6060810190811067ffffffffffffffff82111761119957604052565b90601f8019910116810190811067ffffffffffffffff82111761119957604052565b67ffffffffffffffff811161119957601f01601f191660200190565b92919261123182611209565b9161123f60405193846111e7565b82948184528183011161043b578281602093846000960137010152565b1561126357565b606460405162461bcd60e51b815260206004820152602060248201527f4f776e61626c653a2063616c6c6572206973206e6f7420746865206f776e65726044820152fd5b604051906112b4826111af565b6011825270616363657074696e674465706f7369747360781b6020830152565b156112db57565b60405162461bcd60e51b81526020600482015260166024820152756e6f7420616363657074696e67206465706f7369747360501b6044820152606490fd5b6022916d746f74616c2e6465706f7369747360901b82526001600160601b03199060601b16600e8201520190565b9190820180921161135457565b634e487b7160e01b600052601160045260246000fd5b1561137157565b60405162461bcd60e51b815260206004820152602960248201527f746f74616c206465706f737469732063616e6e6f74206265206d6f72652074686044820152680c2dc406664408ae8d60bb1b6064820152608490fd5b60015460405163bd02d0f560e01b81526004810192909252602090829060249082906001600160a01b03165afa90811561143557600091611407575090565b906020823d821161142d575b81611420602093836111e7565b8101031261067c57505190565b3d9150611413565b6040513d6000823e3d90fd5b6001546001600160a01b031691823b1561043b576044600092836040519586948593632b6cd4f760e21b8552600485015260248401525af18015611435576114865750565b61148f90611185565b565b9081602091031261043b57516001600160a01b038116810361043b5790565b6001546040516321f8a72160e01b81526004810192909252602090829060249082906001600160a01b03165afa908115611435576000916114ef575090565b611507915060203d8111610f9157610f8381836111e7565b90565b60405190611517826111af565b60068252651cdd185ad95960d21b6020830152565b6001546001600160a01b031691823b1561043b57604460009283604051958694859363ebb9d8c960e01b8552600485015260248401525af18015611435576114865750565b611579611ae7565b61158461011c61150a565b036116c3574760409081516115a760209182810190610db0816105ec3085611319565b60648311156116815760005b815181101561167a57600581901b820183015160025486516331a9108f60e11b8152600481018390526001600160a01b03929186908290602490829087165afa90811561166f57600093849384938a8594859261164e575b5061161691926117fa565b9183918315611644575b1690f115611639576000198114611354576001016115b3565b84513d6000823e3d90fd5b6108fc9250611620565b6116169250611669908c8d3d10610f9157610f8381836111e7565b9161160b565b88513d6000823e3d90fd5b5050505050565b60648285519062461bcd60e51b825280600483015260248201527f6d696e696d756d206f66203130302077656920746f20646973747269627574656044820152fd5b60405162461bcd60e51b815260206004820152601c60248201527f757365207769746864726177207768656e206e6f74207374616b6564000000006044820152606490fd5b6001546040516378267eb560e11b81526004810192909252600091908290829060249082906001600160a01b03165afa9182156117ee57809261174a57505090565b9091503d8082843e61175c81846111e7565b8201602091828483031261067c57835167ffffffffffffffff948582116103c7570182601f820112156103d55780519485116117da578460051b91604051956117a7868501886111e7565b8652848087019383010193841161067c57508301905b8282106117cb575050505090565b815181529083019083016117bd565b634e487b7160e01b82526041600452602482fd5b604051903d90823e3d90fd5b61182c9060405160208101916d19195c1bdcda5d0b985b5bdd5b9d60921b8352602e820152602e815261020c816111cb565b611845604051602081019061020c816105ec3085611319565b908015611898576000199280151581850483111661135457821561188257020490600182111561187b5781019081116113545790565b5050600090565b634e487b7160e01b600052601260045260246000fd5b505050600090565b6118a8611ae7565b6118b361011c6112a7565b036118be5750600090565b6115079047906117fa565b6028917376616c696461746f722e7075626c69632e6b657960601b82526001600160601b03199060601b1660148201520190565b9092919261190a81611209565b9161191860405193846111e7565b82948284528282011161043b57602061148f93019061110f565b600154604051630180634360e71b815260048101929092526000908190839060249082906001600160a01b03165afa9182156119c257819261197357505090565b909291503d8084833e61198681836111e7565b81019060208183031261040f5780519067ffffffffffffffff82116103f7570181601f8201121561040f576115079293506020815191016118fd565b50604051903d90823e3d90fd5b156119d657565b60405162461bcd60e51b815260206004820152600b60248201526a77726f6e6720737461746560a81b6044820152606490fd5b6001546001600160a01b031691823b1561043b57611a4e9260009283604051809681958294630b8a342160e21b84526004840152604060248401526044830190611132565b03925af18015611435576114865750565b6022916d636f6e74726163742e737461746560901b82526001600160601b03199060601b16600e8201520190565b6040516020810190611aa3816105ec3085611a5f565b519020600154604051634c373c8d60e11b815260048101929092526000908190839060249082906001600160a01b03165afa9182156119c257819261197357505090565b611aef611a8d565b604051611b1960208281611b0c818301968781519384920161110f565b81010380845201826111e7565b51902090565b908060209392818452848401376000828201840152601f01601f1916010190565b6001546001600160a01b031691823b1561043b57611a4e92600092836040518096819582946306e8995560e41b8452600484015260406024840152604483019061113256fea26469706673582212209c4df115281bb1803eef22d06cf8ec31409d666cea327fe9f9075d39fe4dd7a964736f6c63430008100033",
  "linkReferences": {},
  "deployedLinkReferences": {}
}