{
  "address": "0xC50e791f4313b5521C33BAa55393DF8f76A14B66",
  "abi": [
    {
      "inputs": [],
      "name": "InvalidInitialization",
      "type": "error"
    },
    {
      "inputs": [],
      "name": "NotInitializing",
      "type": "error"
    },
    {
      "inputs": [
        {
          "internalType": "address",
          "name": "owner",
          "type": "address"
        }
      ],
      "name": "OwnableInvalidOwner",
      "type": "error"
    },
    {
      "inputs": [
        {
          "internalType": "address",
          "name": "account",
          "type": "address"
        }
      ],
      "name": "OwnableUnauthorizedAccount",
      "type": "error"
    },
    {
      "anonymous": false,
      "inputs": [
        {
          "indexed": false,
          "internalType": "uint256",
          "name": "id",
          "type": "uint256"
        },
        {
          "indexed": false,
          "internalType": "uint256",
          "name": "ammount",
          "type": "uint256"
        }
      ],
      "name": "AddToDeposit",
      "type": "event"
    },
    {
      "anonymous": false,
      "inputs": [
        {
          "indexed": false,
          "internalType": "uint256",
          "name": "id",
          "type": "uint256"
        },
        {
          "indexed": false,
          "internalType": "uint256",
          "name": "amount",
          "type": "uint256"
        },
        {
          "indexed": false,
          "internalType": "address",
          "name": "recipient",
          "type": "address"
        }
      ],
      "name": "Claim",
      "type": "event"
    },
    {
      "anonymous": false,
      "inputs": [
        {
          "indexed": false,
          "internalType": "uint256",
          "name": "amount",
          "type": "uint256"
        },
        {
          "indexed": false,
          "internalType": "address",
          "name": "depositer",
          "type": "address"
        },
        {
          "indexed": false,
          "internalType": "uint256",
          "name": "id",
          "type": "uint256"
        }
      ],
      "name": "DepositToPool",
      "type": "event"
    },
    {
      "anonymous": false,
      "inputs": [
        {
          "indexed": false,
          "internalType": "uint64",
          "name": "version",
          "type": "uint64"
        }
      ],
      "name": "Initialized",
      "type": "event"
    },
    {
      "anonymous": false,
      "inputs": [
        {
          "indexed": true,
          "internalType": "address",
          "name": "previousOwner",
          "type": "address"
        },
        {
          "indexed": true,
          "internalType": "address",
          "name": "newOwner",
          "type": "address"
        }
      ],
      "name": "OwnershipTransferred",
      "type": "event"
    },
    {
      "anonymous": false,
      "inputs": [
        {
          "indexed": false,
          "internalType": "bytes",
          "name": "_pubKey",
          "type": "bytes"
        },
        {
          "indexed": false,
          "internalType": "bytes",
          "name": "_withdrawal_credentials",
          "type": "bytes"
        },
        {
          "indexed": false,
          "internalType": "bytes",
          "name": "_signature",
          "type": "bytes"
        },
        {
          "indexed": false,
          "internalType": "bytes32",
          "name": "_deposit_data_root",
          "type": "bytes32"
        }
      ],
      "name": "SetPubKey",
      "type": "event"
    },
    {
      "anonymous": false,
      "inputs": [
        {
          "indexed": false,
          "internalType": "address",
          "name": "depositContractAddress",
          "type": "address"
        },
        {
          "indexed": false,
          "internalType": "address",
          "name": "caller",
          "type": "address"
        }
      ],
      "name": "Stake",
      "type": "event"
    },
    {
      "anonymous": false,
      "inputs": [
        {
          "indexed": false,
          "internalType": "uint256",
          "name": "id",
          "type": "uint256"
        },
        {
          "indexed": false,
          "internalType": "uint256",
          "name": "amount",
          "type": "uint256"
        },
        {
          "indexed": false,
          "internalType": "address",
          "name": "recipient",
          "type": "address"
        }
      ],
      "name": "Withdraw",
      "type": "event"
    },
    {
      "stateMutability": "payable",
      "type": "fallback"
    },
    {
      "inputs": [
        {
          "internalType": "uint256",
          "name": "_id",
          "type": "uint256"
        }
      ],
      "name": "addToDeposit",
      "outputs": [],
      "stateMutability": "payable",
      "type": "function"
    },
    {
      "inputs": [],
      "name": "artForPool",
      "outputs": [
        {
          "internalType": "contract IFrensArt",
          "name": "",
          "type": "address"
        }
      ],
      "stateMutability": "view",
      "type": "function"
    },
    {
      "inputs": [
        {
          "internalType": "bytes",
          "name": "data",
          "type": "bytes"
        }
      ],
      "name": "callSSVNetwork",
      "outputs": [],
      "stateMutability": "nonpayable",
      "type": "function"
    },
    {
      "inputs": [
        {
          "internalType": "uint256",
          "name": "_id",
          "type": "uint256"
        }
      ],
      "name": "claim",
      "outputs": [],
      "stateMutability": "nonpayable",
      "type": "function"
    },
    {
      "inputs": [],
      "name": "currentState",
      "outputs": [
        {
          "internalType": "enum StakingPool.PoolState",
          "name": "",
          "type": "uint8"
        }
      ],
      "stateMutability": "view",
      "type": "function"
    },
    {
      "inputs": [],
      "name": "depositContract",
      "outputs": [
        {
          "internalType": "contract IDepositContract",
          "name": "",
          "type": "address"
        }
      ],
      "stateMutability": "view",
      "type": "function"
    },
    {
      "inputs": [
        {
          "internalType": "uint256",
          "name": "",
          "type": "uint256"
        }
      ],
      "name": "depositForId",
      "outputs": [
        {
          "internalType": "uint256",
          "name": "",
          "type": "uint256"
        }
      ],
      "stateMutability": "view",
      "type": "function"
    },
    {
      "inputs": [],
      "name": "depositToPool",
      "outputs": [],
      "stateMutability": "payable",
      "type": "function"
    },
    {
      "inputs": [],
      "name": "deposit_data_root",
      "outputs": [
        {
          "internalType": "bytes32",
          "name": "",
          "type": "bytes32"
        }
      ],
      "stateMutability": "view",
      "type": "function"
    },
    {
      "inputs": [],
      "name": "feePercent",
      "outputs": [
        {
          "internalType": "uint256",
          "name": "",
          "type": "uint256"
        }
      ],
      "stateMutability": "view",
      "type": "function"
    },
    {
      "inputs": [],
      "name": "feeRecipient",
      "outputs": [
        {
          "internalType": "address",
          "name": "",
          "type": "address"
        }
      ],
      "stateMutability": "view",
      "type": "function"
    },
    {
      "inputs": [
        {
          "internalType": "uint256",
          "name": "",
          "type": "uint256"
        }
      ],
      "name": "frenPastClaim",
      "outputs": [
        {
          "internalType": "uint256",
          "name": "",
          "type": "uint256"
        }
      ],
      "stateMutability": "view",
      "type": "function"
    },
    {
      "inputs": [],
      "name": "frensPoolShare",
      "outputs": [
        {
          "internalType": "contract IFrensPoolShare",
          "name": "",
          "type": "address"
        }
      ],
      "stateMutability": "view",
      "type": "function"
    },
    {
      "inputs": [],
      "name": "frensStorage",
      "outputs": [
        {
          "internalType": "contract IFrensStorage",
          "name": "",
          "type": "address"
        }
      ],
      "stateMutability": "view",
      "type": "function"
    },
    {
      "inputs": [
        {
          "internalType": "uint256",
          "name": "_id",
          "type": "uint256"
        }
      ],
      "name": "getDistributableShare",
      "outputs": [
        {
          "internalType": "uint256",
          "name": "",
          "type": "uint256"
        }
      ],
      "stateMutability": "view",
      "type": "function"
    },
    {
      "inputs": [],
      "name": "getIdsInThisPool",
      "outputs": [
        {
          "internalType": "uint256[]",
          "name": "",
          "type": "uint256[]"
        }
      ],
      "stateMutability": "view",
      "type": "function"
    },
    {
      "inputs": [
        {
          "internalType": "uint256",
          "name": "_id",
          "type": "uint256"
        }
      ],
      "name": "getShare",
      "outputs": [
        {
          "internalType": "uint256",
          "name": "",
          "type": "uint256"
        }
      ],
      "stateMutability": "view",
      "type": "function"
    },
    {
      "inputs": [],
      "name": "getState",
      "outputs": [
        {
          "internalType": "string",
          "name": "",
          "type": "string"
        }
      ],
      "stateMutability": "view",
      "type": "function"
    },
    {
      "inputs": [
        {
          "internalType": "uint256",
          "name": "",
          "type": "uint256"
        }
      ],
      "name": "idsInPool",
      "outputs": [
        {
          "internalType": "uint256",
          "name": "",
          "type": "uint256"
        }
      ],
      "stateMutability": "view",
      "type": "function"
    },
    {
      "inputs": [
        {
          "internalType": "address",
          "name": "owner_",
          "type": "address"
        },
        {
          "internalType": "bool",
          "name": "validatorLocked_",
          "type": "bool"
        },
        {
          "internalType": "contract IFrensStorage",
          "name": "frensStorage_",
          "type": "address"
        }
      ],
      "name": "initialize",
      "outputs": [],
      "stateMutability": "nonpayable",
      "type": "function"
    },
    {
      "inputs": [
        {
          "internalType": "uint256",
          "name": "",
          "type": "uint256"
        }
      ],
      "name": "locked",
      "outputs": [
        {
          "internalType": "bool",
          "name": "",
          "type": "bool"
        }
      ],
      "stateMutability": "view",
      "type": "function"
    },
    {
      "inputs": [],
      "name": "owner",
      "outputs": [
        {
          "internalType": "address",
          "name": "",
          "type": "address"
        }
      ],
      "stateMutability": "view",
      "type": "function"
    },
    {
      "inputs": [],
      "name": "pubKey",
      "outputs": [
        {
          "internalType": "bytes",
          "name": "",
          "type": "bytes"
        }
      ],
      "stateMutability": "view",
      "type": "function"
    },
    {
      "inputs": [
        {
          "internalType": "uint256",
          "name": "",
          "type": "uint256"
        }
      ],
      "name": "rageQuitInfo",
      "outputs": [
        {
          "internalType": "uint256",
          "name": "price",
          "type": "uint256"
        },
        {
          "internalType": "uint256",
          "name": "time",
          "type": "uint256"
        },
        {
          "internalType": "bool",
          "name": "rageQuitting",
          "type": "bool"
        }
      ],
      "stateMutability": "view",
      "type": "function"
    },
    {
      "inputs": [],
      "name": "renounceOwnership",
      "outputs": [],
      "stateMutability": "nonpayable",
      "type": "function"
    },
    {
      "inputs": [
        {
          "internalType": "contract IFrensArt",
          "name": "newArtContract",
          "type": "address"
        }
      ],
      "name": "setArt",
      "outputs": [],
      "stateMutability": "nonpayable",
      "type": "function"
    },
    {
      "inputs": [
        {
          "internalType": "bytes",
          "name": "_pubKey",
          "type": "bytes"
        },
        {
          "internalType": "bytes",
          "name": "_withdrawal_credentials",
          "type": "bytes"
        },
        {
          "internalType": "bytes",
          "name": "_signature",
          "type": "bytes"
        },
        {
          "internalType": "bytes32",
          "name": "_deposit_data_root",
          "type": "bytes32"
        }
      ],
      "name": "setPubKey",
      "outputs": [],
      "stateMutability": "nonpayable",
      "type": "function"
    },
    {
      "inputs": [],
      "name": "signature",
      "outputs": [
        {
          "internalType": "bytes",
          "name": "",
          "type": "bytes"
        }
      ],
      "stateMutability": "view",
      "type": "function"
    },
    {
      "inputs": [],
      "name": "stake",
      "outputs": [],
      "stateMutability": "nonpayable",
      "type": "function"
    },
    {
      "inputs": [
        {
          "internalType": "bytes",
          "name": "_pubKey",
          "type": "bytes"
        },
        {
          "internalType": "bytes",
          "name": "_withdrawal_credentials",
          "type": "bytes"
        },
        {
          "internalType": "bytes",
          "name": "_signature",
          "type": "bytes"
        },
        {
          "internalType": "bytes32",
          "name": "_deposit_data_root",
          "type": "bytes32"
        }
      ],
      "name": "stake",
      "outputs": [],
      "stateMutability": "nonpayable",
      "type": "function"
    },
    {
      "inputs": [],
      "name": "totalClaims",
      "outputs": [
        {
          "internalType": "uint256",
          "name": "",
          "type": "uint256"
        }
      ],
      "stateMutability": "view",
      "type": "function"
    },
    {
      "inputs": [],
      "name": "totalDeposits",
      "outputs": [
        {
          "internalType": "uint256",
          "name": "",
          "type": "uint256"
        }
      ],
      "stateMutability": "view",
      "type": "function"
    },
    {
      "inputs": [],
      "name": "transferLocked",
      "outputs": [
        {
          "internalType": "bool",
          "name": "",
          "type": "bool"
        }
      ],
      "stateMutability": "view",
      "type": "function"
    },
    {
      "inputs": [
        {
          "internalType": "address",
          "name": "newOwner",
          "type": "address"
        }
      ],
      "name": "transferOwnership",
      "outputs": [],
      "stateMutability": "nonpayable",
      "type": "function"
    },
    {
      "inputs": [
        {
          "internalType": "address",
          "name": "tokenAddress",
          "type": "address"
        },
        {
          "internalType": "address",
          "name": "to",
          "type": "address"
        },
        {
          "internalType": "uint256",
          "name": "amount",
          "type": "uint256"
        }
      ],
      "name": "transferToken",
      "outputs": [],
      "stateMutability": "nonpayable",
      "type": "function"
    },
    {
      "inputs": [],
      "name": "validatorLocked",
      "outputs": [
        {
          "internalType": "bool",
          "name": "",
          "type": "bool"
        }
      ],
      "stateMutability": "view",
      "type": "function"
    },
    {
      "inputs": [],
      "name": "validatorSet",
      "outputs": [
        {
          "internalType": "bool",
          "name": "",
          "type": "bool"
        }
      ],
      "stateMutability": "view",
      "type": "function"
    },
    {
      "inputs": [
        {
          "internalType": "uint256",
          "name": "_id",
          "type": "uint256"
        },
        {
          "internalType": "uint256",
          "name": "_amount",
          "type": "uint256"
        }
      ],
      "name": "withdraw",
      "outputs": [],
      "stateMutability": "nonpayable",
      "type": "function"
    },
    {
      "inputs": [],
      "name": "withdrawal_credentials",
      "outputs": [
        {
          "internalType": "bytes",
          "name": "",
          "type": "bytes"
        }
      ],
      "stateMutability": "view",
      "type": "function"
    },
    {
      "stateMutability": "payable",
      "type": "receive"
    }
  ],
  "transactionHash": "0xbe474b74f4116cb0cf5e7984c3380c24f0df245ab2737340583b09688339b6dd",
  "args": [],
  "solcInputHash": "93f0ca858448e8c3afb9cbb83a414dd8",
  "bytecode": "0x6080806040523461001657612ff9908161001b8239f35b5f80fdfe608080604052600436101561001a575b50361561001857005b005b5f90813560e01c9081630c3f6acf14611f315750806312686aae14611f0b5780631865c57d14611eef5780632cf2cd4814611ec55780632daad61d14611e9b57806330dbf88714611e72578063379607f514611a715780633a4b66f114611a5857806341c6138314611a3a578063441a3e701461182a57806345b58fe414611776578063469048401461174d5780634888a7d114610d975780634b2b4e3614610ce657806351ff484714610cc2578063591167c714610c99578063678e300a14610c7a578063715018a614610c11578063735a531314610acf5780637d88209714610ab15780637fd6f15c14610a935780638620891c146108f2578063888e9cf8146108b95780638ae578fd146108905780638da5cb5b1461085b5780639426e22614610835578063ac2a5dfd14610811578063b45a3c0e146107e2578063cfb5a5f814610745578063e2d9ae3e14610727578063e3f05d8314610704578063e4a50276146106c1578063e6b1a3ae1461058b578063e920eec014610565578063e94ad65b1461053c578063f2fde38b1461050f578063f5537ede1461046a578063f9faa104146102185763fc03bad20361000f5734610215576020366003190112610215576040606091600435815260046020522080549060ff600260018301549201541690604051928352602083015215156040820152f35b80fd5b50806003193601126102155734156104305760ff815416600481101561041c5760016102449114612486565b6102646801bc16d674ec80000061025d600554346124cb565b11156124ec565b600f546040516318160ddd60e01b81526020916001600160a01b039083908390600490829085165afa9182156103c65784926103e9575b50818452600183523460408520556102b5346005546124cb565b600555600754680100000000000000008110156103d557906102de82600187940160075561231a565b81549060031b9085821b915f19901b1916179055828252600284526001604083205560ff60095460081c1660038552604083209060ff801983541691151516179055600f5416803b156103d15781906024604051809481936335313c2160e11b83523360048401525af180156103c65761038e575b507fd91527a40417d48f76ba016aaa9157e2ddaca6cb5b660432901659cb075058fc916060916040519134835233908301526040820152a180f35b91606091936103bd7fd91527a40417d48f76ba016aaa9157e2ddaca6cb5b660432901659cb075058fc94612246565b93915091610353565b6040513d86823e3d90fd5b5080fd5b634e487b7160e01b85526041600452602485fd5b9091508281813d8311610415575b61040181836122a6565b810103126104115751905f61029b565b8380fd5b503d6103f7565b634e487b7160e01b82526021600452602482fd5b60405162461bcd60e51b815260206004820152601260248201527136bab9ba103232b837b9b4ba1032ba3432b960711b6044820152606490fd5b503461021557606036600319011261021557610484611fb3565b6001600160a01b039060243582811691908290036104115760446020926104a9612363565b85604051958694859363a9059cbb60e01b8552600485015284356024850152165af18015610504576104d9575080f35b6104f99060203d81116104fd575b6104f181836122a6565b810190612440565b5080f35b503d6104e7565b6040513d84823e3d90fd5b50346102155760203660031901126102155761053961052c611fb3565b610534612363565b61239b565b80f35b50346102155780600319360112610215576012546040516001600160a01b039091168152602090f35b50346102155761053961057736611ffb565b95610586959195949294612363565b6127cb565b5034610215576020806003193601126103d1576004356001600160a01b03811691908290036106bd576105bc612363565b60405163516b636d60e11b8152600481018490528381602481865afa9081156103c657849161063f575b50511561060457506001600160601b0360a01b601054161760105580f35b6064906040519062461bcd60e51b8252600482015260146024820152731a5b9d985b1a5908185c9d0818dbdb9d1c9858dd60621b6044820152fd5b90503d8085833e61065081836122a6565b81019082818303126106b95780519067ffffffffffffffff82116106b5570181601f820112156106b9578051610685816122c8565b9261069360405194856122a6565b8184528482840101116106b5576106af91848085019101611f6d565b5f6105e6565b8580fd5b8480fd5b8280fd5b50346102155780600319360112610215576107006040516106ec816106e5816121c2565b03826122a6565b604051918291602083526020830190611f8e565b0390f35b5034610215578060031936011261021557602060ff600954166040519015158152f35b50346102155780600319360112610215576020600d54604051908152f35b503461021557602036600319011261021557600435602460018060a01b03602081600f541660405193848092631dc82a7560e01b82528760048301525afa9182156103c657916107a6916107ab9493602096926107b3575b5016301461254a565b612d9b565b604051908152f35b6107d4919250863d81116107db575b6107cc81836122a6565b810190612421565b905f61079d565b503d6107c2565b50346102155760203660031901126102155760ff60406020926004358152600384522054166040519015158152f35b50346102155780600319360112610215576107006040516106ec816106e58161209d565b5034610215578060031936011261021557602060ff60095460101c166040519015158152f35b50346102155780600319360112610215575f80516020612f84833981519152546040516001600160a01b039091168152602090f35b50346102155780600319360112610215576010546040516001600160a01b039091168152602090f35b503461021557602036600319011261021557600435906007548210156102155760206108e48361231a565b90546040519160031b1c8152f35b506020806003193601126103d1576004359060ff8354166004811015610a7f57600161091e9114612486565b6109376801bc16d674ec80000061025d600554346124cb565b600f54604051631dc82a7560e01b815260048101849052906001600160a01b039081168383602481845afa928315610a74576024938593610981928992610a5c575016301461254a565b60405192838092634f558e7960e01b82528760048301525afa9081156103c6578491610a3f575b5015610a0757816040917f2e4d11c40e9ddf229c2807835f88a91899498f9e8531757e8489a824b1bdc119938552600181528285206109e83482546124cb565b90556109f6346005546124cb565b60055582519182523490820152a180f35b6064906040519062461bcd60e51b8252600482015260116024820152701a5908191bd95cc81b9bdd08195e1a5cdd607a1b6044820152fd5b610a569150823d84116104fd576104f181836122a6565b5f6109a8565b6107d4919250853d87116107db576107cc81836122a6565b6040513d88823e3d90fd5b634e487b7160e01b84526021600452602484fd5b50346102155780600319360112610215576020600854604051908152f35b50346102155780600319360112610215576020600554604051908152f35b5034610215576020806003193601126103d1578160043567ffffffffffffffff81116103d157366023820112156103d157610b149036906024816004013591016122e4565b610b1c612363565b60018060a01b03601154169083604051818101907865787465726e616c2e636f6e74726163742e6164647265737360381b8252695353564e6574776f726b60b01b603982015260238152610b6f8161228a565b5190206024604051809581936321f8a72160e01b835260048301525afa8015610c065783928391610be9575b50828583519301915af1610bad612d59565b5015610bb7575080f35b6064906040519062461bcd60e51b82526004820152600b60248201526a10d85b1b0819985a5b195960aa1b6044820152fd5b610c009150853d87116107db576107cc81836122a6565b5f610b9b565b6040513d85823e3d90fd5b5034610215578060031936011261021557610c2a612363565b5f80516020612f8483398151915280546001600160a01b0319811690915581906001600160a01b03167f8be0079c531659141344cd1fd0a4f28419497f9722a3daafe3b4186f6b6457e08280a380f35b50346102155760203660031901126102155760206107ab600435612e0c565b5034610215578060031936011261021557600f546040516001600160a01b039091168152602090f35b50346102155780600319360112610215576107006040516106ec816106e58161213e565b503461021557610cf536611ffb565b959493610d03939193612363565b60095460101c60ff1615610d845750505050610d21925036916122e4565b60208151910120604051610d38816106e58161209d565b6020815191012003610d4d575b6105396125d0565b60405162461bcd60e51b815260206004820152600f60248201526e0e0eac496caf240dad2e6dac2e8c6d608b1b6044820152606490fd5b90919293610d9296956127cb565b610d45565b503461021557606036600319011261021557610db1611fb3565b6024358015158091036106bd57604435916001600160a01b0383168303610411575f80516020612fa4833981519152549167ffffffffffffffff83168015908161173d575b6001149081611733575b15908161172a575b5061171857600167ffffffffffffffff198416175f80516020612fa48339815191525560ff8360401c16156116ec575b6001600160a01b0382161561169557610e4f612458565b610e57612458565b610e608261239b565b6001600160a01b0384161561163c57601180546001600160a01b0319166001600160a01b0386161790556040516f636f6e74726163742e6164647265737360801b6020820181815267119c995b9cd05c9d60c21b6030840152601883529091610ec88161226e565b5190206040516321f8a72160e01b815260048101919091526020816024816001600160a01b038a165afa90811561152557879161161d575b506001600160a01b031680156115c8576001600160601b0360a01b6010541617601055604051602081019182526d4672656e73506f6f6c536861726560901b6030820152601e8152610f518161226e565b5190206040516321f8a72160e01b815260048101919091526020816024816001600160a01b0389165afa908115610a745786916115a9575b5060018060a01b03166001600160601b0360a01b600f541617600f5560405193602085017865787465726e616c2e636f6e74726163742e6164647265737360381b958682526e11195c1bdcda5d10dbdb9d1c9858dd608a1b603982015260288152610ff38161228a565b5190206040516321f8a72160e01b815260048101919091526020816024816001600160a01b0386165afa90811561152557879161158a575b506001600160a01b03168015611530576001600160601b0360a01b60125416176012556040516020810190731c1c9bdd1bd8dbdb0b9999594b9c195c98d95b9d60621b82526014815261107d8161226e565b51902060405163bd02d0f560e01b815260048101919091526020816024816001600160a01b0386165afa80156115255787906114ee575b600a9150806008551161149f57602060405181810190751c1c9bdd1bd8dbdb0b9999594b9c9958da5c1a595b9d60521b8252601681526110f38161226e565b5190206040516321f8a72160e01b8152600481019190915291829060249082906001600160a01b03165afa908115610a74578691611480575b50600e80546001600160a01b0319166001600160a01b03929092169182179055156114295760ff199060ff826009541691168091176009555f1461141c5784541684555b60018060a01b036011541660405160208101908582526729a9ab2a37b5b2b760c11b6039820152602181526111a48161228a565b519020604051906321f8a72160e01b82526004820152602081602481855afa908115610a745786916113fd575b506001600160a01b03169384156113a157602090604051828101918252695353564e6574776f726b60b01b60398201526023815261120e8161228a565b5190206024604051809481936321f8a72160e01b835260048301525afa908115611396578591611377575b506001600160a01b0316801561130c5784936044602092604051968793849263095ea7b360e01b845260048401525f1960248401525af19081156103c65760ff93611289926112ed575b506123cd565b60401c16156112955780f35b68ff0000000000000000195f80516020612fa483398151915254165f80516020612fa4833981519152557fc7f505b2f371ae2175ee4913f4499e1f2633a7b5936321eed1cdaeb6115181d2602060405160018152a180f35b6113059060203d6020116104fd576104f181836122a6565b505f611283565b60405162461bcd60e51b815260206004820152603860248201527f4652454e5320636f6e7472616374206572726f72206e6f20535356206e65747760448201527f6f726b20636f6e747261637420616464726573732073657400000000000000006064820152608490fd5b611390915060203d6020116107db576107cc81836122a6565b5f611239565b6040513d87823e3d90fd5b60405162461bcd60e51b815260206004820152602e60248201527f4652454e5320636f6e7472616374206572726f72206e6f2053535620746f6b6560448201526d1b8818dbdb9d1c9858dd081cd95d60921b6064820152608490fd5b611416915060203d6020116107db576107cc81836122a6565b5f6111d1565b8454166001178455611170565b60405162461bcd60e51b815260206004820152602960248201527f4652454e5320636f6e7472616374206572726f72206e6f2066656520726563696044820152681c1a595b9d081cd95d60ba1b6064820152608490fd5b611499915060203d6020116107db576107cc81836122a6565b5f61112c565b60405162461bcd60e51b815260206004820152602160248201527f4652454e5320636f6e7472616374206572726f722066656520746f6f206869676044820152600d60fb1b6064820152608490fd5b506020813d60201161151d575b81611508602093836122a6565b8101031261151957600a90516110b4565b8680fd5b3d91506114fb565b6040513d89823e3d90fd5b60405162461bcd60e51b815260206004820152602c60248201527f4652454e5320636f6e7472616374206572726f72206e6f204465706f7369742060448201526b18dbdb9d1c9858dd081cd95d60a21b6064820152608490fd5b6115a3915060203d6020116107db576107cc81836122a6565b5f61102b565b6115c2915060203d6020116107db576107cc81836122a6565b5f610f89565b60405162461bcd60e51b815260206004820152602760248201527f4652454e5320636f6e7472616374206572726f72206e6f206172742061646472604482015266195cdcc81cd95d60ca1b6064820152608490fd5b611636915060203d6020116107db576107cc81836122a6565b5f610f00565b60405162461bcd60e51b815260206004820152602b60248201527f4652454e5320636f6e7472616374206572726f72206e6f2073746f726167652060448201526a1859191c995cdcc81cd95d60aa1b6064820152608490fd5b60405162461bcd60e51b815260206004820152602960248201527f4652454e5320636f6e7472616374206572726f72206e6f206f776e6572206164604482015268191c995cdcc81cd95d60ba1b6064820152608490fd5b68ffffffffffffffffff19831668010000000000000001175f80516020612fa483398151915255610e38565b60405163f92ee8a960e01b8152600490fd5b9050155f610e08565b303b159150610e00565b604085901c60ff16159150610df6565b5034610215578060031936011261021557600e546040516001600160a01b039091168152602090f35b503461021557806003193601126102155760405180916007549081835260208093018092600783527fa66cc928b5edb82af9bd49922954155ab7b0942694bea4ce44661d9a8736c68890835b81811061181657505050846117d89103856122a6565b60405193838594850191818652518092526040850193925b8281106117ff57505050500390f35b8351855286955093810193928101926001016117f0565b8254845292860192600192830192016117c2565b503461021557604036600319011261021557600435602490813560ff8454166004811015611a2757600161185e9114612486565b600f546040516331a9108f60e11b808252600482018590526020959290916001600160a01b0391879082908690829086165afa8015611a1c57829189916119ff575b501633036119cb578487526001865283604088205410611990578691869186845260018352604084206118d4878254612d4c565b90556118e286600554612d4c565b600555600f5416936040518095819382528860048301525afa948515611983578180857f71ef96c43343734b1d843bb85d52ef329f5e9143e4d35827771e3b0dd90c5f84986119469683958492611966575b50505af1611940612d59565b50612790565b604080519283526020830191909152339082015280606081015b0390a180f35b61197c9250803d106107db576107cc81836122a6565b5f80611934565b50604051903d90823e3d90fd5b60405162461bcd60e51b815260048101879052601481850152731b9bdd08195b9bdd59da0819195c1bdcda5d195960621b6044820152606490fd5b60405162461bcd60e51b815260048101879052600d818501526c3737ba103a34329037bbb732b960991b6044820152606490fd5b611a169150883d8a116107db576107cc81836122a6565b5f6118a0565b6040513d8a823e3d90fd5b634e487b7160e01b855260216004528385fd5b50346102155780600319360112610215576020600654604051908152f35b5034610215578060031936011261021557610d45612363565b5034610215576020806003193601126103d157600f54604051631dc82a7560e01b815260048035908201819052916024916001600160a01b0391859082908590829086165afa8015610a7457611ad2918791611e55575b508216301461254a565b60ff8554166004811015611e425760018114611dfe576064471115611dac578593929190600314611da357806011541685604051818101906f636f6e74726163742e6164647265737360801b82526a4672656e734f7261636c6560a81b6030820152601b8152611b418161226e565b51902084604051809481936321f8a72160e01b835260048301525afa80156113965783839188938891611d86575b5060405163404df7b160e11b81523060048201529788938492165af1938415610a74578694611d67575b508380611d3d575b611d2d575b611baf83612d9b565b938387526002865260408720611bc68682546124cb565b9055611bd4856006546124cb565b600655600854908115159081611d24575b50611cb5575b508481600f5416604051938480926331a9108f60e11b82528760048301525afa868115611ca95785611960947fd79254e5daba749baa8ba954e77bbbb18efef113a8070d00df9a188d81932426988394611c80575b5050818080928596611c5796165af1611940612d59565b6040805193845260208401949094526001600160a01b0316928201929092529081906060820190565b611c5794508392611ca08493838594903d106107db576107cc81836122a6565b95509250611c40565b604051903d90823e3d90fd5b611cc485606492969396612d88565b049060018211611ce0575b90611cd991612d4c565b925f611beb565b600e545f198301908616838211611d115788808080611cd9979695611d09955af1611940612d59565b909150611ccf565b634e487b7160e01b895260116004528489fd5b9050155f611be5565b855460ff19166003178655611ba6565b5060ff8654166004811015611d5457600214611ba1565b634e487b7160e01b875260216004528287fd5b611d7f919450853d87116104fd576104f181836122a6565b925f611b99565b611d9d9150843d86116107db576107cc81836122a6565b5f611b6f565b60019350611ba6565b60405162461bcd60e51b8152600481018690526025818501527f6d7573742062652067726561746572207468616e203130302077656920746f20604482015264636c61696d60d81b6064820152608490fd5b60405162461bcd60e51b815260048101869052601c818501527f757365207769746864726177207768656e206e6f74207374616b6564000000006044820152606490fd5b634e487b7160e01b865260216004528286fd5b611e6c9150863d88116107db576107cc81836122a6565b5f611ac8565b50346102155780600319360112610215576011546040516001600160a01b039091168152602090f35b50346102155760203660031901126102155760406020916004358152600183522054604051908152f35b50346102155760203660031901126102155760406020916004358152600283522054604051908152f35b50346102155780600319360112610215576107006106ec612e81565b5034610215578060031936011261021557602060ff60095460081c166040519015158152f35b9050346103d157816003193601126103d15760ff8254166004811015611f5957602092508152f35b634e487b7160e01b83526021600452602483fd5b5f5b838110611f7e5750505f910152565b8181015183820152602001611f6f565b90602091611fa781518092818552858086019101611f6d565b601f01601f1916010190565b600435906001600160a01b0382168203611fc957565b5f80fd5b9181601f84011215611fc95782359167ffffffffffffffff8311611fc95760208381860195010111611fc957565b906080600319830112611fc95767ffffffffffffffff600435818111611fc9578361202891600401611fcd565b93909392602435838111611fc9578261204391600401611fcd565b93909392604435918211611fc95761205d91600401611fcd565b909160643590565b90600182811c92168015612093575b602083101461207f57565b634e487b7160e01b5f52602260045260245ffd5b91607f1691612074565b600a545f92916120ac82612065565b8082529160019081811690811561212157506001146120ca57505050565b91929350600a5f527fc65a7bb8d6351c1cf70c95a316cc6a92839c986682d98bc35f958f4883f9d2a8915f925b84841061210957505060209250010190565b805460208585018101919091529093019281016120f7565b915050602093945060ff929192191683830152151560051b010190565b600c545f929161214d82612065565b80825291600190818116908115612121575060011461216b57505050565b91929350600c5f527fdf6966c971051c3d54ec59162606531493a51404a002842f56009d7e5cf4a8c7915f925b8484106121aa57505060209250010190565b80546020858501810191909152909301928101612198565b600b545f92916121d182612065565b8082529160019081811690811561212157506001146121ef57505050565b91929350600b5f527f0175b7a638427703f0dbe7bb9bbf987a2551717b34e79f33b5b1008d1fa01db9915f925b84841061222e57505060209250010190565b8054602085850181019190915290930192810161221c565b67ffffffffffffffff811161225a57604052565b634e487b7160e01b5f52604160045260245ffd5b6040810190811067ffffffffffffffff82111761225a57604052565b6060810190811067ffffffffffffffff82111761225a57604052565b90601f8019910116810190811067ffffffffffffffff82111761225a57604052565b67ffffffffffffffff811161225a57601f01601f191660200190565b9291926122f0826122c8565b916122fe60405193846122a6565b829481845281830111611fc9578281602093845f960137010152565b60075481101561234f5760075f527fa66cc928b5edb82af9bd49922954155ab7b0942694bea4ce44661d9a8736c68801905f90565b634e487b7160e01b5f52603260045260245ffd5b5f80516020612f84833981519152546001600160a01b0316330361238357565b60405163118cdaa760e01b8152336004820152602490fd5b6001600160a01b038116156123b5576123b3906123cd565b565b604051631e4fbdf760e01b81525f6004820152602490fd5b5f80516020612f8483398151915280546001600160a01b039283166001600160a01b0319821681179092559091167f8be0079c531659141344cd1fd0a4f28419497f9722a3daafe3b4186f6b6457e05f80a3565b90816020910312611fc957516001600160a01b0381168103611fc95790565b90816020910312611fc957518015158103611fc95790565b60ff5f80516020612fa48339815191525460401c161561247457565b604051631afcd79f60e31b8152600490fd5b1561248d57565b60405162461bcd60e51b81526020600482015260166024820152756e6f7420616363657074696e67206465706f7369747360501b6044820152606490fd5b919082018092116124d857565b634e487b7160e01b5f52601160045260245ffd5b156124f357565b60405162461bcd60e51b815260206004820152602960248201527f746f74616c206465706f736974732063616e6e6f74206265206d6f72652074686044820152680c2dc406664408ae8d60bb1b6064820152608490fd5b1561255157565b60405162461bcd60e51b815260206004820152601960248201527f77726f6e67207374616b696e6720706f6f6c20666f72206964000000000000006044820152606490fd5b1561259d57565b60405162461bcd60e51b815260206004820152600b60248201526a77726f6e6720737461746560a81b6044820152606490fd5b6801bc16d674ec80000080471061275a57806005540361271f575f90815460ff81166004811015610a7f5760016126079114612596565b60ff60095460101c16156126e65760ff19166002178255601254600d546001600160a01b0393918416803b156106bd5790829160405180958180946304512a2360e31b8252608060048301526126876126626084840161209d565b61267860031991828682030160248701526121c2565b9084820301604485015261213e565b90606483015203925af1908115611ca95750916040917f72b356fd889b9abd3530accd2c9f4aecbce67d70757181f9f862ac91464ce192936126d7575b50601254168151908152336020820152a1565b6126e090612246565b5f6126c4565b60405162461bcd60e51b81526020600482015260116024820152701d985b1a59185d1bdc881b9bdd081cd95d607a1b6044820152606490fd5b60405162461bcd60e51b81526020600482015260136024820152726e6f7420656e6f756768206465706f7369747360681b6044820152606490fd5b60405162461bcd60e51b815260206004820152600e60248201526d0dcdee840cadcdeeaced040cae8d60931b6044820152606490fd5b1561279757565b634e487b7160e01b5f52600160045260245ffd5b908060209392818452848401375f828201840152601f01601f1916010190565b949190939695926040519160209283810190600160f81b82525f918260218301523060601b602c8301528582526128018261226e565b61280c3686866122e4565b8681519101209151902003612d075760095460ff8116612ccd575b5060ff815416906004821015612cb9576128446001809314612596565b67ffffffffffffffff90818911612aaa57612860600a54612065565b9189601f93848111612c55575b5082848211600114612bca578391612bbf575b505f1960038c901b1c19168a851b17600a555b808611612bab576128a5600b54612065565b838111612b49575b508582848211600114612ac9578391612abe575b505f19600388901b1c191686851b17600b555b8711612aaa576128e5600c54612065565b828111612a48575b508091871160011461299f579286807ffd84b86d2e47014cef6e8fc5310d3968b38c5998dd6a57a8b68b350628b8f9f89c9d979461298999979461297b9793612994575b501b905f198760031b1c191617600c555b87600d556201000062ff000019600954161760095561296e6040519a8b9a60808c5260808c01916127ab565b92898403908a01526127ab565b9185830360408701526127ab565b9060608301520390a1565b89013592505f612931565b90601f198716600c83527fdf6966c971051c3d54ec59162606531493a51404a002842f56009d7e5cf4a8c7925b818110612a3357509287959261297b9592612989997ffd84b86d2e47014cef6e8fc5310d3968b38c5998dd6a57a8b68b350628b8f9f89e9f999610612a1a575b505085811b01600c55612942565b8801355f19600389901b60f8161c191690555f80612a0c565b8d8301358455928401929187019187016129cc565b600c82527fdf6966c971051c3d54ec59162606531493a51404a002842f56009d7e5cf4a8c783808a0160051c820192898b10612aa1575b0160051c019084905b828110612a965750506128ed565b838155018490612a88565b92508192612a7f565b634e487b7160e01b81526041600452602490fd5b90508501355f6128c1565b600b84527f0175b7a638427703f0dbe7bb9bbf987a2551717b34e79f33b5b1008d1fa01db9915087601f198116855b8b89838310612b325750505010612b19575b50508386811b01600b556128d4565b8601355f19600389901b60f8161c191690555f80612b0a565b858c0135875590950194938401938b935001612af8565b600b83527f0175b7a638427703f0dbe7bb9bbf987a2551717b34e79f33b5b1008d1fa01db98480890160051c8201928a8a10612ba2575b0160051c019085905b828110612b975750506128ad565b848155018590612b89565b92508192612b80565b634e487b7160e01b82526041600452602482fd5b90508b01355f612880565b8c91601f198116600a86527fc65a7bb8d6351c1cf70c95a316cc6a92839c986682d98bc35f958f4883f9d2a8938b8988925b848410612c35575050505010612c1c575b5050838a811b01600a55612893565b8c01355f1960038d901b60f8161c191690555f80612c0d565b8294955095809791929396013581550194019201908d918f898d91612bfc565b600a8452847fc65a7bb8d6351c1cf70c95a316cc6a92839c986682d98bc35f958f4883f9d2a8918a82850160051c84019410612cb0575b0160051c019085905b828110612ca557508b915061286d565b848155018590612c95565b92508192612c8c565b634e487b7160e01b81526021600452602490fd5b81549060ff82166004811015610a7f5760ff60019392612cf0612cfa9315612596565b60101c1615612790565b60ff19161781555f612827565b60405162461bcd60e51b815260048101859052601e60248201527f7769746864726177616c2063726564656e7469616c206d69736d6174636800006044820152606490fd5b919082039182116124d857565b3d15612d83573d90612d6a826122c8565b91612d7860405193846122a6565b82523d5f602084013e565b606090565b818102929181159184041417156124d857565b4715612e07575f908152600160205260408120546002602052612dd0604083205491612dca47600654906124cb565b90612d88565b600554908115612df357048015612dee57612deb9250612d4c565b90565b505090565b634e487b7160e01b84526012600452602484fd5b505f90565b60ff5f5416906004821015612e6d5760018203612e295750505f90565b612e3290612d9b565b90600854908115159081612e61575b50612e4a575090565b906064612e5a82612deb94612d88565b0490612d4c565b6003915014155f612e41565b634e487b7160e01b5f52602160045260245ffd5b60ff5f54166004811015612e6d578015612f495760028114612f265760018114612ef757600314612ed557604051612eb88161226e565b600d81526c7374617465206661696c75726560981b602082015290565b604051612ee18161226e565b6006815265195e1a5d195960d21b602082015290565b50604051612f048161226e565b6012815271616363657074696e67206465706f7369747360701b602082015290565b50604051612f338161226e565b60068152651cdd185ad95960d21b602082015290565b50604051612f568161226e565b601781527f6177616974696e672076616c696461746f7220696e666f00000000000000000060208201529056fe9016d09d72d40fdae2fd8ceac6b6234c7706214fd39c1cd1e609a0528c199300f0c57e16840df040f15088dc2f81fe391c3923bec73e23a9662efc9c229c6a00a26469706673582212203619d6327a8a886fd558c92d5a056eb0fdfb9546394bee7a760ed5695aaca10c64736f6c63430008140033",
  "devdoc": {
    "errors": {
      "InvalidInitialization()": [
        {
          "details": "The contract is already initialized."
        }
      ],
      "NotInitializing()": [
        {
          "details": "The contract is not initializing."
        }
      ],
      "OwnableInvalidOwner(address)": [
        {
          "details": "The owner is not a valid owner account. (eg. `address(0)`)"
        }
      ],
      "OwnableUnauthorizedAccount(address)": [
        {
          "details": "The caller account is not authorized to perform an operation."
        }
      ]
    },
    "events": {
      "Initialized(uint64)": {
        "details": "Triggered when the contract has been initialized or reinitialized."
      }
    },
    "kind": "dev",
    "methods": {
      "addToDeposit(uint256)": {
        "details": "recieves funds and increases deposit for a FrensPoolShare ID"
      },
      "claim(uint256)": {
        "details": "calculates the rewards due to `_id` and sends them to the owner of `_id`"
      },
      "depositToPool()": {
        "details": "recieves funds and returns FrenspoolShare NFT"
      },
      "getDistributableShare(uint256)": {
        "details": "this is used for the traits in the NFT",
        "returns": {
          "_0": "the share of the validator rewards climable by `_id` minus fees. Returns 0 if pool is still accepting deposits"
        }
      },
      "getShare(uint256)": {
        "returns": {
          "_0": "the share of the validator rewards climable by `_id`"
        }
      },
      "getState()": {
        "returns": {
          "_0": "pool state"
        }
      },
      "initialize(address,bool,address)": {
        "details": "when the pool is initalised by the factory, the owner, art contract,  storage contract, and if the validator is locked are all set.  The pool state is set according to whether or not the validator is locked."
      },
      "renounceOwnership()": {
        "details": "Leaves the contract without owner. It will not be possible to call `onlyOwner` functions. Can only be called by the current owner. NOTE: Renouncing ownership will leave the contract without an owner, thereby disabling any functionality that is only available to the owner."
      },
      "setArt(address)": {
        "details": "allows pool owner to change the art for the NFTs in the pool"
      },
      "setPubKey(bytes,bytes,bytes,bytes32)": {
        "details": "sets the validator info required when depositing to the deposit contract"
      },
      "stake()": {
        "details": "stakes 32 ETH from this pool to the deposit contract. validator info must already be entered"
      },
      "stake(bytes,bytes,bytes,bytes32)": {
        "details": "stakes 32 ETH from this pool to the deposit contract, accepts validator info"
      },
      "transferOwnership(address)": {
        "details": "Transfers ownership of the contract to a new account (`newOwner`). Can only be called by the current owner."
      },
      "withdraw(uint256,uint256)": {
        "details": "allows user to withdraw funds if they have not yet been deposited to the deposit contract with the Stake method"
      }
    },
    "version": 1
  },
  "userdoc": {
    "kind": "user",
    "methods": {
      "addToDeposit(uint256)": {
        "notice": "allows a user to add funds to an existing NFT ID"
      },
      "claim(uint256)": {
        "notice": "allows user to claim their portion of the rewards"
      },
      "depositToPool()": {
        "notice": "This allows a user to deposit funds to the pool, and recieve an NFT representing their share"
      },
      "withdraw(uint256,uint256)": {
        "notice": "To withdraw funds previously deposited - ONLY works before the funds are staked. Use Claim to get rewards."
      }
    },
    "version": 1
  },
  "storageLayout": {
    "storage": [
      {
        "astId": 5734,
        "contract": "contracts/StakingPool.sol:StakingPool",
        "label": "currentState",
        "offset": 0,
        "slot": "0",
        "type": "t_enum(PoolState)5731"
      },
      {
        "astId": 5745,
        "contract": "contracts/StakingPool.sol:StakingPool",
        "label": "depositForId",
        "offset": 0,
        "slot": "1",
        "type": "t_mapping(t_uint256,t_uint256)"
      },
      {
        "astId": 5749,
        "contract": "contracts/StakingPool.sol:StakingPool",
        "label": "frenPastClaim",
        "offset": 0,
        "slot": "2",
        "type": "t_mapping(t_uint256,t_uint256)"
      },
      {
        "astId": 5753,
        "contract": "contracts/StakingPool.sol:StakingPool",
        "label": "locked",
        "offset": 0,
        "slot": "3",
        "type": "t_mapping(t_uint256,t_bool)"
      },
      {
        "astId": 5758,
        "contract": "contracts/StakingPool.sol:StakingPool",
        "label": "rageQuitInfo",
        "offset": 0,
        "slot": "4",
        "type": "t_mapping(t_uint256,t_struct(RageQuit)5741_storage)"
      },
      {
        "astId": 5760,
        "contract": "contracts/StakingPool.sol:StakingPool",
        "label": "totalDeposits",
        "offset": 0,
        "slot": "5",
        "type": "t_uint256"
      },
      {
        "astId": 5762,
        "contract": "contracts/StakingPool.sol:StakingPool",
        "label": "totalClaims",
        "offset": 0,
        "slot": "6",
        "type": "t_uint256"
      },
      {
        "astId": 5765,
        "contract": "contracts/StakingPool.sol:StakingPool",
        "label": "idsInPool",
        "offset": 0,
        "slot": "7",
        "type": "t_array(t_uint256)dyn_storage"
      },
      {
        "astId": 5767,
        "contract": "contracts/StakingPool.sol:StakingPool",
        "label": "feePercent",
        "offset": 0,
        "slot": "8",
        "type": "t_uint256"
      },
      {
        "astId": 5769,
        "contract": "contracts/StakingPool.sol:StakingPool",
        "label": "validatorLocked",
        "offset": 0,
        "slot": "9",
        "type": "t_bool"
      },
      {
        "astId": 5771,
        "contract": "contracts/StakingPool.sol:StakingPool",
        "label": "transferLocked",
        "offset": 1,
        "slot": "9",
        "type": "t_bool"
      },
      {
        "astId": 5773,
        "contract": "contracts/StakingPool.sol:StakingPool",
        "label": "validatorSet",
        "offset": 2,
        "slot": "9",
        "type": "t_bool"
      },
      {
        "astId": 5775,
        "contract": "contracts/StakingPool.sol:StakingPool",
        "label": "pubKey",
        "offset": 0,
        "slot": "10",
        "type": "t_bytes_storage"
      },
      {
        "astId": 5777,
        "contract": "contracts/StakingPool.sol:StakingPool",
        "label": "withdrawal_credentials",
        "offset": 0,
        "slot": "11",
        "type": "t_bytes_storage"
      },
      {
        "astId": 5779,
        "contract": "contracts/StakingPool.sol:StakingPool",
        "label": "signature",
        "offset": 0,
        "slot": "12",
        "type": "t_bytes_storage"
      },
      {
        "astId": 5781,
        "contract": "contracts/StakingPool.sol:StakingPool",
        "label": "deposit_data_root",
        "offset": 0,
        "slot": "13",
        "type": "t_bytes32"
      },
      {
        "astId": 5783,
        "contract": "contracts/StakingPool.sol:StakingPool",
        "label": "feeRecipient",
        "offset": 0,
        "slot": "14",
        "type": "t_address"
      },
      {
        "astId": 5786,
        "contract": "contracts/StakingPool.sol:StakingPool",
        "label": "frensPoolShare",
        "offset": 0,
        "slot": "15",
        "type": "t_contract(IFrensPoolShare)7325"
      },
      {
        "astId": 5789,
        "contract": "contracts/StakingPool.sol:StakingPool",
        "label": "artForPool",
        "offset": 0,
        "slot": "16",
        "type": "t_contract(IFrensArt)7216"
      },
      {
        "astId": 5792,
        "contract": "contracts/StakingPool.sol:StakingPool",
        "label": "frensStorage",
        "offset": 0,
        "slot": "17",
        "type": "t_contract(IFrensStorage)7425"
      },
      {
        "astId": 5795,
        "contract": "contracts/StakingPool.sol:StakingPool",
        "label": "depositContract",
        "offset": 0,
        "slot": "18",
        "type": "t_contract(IDepositContract)7069"
      }
    ],
    "types": {
      "t_address": {
        "encoding": "inplace",
        "label": "address",
        "numberOfBytes": "20"
      },
      "t_array(t_uint256)dyn_storage": {
        "base": "t_uint256",
        "encoding": "dynamic_array",
        "label": "uint256[]",
        "numberOfBytes": "32"
      },
      "t_bool": {
        "encoding": "inplace",
        "label": "bool",
        "numberOfBytes": "1"
      },
      "t_bytes32": {
        "encoding": "inplace",
        "label": "bytes32",
        "numberOfBytes": "32"
      },
      "t_bytes_storage": {
        "encoding": "bytes",
        "label": "bytes",
        "numberOfBytes": "32"
      },
      "t_contract(IDepositContract)7069": {
        "encoding": "inplace",
        "label": "contract IDepositContract",
        "numberOfBytes": "20"
      },
      "t_contract(IFrensArt)7216": {
        "encoding": "inplace",
        "label": "contract IFrensArt",
        "numberOfBytes": "20"
      },
      "t_contract(IFrensPoolShare)7325": {
        "encoding": "inplace",
        "label": "contract IFrensPoolShare",
        "numberOfBytes": "20"
      },
      "t_contract(IFrensStorage)7425": {
        "encoding": "inplace",
        "label": "contract IFrensStorage",
        "numberOfBytes": "20"
      },
      "t_enum(PoolState)5731": {
        "encoding": "inplace",
        "label": "enum StakingPool.PoolState",
        "numberOfBytes": "1"
      },
      "t_mapping(t_uint256,t_bool)": {
        "encoding": "mapping",
        "key": "t_uint256",
        "label": "mapping(uint256 => bool)",
        "numberOfBytes": "32",
        "value": "t_bool"
      },
      "t_mapping(t_uint256,t_struct(RageQuit)5741_storage)": {
        "encoding": "mapping",
        "key": "t_uint256",
        "label": "mapping(uint256 => struct StakingPool.RageQuit)",
        "numberOfBytes": "32",
        "value": "t_struct(RageQuit)5741_storage"
      },
      "t_mapping(t_uint256,t_uint256)": {
        "encoding": "mapping",
        "key": "t_uint256",
        "label": "mapping(uint256 => uint256)",
        "numberOfBytes": "32",
        "value": "t_uint256"
      },
      "t_struct(RageQuit)5741_storage": {
        "encoding": "inplace",
        "label": "struct StakingPool.RageQuit",
        "members": [
          {
            "astId": 5736,
            "contract": "contracts/StakingPool.sol:StakingPool",
            "label": "price",
            "offset": 0,
            "slot": "0",
            "type": "t_uint256"
          },
          {
            "astId": 5738,
            "contract": "contracts/StakingPool.sol:StakingPool",
            "label": "time",
            "offset": 0,
            "slot": "1",
            "type": "t_uint256"
          },
          {
            "astId": 5740,
            "contract": "contracts/StakingPool.sol:StakingPool",
            "label": "rageQuitting",
            "offset": 0,
            "slot": "2",
            "type": "t_bool"
          }
        ],
        "numberOfBytes": "96"
      },
      "t_uint256": {
        "encoding": "inplace",
        "label": "uint256",
        "numberOfBytes": "32"
      }
    }
  }
}