{
  "address": "0x7c0892A2cAf1B32F53B61E918496dF5266e3d50b",
  "abi": [
    {
      "inputs": [],
      "name": "InvalidInitialization",
      "type": "error"
    },
    {
      "inputs": [],
      "name": "NotInitializing",
      "type": "error"
    },
    {
      "inputs": [
        {
          "internalType": "address",
          "name": "owner",
          "type": "address"
        }
      ],
      "name": "OwnableInvalidOwner",
      "type": "error"
    },
    {
      "inputs": [
        {
          "internalType": "address",
          "name": "account",
          "type": "address"
        }
      ],
      "name": "OwnableUnauthorizedAccount",
      "type": "error"
    },
    {
      "anonymous": false,
      "inputs": [
        {
          "indexed": false,
          "internalType": "uint256",
          "name": "id",
          "type": "uint256"
        },
        {
          "indexed": false,
          "internalType": "uint256",
          "name": "ammount",
          "type": "uint256"
        }
      ],
      "name": "AddToDeposit",
      "type": "event"
    },
    {
      "anonymous": false,
      "inputs": [
        {
          "indexed": false,
          "internalType": "uint256",
          "name": "id",
          "type": "uint256"
        },
        {
          "indexed": false,
          "internalType": "uint256",
          "name": "amount",
          "type": "uint256"
        },
        {
          "indexed": false,
          "internalType": "address",
          "name": "recipient",
          "type": "address"
        }
      ],
      "name": "Claim",
      "type": "event"
    },
    {
      "anonymous": false,
      "inputs": [
        {
          "indexed": false,
          "internalType": "uint256",
          "name": "amount",
          "type": "uint256"
        },
        {
          "indexed": false,
          "internalType": "address",
          "name": "depositer",
          "type": "address"
        },
        {
          "indexed": false,
          "internalType": "uint256",
          "name": "id",
          "type": "uint256"
        }
      ],
      "name": "DepositToPool",
      "type": "event"
    },
    {
      "anonymous": false,
      "inputs": [
        {
          "indexed": false,
          "internalType": "uint64",
          "name": "version",
          "type": "uint64"
        }
      ],
      "name": "Initialized",
      "type": "event"
    },
    {
      "anonymous": false,
      "inputs": [
        {
          "indexed": true,
          "internalType": "address",
          "name": "previousOwner",
          "type": "address"
        },
        {
          "indexed": true,
          "internalType": "address",
          "name": "newOwner",
          "type": "address"
        }
      ],
      "name": "OwnershipTransferred",
      "type": "event"
    },
    {
      "anonymous": false,
      "inputs": [
        {
          "indexed": false,
          "internalType": "address",
          "name": "newArt",
          "type": "address"
        },
        {
          "indexed": false,
          "internalType": "address",
          "name": "owner",
          "type": "address"
        }
      ],
      "name": "SetArt",
      "type": "event"
    },
    {
      "anonymous": false,
      "inputs": [
        {
          "indexed": false,
          "internalType": "bytes",
          "name": "_pubKey",
          "type": "bytes"
        },
        {
          "indexed": false,
          "internalType": "bytes",
          "name": "_withdrawal_credentials",
          "type": "bytes"
        },
        {
          "indexed": false,
          "internalType": "bytes",
          "name": "_signature",
          "type": "bytes"
        },
        {
          "indexed": false,
          "internalType": "bytes32",
          "name": "_deposit_data_root",
          "type": "bytes32"
        }
      ],
      "name": "SetPubKey",
      "type": "event"
    },
    {
      "anonymous": false,
      "inputs": [
        {
          "indexed": false,
          "internalType": "address",
          "name": "depositContractAddress",
          "type": "address"
        },
        {
          "indexed": false,
          "internalType": "address",
          "name": "caller",
          "type": "address"
        }
      ],
      "name": "Stake",
      "type": "event"
    },
    {
      "anonymous": false,
      "inputs": [
        {
          "indexed": false,
          "internalType": "uint256",
          "name": "id",
          "type": "uint256"
        },
        {
          "indexed": false,
          "internalType": "uint256",
          "name": "amount",
          "type": "uint256"
        },
        {
          "indexed": false,
          "internalType": "address",
          "name": "recipient",
          "type": "address"
        }
      ],
      "name": "Withdraw",
      "type": "event"
    },
    {
      "stateMutability": "payable",
      "type": "fallback"
    },
    {
      "inputs": [
        {
          "internalType": "uint256",
          "name": "_id",
          "type": "uint256"
        }
      ],
      "name": "addToDeposit",
      "outputs": [],
      "stateMutability": "payable",
      "type": "function"
    },
    {
      "inputs": [],
      "name": "artForPool",
      "outputs": [
        {
          "internalType": "contract IFrensArt",
          "name": "",
          "type": "address"
        }
      ],
      "stateMutability": "view",
      "type": "function"
    },
    {
      "inputs": [
        {
          "internalType": "bytes",
          "name": "data",
          "type": "bytes"
        }
      ],
      "name": "callSSVNetwork",
      "outputs": [],
      "stateMutability": "nonpayable",
      "type": "function"
    },
    {
      "inputs": [
        {
          "internalType": "uint256",
          "name": "_id",
          "type": "uint256"
        }
      ],
      "name": "claim",
      "outputs": [],
      "stateMutability": "nonpayable",
      "type": "function"
    },
    {
      "inputs": [],
      "name": "currentState",
      "outputs": [
        {
          "internalType": "enum StakingPool.PoolState",
          "name": "",
          "type": "uint8"
        }
      ],
      "stateMutability": "view",
      "type": "function"
    },
    {
      "inputs": [],
      "name": "depositContract",
      "outputs": [
        {
          "internalType": "contract IDepositContract",
          "name": "",
          "type": "address"
        }
      ],
      "stateMutability": "view",
      "type": "function"
    },
    {
      "inputs": [
        {
          "internalType": "uint256",
          "name": "",
          "type": "uint256"
        }
      ],
      "name": "depositForId",
      "outputs": [
        {
          "internalType": "uint256",
          "name": "",
          "type": "uint256"
        }
      ],
      "stateMutability": "view",
      "type": "function"
    },
    {
      "inputs": [],
      "name": "depositToPool",
      "outputs": [],
      "stateMutability": "payable",
      "type": "function"
    },
    {
      "inputs": [],
      "name": "deposit_data_root",
      "outputs": [
        {
          "internalType": "bytes32",
          "name": "",
          "type": "bytes32"
        }
      ],
      "stateMutability": "view",
      "type": "function"
    },
    {
      "inputs": [],
      "name": "feePercent",
      "outputs": [
        {
          "internalType": "uint256",
          "name": "",
          "type": "uint256"
        }
      ],
      "stateMutability": "view",
      "type": "function"
    },
    {
      "inputs": [],
      "name": "feeRecipient",
      "outputs": [
        {
          "internalType": "address",
          "name": "",
          "type": "address"
        }
      ],
      "stateMutability": "view",
      "type": "function"
    },
    {
      "inputs": [
        {
          "internalType": "uint256",
          "name": "",
          "type": "uint256"
        }
      ],
      "name": "frenPastClaim",
      "outputs": [
        {
          "internalType": "uint256",
          "name": "",
          "type": "uint256"
        }
      ],
      "stateMutability": "view",
      "type": "function"
    },
    {
      "inputs": [],
      "name": "frensPoolShare",
      "outputs": [
        {
          "internalType": "contract IFrensPoolShare",
          "name": "",
          "type": "address"
        }
      ],
      "stateMutability": "view",
      "type": "function"
    },
    {
      "inputs": [],
      "name": "frensStorage",
      "outputs": [
        {
          "internalType": "contract IFrensStorage",
          "name": "",
          "type": "address"
        }
      ],
      "stateMutability": "view",
      "type": "function"
    },
    {
      "inputs": [
        {
          "internalType": "uint256",
          "name": "_id",
          "type": "uint256"
        }
      ],
      "name": "getDistributableShare",
      "outputs": [
        {
          "internalType": "uint256",
          "name": "",
          "type": "uint256"
        }
      ],
      "stateMutability": "view",
      "type": "function"
    },
    {
      "inputs": [],
      "name": "getIdsInThisPool",
      "outputs": [
        {
          "internalType": "uint256[]",
          "name": "",
          "type": "uint256[]"
        }
      ],
      "stateMutability": "view",
      "type": "function"
    },
    {
      "inputs": [
        {
          "internalType": "uint256",
          "name": "_id",
          "type": "uint256"
        }
      ],
      "name": "getShare",
      "outputs": [
        {
          "internalType": "uint256",
          "name": "",
          "type": "uint256"
        }
      ],
      "stateMutability": "view",
      "type": "function"
    },
    {
      "inputs": [],
      "name": "getState",
      "outputs": [
        {
          "internalType": "string",
          "name": "",
          "type": "string"
        }
      ],
      "stateMutability": "view",
      "type": "function"
    },
    {
      "inputs": [
        {
          "internalType": "uint256",
          "name": "",
          "type": "uint256"
        }
      ],
      "name": "idsInPool",
      "outputs": [
        {
          "internalType": "uint256",
          "name": "",
          "type": "uint256"
        }
      ],
      "stateMutability": "view",
      "type": "function"
    },
    {
      "inputs": [
        {
          "internalType": "address",
          "name": "owner_",
          "type": "address"
        },
        {
          "internalType": "bool",
          "name": "validatorLocked_",
          "type": "bool"
        },
        {
          "internalType": "contract IFrensStorage",
          "name": "frensStorage_",
          "type": "address"
        }
      ],
      "name": "initialize",
      "outputs": [],
      "stateMutability": "nonpayable",
      "type": "function"
    },
    {
      "inputs": [
        {
          "internalType": "uint256",
          "name": "",
          "type": "uint256"
        }
      ],
      "name": "locked",
      "outputs": [
        {
          "internalType": "bool",
          "name": "",
          "type": "bool"
        }
      ],
      "stateMutability": "view",
      "type": "function"
    },
    {
      "inputs": [],
      "name": "owner",
      "outputs": [
        {
          "internalType": "address",
          "name": "",
          "type": "address"
        }
      ],
      "stateMutability": "view",
      "type": "function"
    },
    {
      "inputs": [],
      "name": "pubKey",
      "outputs": [
        {
          "internalType": "bytes",
          "name": "",
          "type": "bytes"
        }
      ],
      "stateMutability": "view",
      "type": "function"
    },
    {
      "inputs": [
        {
          "internalType": "uint256",
          "name": "",
          "type": "uint256"
        }
      ],
      "name": "rageQuitInfo",
      "outputs": [
        {
          "internalType": "uint256",
          "name": "price",
          "type": "uint256"
        },
        {
          "internalType": "uint256",
          "name": "time",
          "type": "uint256"
        },
        {
          "internalType": "bool",
          "name": "rageQuitting",
          "type": "bool"
        }
      ],
      "stateMutability": "view",
      "type": "function"
    },
    {
      "inputs": [],
      "name": "renounceOwnership",
      "outputs": [],
      "stateMutability": "nonpayable",
      "type": "function"
    },
    {
      "inputs": [
        {
          "internalType": "contract IFrensArt",
          "name": "newArtContract",
          "type": "address"
        }
      ],
      "name": "setArt",
      "outputs": [],
      "stateMutability": "nonpayable",
      "type": "function"
    },
    {
      "inputs": [
        {
          "internalType": "bytes",
          "name": "_pubKey",
          "type": "bytes"
        },
        {
          "internalType": "bytes",
          "name": "_withdrawal_credentials",
          "type": "bytes"
        },
        {
          "internalType": "bytes",
          "name": "_signature",
          "type": "bytes"
        },
        {
          "internalType": "bytes32",
          "name": "_deposit_data_root",
          "type": "bytes32"
        }
      ],
      "name": "setPubKey",
      "outputs": [],
      "stateMutability": "nonpayable",
      "type": "function"
    },
    {
      "inputs": [],
      "name": "signature",
      "outputs": [
        {
          "internalType": "bytes",
          "name": "",
          "type": "bytes"
        }
      ],
      "stateMutability": "view",
      "type": "function"
    },
    {
      "inputs": [],
      "name": "stake",
      "outputs": [],
      "stateMutability": "nonpayable",
      "type": "function"
    },
    {
      "inputs": [
        {
          "internalType": "bytes",
          "name": "_pubKey",
          "type": "bytes"
        },
        {
          "internalType": "bytes",
          "name": "_withdrawal_credentials",
          "type": "bytes"
        },
        {
          "internalType": "bytes",
          "name": "_signature",
          "type": "bytes"
        },
        {
          "internalType": "bytes32",
          "name": "_deposit_data_root",
          "type": "bytes32"
        }
      ],
      "name": "stake",
      "outputs": [],
      "stateMutability": "nonpayable",
      "type": "function"
    },
    {
      "inputs": [],
      "name": "totalClaims",
      "outputs": [
        {
          "internalType": "uint256",
          "name": "",
          "type": "uint256"
        }
      ],
      "stateMutability": "view",
      "type": "function"
    },
    {
      "inputs": [],
      "name": "totalDeposits",
      "outputs": [
        {
          "internalType": "uint256",
          "name": "",
          "type": "uint256"
        }
      ],
      "stateMutability": "view",
      "type": "function"
    },
    {
      "inputs": [],
      "name": "transferLocked",
      "outputs": [
        {
          "internalType": "bool",
          "name": "",
          "type": "bool"
        }
      ],
      "stateMutability": "view",
      "type": "function"
    },
    {
      "inputs": [
        {
          "internalType": "address",
          "name": "newOwner",
          "type": "address"
        }
      ],
      "name": "transferOwnership",
      "outputs": [],
      "stateMutability": "nonpayable",
      "type": "function"
    },
    {
      "inputs": [
        {
          "internalType": "address",
          "name": "tokenAddress",
          "type": "address"
        },
        {
          "internalType": "address",
          "name": "to",
          "type": "address"
        },
        {
          "internalType": "uint256",
          "name": "amount",
          "type": "uint256"
        }
      ],
      "name": "transferToken",
      "outputs": [],
      "stateMutability": "nonpayable",
      "type": "function"
    },
    {
      "inputs": [],
      "name": "validatorLocked",
      "outputs": [
        {
          "internalType": "bool",
          "name": "",
          "type": "bool"
        }
      ],
      "stateMutability": "view",
      "type": "function"
    },
    {
      "inputs": [],
      "name": "validatorSet",
      "outputs": [
        {
          "internalType": "bool",
          "name": "",
          "type": "bool"
        }
      ],
      "stateMutability": "view",
      "type": "function"
    },
    {
      "inputs": [
        {
          "internalType": "uint256",
          "name": "_id",
          "type": "uint256"
        },
        {
          "internalType": "uint256",
          "name": "_amount",
          "type": "uint256"
        }
      ],
      "name": "withdraw",
      "outputs": [],
      "stateMutability": "nonpayable",
      "type": "function"
    },
    {
      "inputs": [],
      "name": "withdrawal_credentials",
      "outputs": [
        {
          "internalType": "bytes",
          "name": "",
          "type": "bytes"
        }
      ],
      "stateMutability": "view",
      "type": "function"
    },
    {
      "stateMutability": "payable",
      "type": "receive"
    }
  ],
  "transactionHash": "0x8c5f9917a25aa80e7f4f7dbdd3e939a675dd40a6ddf7b837dcc0b4e38e10d1f1",
  "args": [],
  "solcInputHash": "711459861f5be50b60f08dda6e7e40ee",
  "bytecode": "0x6080806040523461001657612fde908161001b8239f35b5f80fdfe6080604081815260048036101561001e575b505050361561001c57005b005b5f92833560e01c9081630c3f6acf14611ebe5750806312686aae14611e975780631865c57d14611e665780632cf2cd4814611e3f5780632daad61d14611e1857806330dbf88714611def578063379607f5146119d25780633a4b66f1146119b957806341c613831461199a578063441a3e701461175257806345b58fe41461169f57806346904840146116765780634888a7d114610dda5780634b2b4e3614610d1d57806351ff484714610cf8578063591167c714610ccf578063678e300a14610caf578063715018a614610c46578063735a531314610b095780637d88209714610aea5780637fd6f15c14610acb5780638620891c14610925578063888e9cf8146108ed5780638ae578fd146108c45780638da5cb5b1461088f5780639426e22614610868578063ac2a5dfd14610843578063b45a3c0e14610817578063cfb5a5f81461076e578063e2d9ae3e1461074f578063e3f05d831461072b578063e4a50276146106e9578063e6b1a3ae14610570578063e920eec01461054a578063e94ad65b1461051d578063f2fde38b146104f0578063f5537ede14610437578063f9faa104146102195763fc03bad203610011573461021557602036600319011261021557606092818392358252602052209081549160ff60026001830154920154169082519384526020840152151590820152f35b8280fd5b50826003193601126102155761023034151561242c565b60ff83541681811015610424576001610249911461246d565b6102696801bc16d674ec800000610262600554346124b2565b11156124d3565b600f5482516318160ddd60e01b8152602093909290916001600160a01b0390859085908490829085165afa93841561041a5786946103e7575b508386526001855234838720556102bb346005546124b2565b600555600754680100000000000000008110156103d457906102e5826001899594016007556122a7565b81549060031b9087821b915f19901b19161790558483526002865260018484205560ff60095460081c16600387528484209060ff801983541691151516179055600f5416803b156102155760248392855194859384926335313c2160e11b845233908401525af180156103ca57610390575b5091606091837fd91527a40417d48f76ba016aaa9157e2ddaca6cb5b660432901659cb075058fc9451923484523390840152820152a180f35b917fd91527a40417d48f76ba016aaa9157e2ddaca6cb5b660432901659cb075058fc9391946103c06060946121d3565b9491935091610357565b82513d87823e3d90fd5b634e487b7160e01b875260418352602487fd5b9093508481813d8311610413575b6103ff8183612233565b8101031261040f5751925f6102a2565b8580fd5b503d6103f5565b83513d88823e3d90fd5b634e487b7160e01b845260218252602484fd5b50346102155760603660031901126102155782610452611f40565b916001600160a01b0360243581811692908390036104ec576020936044926104786122f0565b8751968795869463a9059cbb60e01b865285015284356024850152165af19081156104e0576104af925083916104b2575b506123d0565b80f35b6104d3915060203d81116104d9575b6104cb8183612233565b8101906123b8565b5f6104a9565b503d6104c1565b505051903d90823e3d90fd5b8380fd5b833461051a57602036600319011261051a576104af61050d611f40565b6105156122f0565b612328565b80fd5b50503461054657816003193601126105465760125490516001600160a01b039091168152602090f35b5080fd5b833461051a576104af61055c36611f88565b9561056b9591959492946122f0565b6127d0565b50903461021557602091826003193601126104ec5780356001600160a01b03811693908490036106e5576105a26122f0565b825163516b636d60e11b81528281018690528581602481885afa9081156106db57869161065e575b50511561062757601080546001600160a01b0319168517905582516001600160a01b038516815233602082015285907fe7bc3d97fc839fb6cd9e115f3db7695d56df2b786e558f581230a00b412d43639080604081015b0390a180f35b606492519162461bcd60e51b835282015260146024820152731a5b9d985b1a5908185c9d0818dbdb9d1c9858dd60621b6044820152fd5b90503d8087833e61066f8183612233565b81019082818303126106d75780519067ffffffffffffffff82116106d3570181601f820112156106d75780516106a481612255565b926106b187519485612233565b8184528482840101116106d3576106cd91848085019101611efa565b5f6105ca565b8780fd5b8680fd5b84513d88823e3d90fd5b8480fd5b5050346105465781600319360112610546578051610727916107158261070e8161214f565b0383612233565b51918291602083526020830190611f1b565b0390f35b50503461054657816003193601126105465760209060ff6009541690519015158152f35b505034610546578160031936011261054657602090600d549051908152f35b503461021557602036600319011261021557600f548251631dc82a7560e01b81528235928101839052906001600160a01b03906020908390602490829085165afa91821561080d57916107d2916107d79493602097926107de575b50163014612531565b612da0565b9051908152f35b6107ff919250873d8111610806575b6107f78183612233565b810190612399565b905f6107c9565b503d6107ed565b84513d87823e3d90fd5b5034610215576020366003190112610215578160209360ff923581526003855220541690519015158152f35b5050346105465781600319360112610546578051610727916107158261070e8161202a565b50503461054657816003193601126105465760209060ff60095460101c1690519015158152f35b5050346105465781600319360112610546575f80516020612f898339815191525490516001600160a01b039091168152602090f35b50503461054657816003193601126105465760105490516001600160a01b039091168152602090f35b503461021557602036600319011261021557359160075483101561051a57506109176020926122a7565b91905490519160031b1c8152f35b509190602092836003193601126102155780359060ff84541681811015610ab8576001610952911461246d565b61096b6801bc16d674ec800000610262600554346124b2565b600f548351631dc82a7560e01b81528281018490526001600160a01b03918216918782602481865afa918215610aae578892602494926109b4928a92610a965750163014612531565b6109bf34151561242c565b855192838092634f558e7960e01b825287878301525afa90811561080d578591610a79575b5015610a4257508293817f2e4d11c40e9ddf229c2807835f88a91899498f9e8531757e8489a824b1bdc119945260018152828520610a233482546124b2565b9055610a31346005546124b2565b60055582519182523490820152a180f35b825162461bcd60e51b815290810185905260116024820152701a5908191bd95cc81b9bdd08195e1a5cdd607a1b6044820152606490fd5b610a909150863d88116104d9576104cb8183612233565b5f6109e4565b6107ff919250853d8711610806576107f78183612233565b86513d89823e3d90fd5b634e487b7160e01b855260218252602485fd5b5050346105465781600319360112610546576020906008549051908152f35b5050346105465781600319360112610546576020906005549051908152f35b50903461021557602090816003193601126104ec5783833567ffffffffffffffff8111610546573660238201121561054657610b4e9036906024818801359101612271565b610b566122f0565b60018060a01b0360115416848451818101907865787465726e616c2e636f6e74726163742e6164647265737360381b8252695353564e6574776f726b60b01b603982015260238152610ba781612217565b51902060248651809481936321f8a72160e01b83528b8301525afa908115610c3c57908392918391610c1f575b50828683519301915af1610be6612d5e565b5015610bf0578380f35b5162461bcd60e51b815291820152600b60248201526a10d85b1b0819985a5b195960aa1b604482015260649150fd5b610c369150863d8811610806576107f78183612233565b5f610bd4565b84513d85823e3d90fd5b833461051a578060031936011261051a57610c5f6122f0565b5f80516020612f8983398151915280546001600160a01b0319811690915581906001600160a01b03167f8be0079c531659141344cd1fd0a4f28419497f9722a3daafe3b4186f6b6457e08280a380f35b50913461051a57602036600319011261051a57506107d760209235612e11565b505034610546578160031936011261054657600f5490516001600160a01b039091168152602090f35b5050346105465781600319360112610546578051610727916107158261070e816120cb565b503461021557610d2c36611f88565b93610d3b9896989391936122f0565b60095460101c60ff1615610dc557505050505092610d5c9192933691612271565b602081519101208151610d7981610d728161202a565b0382612233565b6020815191012003610d905750505b6104af6125b7565b906020606492519162461bcd60e51b8352820152600f60248201526e0e0eac496caf240dad2e6dac2e8c6d608b1b6044820152fd5b92955092955092610dd5966127d0565b610d88565b50903461021557606036600319011261021557610df5611f40565b9060249182359283151580940361040f576001600160a01b0394604480358781169290839003611672577ff0c57e16840df040f15088dc2f81fe391c3923bec73e23a9662efc9c229c6a009788549560ff87891c16159667ffffffffffffffff81168015908161166a575b6001149081611660575b159081611657575b506116475767ffffffffffffffff1981166001178b5587611628575b50818116156115d557610eab90610ea36123eb565b6105156123eb565b8315611580576bffffffffffffffffffffffff60a01b97848960115416176011558751906020998a83016f636f6e74726163742e6164647265737360801b9384825267119c995b9cd05c9d60c21b603082015260188152610f0b816121fb565b519020928d8b516321f8a72160e01b95868252888201528d818c818d5afa91821561147157908e8893611563575b505016801561150f57908e918360105416176010558b518d81019182526d4672656e73506f6f6c536861726560901b6030820152601e8152610f7a816121fb565b5190208b5190858252878201528c818b818c5afa9182156113e7579086926114f2575b501681600f541617600f558951968d8c89017865787465726e616c2e636f6e74726163742e6164647265737360381b998a82526e11195c1bdcda5d10dbdb9d1c9858dd608a1b603982015260288152610ff581612217565b5190208c5190868252888201528d818c81865afa91821561147157908e88936114d5575b505016801561147c578260125416176012558d8b518d810190731c1c9bdd1bd8dbdb0b9999594b9c195c98d95b9d60621b825260148152611059816121fb565b519020908c519163bd02d0f560e01b8352888301528d828c81865afa908115611471579061143f575b600a915080600855116113f2578d908c8c8b815183810190751c1c9bdd1bd8dbdb0b9999594b9c9958da5c1a595b9d60521b8252601681526110c3816121fb565b5190209151809481938a83528c8301525afa9182156113e7579086926113ca575b50168091600e541617600e55156113775760ff199060ff826009541691168091176009555f1461136a578b54168b555b81601154169088518a8101908782526729a9ab2a37b5b2b760c11b60398201526021815261114181612217565b519020895190828252858201528a818981865afa908d821561135f57908592611342575b50169586156112e95790878b928b51848101918252695353564e6574776f726b60b01b60398201526023815261119a81612217565b519020918b5194859384928352888301525afa9081156112df578b916112c2575b501692831561125c579089889493928851968795869463095ea7b360e01b86528501525f19908401525af190811561041a57906111fe91879161124557506123d0565b611206578380f35b7fc7f505b2f371ae2175ee4913f4499e1f2633a7b5936321eed1cdaeb6115181d29268ff00000000000000001981541690555160018152a15f80808380f35b6104d39150853d87116104d9576104cb8183612233565b507f4652454e5320636f6e7472616374206572726f72206e6f20535356206e6574776084926038868a8a519562461bcd60e51b87528601528401528201527f6f726b20636f6e747261637420616464726573732073657400000000000000006064820152fd5b6112d99150893d8b11610806576107f78183612233565b5f6111bb565b88513d8d823e3d90fd5b50885162461bcd60e51b81528085018b9052602e818901527f4652454e5320636f6e7472616374206572726f72206e6f2053535620746f6b65818701526d1b8818dbdb9d1c9858dd081cd95d60921b6064820152608490fd5b61135991508c8d3d10610806576107f78183612233565b5f611165565b8b51903d90823e3d90fd5b8b54166001178b55611114565b885162461bcd60e51b81528085018b90526029818901527f4652454e5320636f6e7472616374206572726f72206e6f20666565207265636981870152681c1a595b9d081cd95d60ba1b6064820152608490fd5b6113e191508d803d10610806576107f78183612233565b5f6110e4565b8c51903d90823e3d90fd5b5050885162461bcd60e51b81528085018b90526021818901527f4652454e5320636f6e7472616374206572726f722066656520746f6f2068696781870152600d60fb1b6064820152608490fd5b508c81813d831161146a575b6114558183612233565b8101031261146657600a9051611082565b8e80fd5b503d61144b565b8d51903d90823e3d90fd5b5050895162461bcd60e51b81528086018c9052602c818a01527f4652454e5320636f6e7472616374206572726f72206e6f204465706f73697420818801526b18dbdb9d1c9858dd081cd95d60a21b606482015260849150fd5b6114eb9250803d10610806576107f78183612233565b5f8e611019565b61150991508d803d10610806576107f78183612233565b5f610f9d565b5050895162461bcd60e51b81528086018c90526027818a01527f4652454e5320636f6e7472616374206572726f72206e6f2061727420616464728188015266195cdcc81cd95d60ca1b606482015260849150fd5b6115799250803d10610806576107f78183612233565b5f8e610f39565b507f4652454e5320636f6e7472616374206572726f72206e6f2073746f7261676520608492602b8660208a519562461bcd60e51b87528601528401528201526a1859191c995cdcc81cd95d60aa1b6064820152fd5b875162461bcd60e51b81526020818501526029818801527f4652454e5320636f6e7472616374206572726f72206e6f206f776e65722061648186015268191c995cdcc81cd95d60ba1b6064820152608490fd5b68ffffffffffffffffff191668010000000000000001178a555f610e8e565b885163f92ee8a960e01b81528490fd5b9050155f610e72565b303b159150610e6a565b899150610e60565b8880fd5b505034610546578160031936011261054657600e5490516001600160a01b039091168152602090f35b82843461051a578060031936011261051a579080519182906007549182855260208095018093600784527fa66cc928b5edb82af9bd49922954155ab7b0942694bea4ce44661d9a8736c68890845b81811061173e5750505081611703910382612233565b83519485948186019282875251809352850193925b82811061172757505050500390f35b835185528695509381019392810192600101611718565b8254845292880192600192830192016116ed565b5034610215578160031936011261021557803590602480359160ff86541681811015611988576001611784911461246d565b600f548551631dc82a7560e01b8152828101869052602093916001600160a01b039081169185818581865afa8015611961576117cb918b9161196b575b5082163014612531565b8751858185816331a9108f60e11b968782528c8a8301525afa80156119615782918b91611944575b50163303611912578689526001855285888a2054106118d9579286928594928a9693858852600185528a882061182a8a8254612d51565b905561183889600554612d51565b600555600f54168a51958694859384528301525afa9182156118cf5792808080877f71ef96c43343734b1d843bb85d52ef329f5e9143e4d35827771e3b0dd90c5f849a96611897966106219984926118b2575b50505af16104a9612d5e565b51928352602083019190915233604083015281906060820190565b6118c89250803d10610806576107f78183612233565b5f8061188b565b86513d85823e3d90fd5b875162461bcd60e51b8152808501869052601481850152731b9bdd08195b9bdd59da0819195c1bdcda5d195960621b6044820152606490fd5b875162461bcd60e51b8152808501869052600d818501526c3737ba103a34329037bbb732b960991b6044820152606490fd5b61195b9150873d8911610806576107f78183612233565b5f6117f3565b89513d8c823e3d90fd5b6119829150873d8911610806576107f78183612233565b5f6117c1565b50634e487b7160e01b86526021905284fd5b5050346105465781600319360112610546576020906006549051908152f35b833461051a578060031936011261051a57610d886122f0565b509190346105465760208060031936011261021557600f548251631dc82a7560e01b8152853581870181905292916024916001600160a01b0391849082908590829086165afa908115610aae5790611a34918891611dd8575082163014612531565b60ff8654169680881015611dc65760018814611d84576064471115611d3457959694958795600314611d2b57816011541692848851818101906f636f6e74726163742e6164647265737360801b82526a4672656e734f7261636c6560a81b6030820152601b8152611aa4816121fb565b519020828a51809781936321f8a72160e01b8352878301525afa938415611d21578382899688938891611d04575b508b5163404df7b160e11b815230878201529a8b938492165af1968715611cfa578497611cdb575b508680611cab575b611c9b575b611b1086612da0565b9686855260028652888520611b268982546124b2565b9055611b34886006546124b2565b600655600854908115159081611c92575b50611c16575b50600f5488516331a9108f60e11b815292830187905285918391829086165afa938415611c0c577fd79254e5daba749baa8ba954e77bbbb18efef113a8070d00df9a188d8193242697928492889261062197611bdf575b50509180808093611bb99588165af16104a9612d5e565b5192835260208301939093526001600160a01b0390921660408201529081906060820190565b849384939750611c01849383611bb99894903d10610806576107f78183612233565b979350939450611ba2565b87513d85823e3d90fd5b876064611c2688949a8a94612d8d565b049060018211611c43575b90611c3b91612d51565b979150611b4b565b9250929394505083600e54165f19830190838211611c80578a9594938793611c78888080808e98611c3b985af16104a9612d5e565b909150611c31565b634e487b7160e01b8b5260118552888bfd5b9050155f611b45565b835460ff19166003178455611b07565b5090919260ff90541682811015611cc9579060028994939214611b02565b50634e487b7160e01b88526021825287fd5b611cf3919750853d87116104d9576104cb8183612233565b955f611afa565b88513d86823e3d90fd5b611d1b9150843d8611610806576107f78183612233565b5f611ad2565b88513d89823e3d90fd5b60019592611b07565b855162461bcd60e51b81529081018490526025818401527f6d7573742062652067726561746572207468616e203130302077656920746f20604482015264636c61696d60d81b6064820152608490fd5b855162461bcd60e51b8152908101849052601c818401527f757365207769746864726177207768656e206e6f74207374616b6564000000006044820152606490fd5b634e487b7160e01b8752602190528186fd5b6119829150853d8711610806576107f78183612233565b50503461054657816003193601126105465760115490516001600160a01b039091168152602090f35b50346102155760203660031901126102155760209282913581526001845220549051908152f35b50346102155760203660031901126102155760209282913581526002845220549051908152f35b50503461054657816003193601126105465761072790611e84612e86565b9051918291602083526020830190611f1b565b50503461054657816003193601126105465760209060ff60095460081c1690519015158152f35b9050833461051a578060031936011261051a5760ff8154169083821015611ee757602083838152f35b634e487b7160e01b815260218452602490fd5b5f5b838110611f0b5750505f910152565b8181015183820152602001611efc565b90602091611f3481518092818552858086019101611efa565b601f01601f1916010190565b600435906001600160a01b0382168203611f5657565b5f80fd5b9181601f84011215611f565782359167ffffffffffffffff8311611f565760208381860195010111611f5657565b906080600319830112611f565767ffffffffffffffff600435818111611f565783611fb591600401611f5a565b93909392602435838111611f565782611fd091600401611f5a565b93909392604435918211611f5657611fea91600401611f5a565b909160643590565b90600182811c92168015612020575b602083101461200c57565b634e487b7160e01b5f52602260045260245ffd5b91607f1691612001565b600a545f929161203982611ff2565b808252916001908181169081156120ae575060011461205757505050565b91929350600a5f527fc65a7bb8d6351c1cf70c95a316cc6a92839c986682d98bc35f958f4883f9d2a8915f925b84841061209657505060209250010190565b80546020858501810191909152909301928101612084565b915050602093945060ff929192191683830152151560051b010190565b600c545f92916120da82611ff2565b808252916001908181169081156120ae57506001146120f857505050565b91929350600c5f527fdf6966c971051c3d54ec59162606531493a51404a002842f56009d7e5cf4a8c7915f925b84841061213757505060209250010190565b80546020858501810191909152909301928101612125565b600b545f929161215e82611ff2565b808252916001908181169081156120ae575060011461217c57505050565b91929350600b5f527f0175b7a638427703f0dbe7bb9bbf987a2551717b34e79f33b5b1008d1fa01db9915f925b8484106121bb57505060209250010190565b805460208585018101919091529093019281016121a9565b67ffffffffffffffff81116121e757604052565b634e487b7160e01b5f52604160045260245ffd5b6040810190811067ffffffffffffffff8211176121e757604052565b6060810190811067ffffffffffffffff8211176121e757604052565b90601f8019910116810190811067ffffffffffffffff8211176121e757604052565b67ffffffffffffffff81116121e757601f01601f191660200190565b92919261227d82612255565b9161228b6040519384612233565b829481845281830111611f56578281602093845f960137010152565b6007548110156122dc5760075f527fa66cc928b5edb82af9bd49922954155ab7b0942694bea4ce44661d9a8736c68801905f90565b634e487b7160e01b5f52603260045260245ffd5b5f80516020612f89833981519152546001600160a01b0316330361231057565b60405163118cdaa760e01b8152336004820152602490fd5b6001600160a01b03908116908115612381575f80516020612f8983398151915280546001600160a01b031981168417909155167f8be0079c531659141344cd1fd0a4f28419497f9722a3daafe3b4186f6b6457e05f80a3565b604051631e4fbdf760e01b81525f6004820152602490fd5b90816020910312611f5657516001600160a01b0381168103611f565790565b90816020910312611f5657518015158103611f565790565b156123d757565b634e487b7160e01b5f52600160045260245ffd5b60ff7ff0c57e16840df040f15088dc2f81fe391c3923bec73e23a9662efc9c229c6a005460401c161561241a57565b604051631afcd79f60e31b8152600490fd5b1561243357565b60405162461bcd60e51b815260206004820152601260248201527136bab9ba103232b837b9b4ba1032ba3432b960711b6044820152606490fd5b1561247457565b60405162461bcd60e51b81526020600482015260166024820152756e6f7420616363657074696e67206465706f7369747360501b6044820152606490fd5b919082018092116124bf57565b634e487b7160e01b5f52601160045260245ffd5b156124da57565b60405162461bcd60e51b815260206004820152602960248201527f746f74616c206465706f736974732063616e6e6f74206265206d6f72652074686044820152680c2dc406664408ae8d60bb1b6064820152608490fd5b1561253857565b60405162461bcd60e51b815260206004820152601960248201527f77726f6e67207374616b696e6720706f6f6c20666f72206964000000000000006044820152606490fd5b1561258457565b60405162461bcd60e51b815260206004820152600b60248201526a77726f6e6720737461746560a81b6044820152606490fd5b6801bc16d674ec80000080471061277a57806005540361273f575f90815460ff8116600481101561272b5760016125ee911461257d565b60ff60095460101c16156126f25760ff19166002178255601254600d546001600160a01b0393918416803b156102155790829160405180958180946304512a2360e31b82526080600483015261266e6126496084840161202a565b61265f600319918286820301602487015261214f565b908482030160448501526120cb565b90606483015203925af19081156126e65750916126d2917f72b356fd889b9abd3530accd2c9f4aecbce67d70757181f9f862ac91464ce192936126d7575b5060125460408051929091166001600160a01b0316825233602083015290918291820190565b0390a1565b6126e0906121d3565b5f6126ac565b604051903d90823e3d90fd5b60405162461bcd60e51b81526020600482015260116024820152701d985b1a59185d1bdc881b9bdd081cd95d607a1b6044820152606490fd5b634e487b7160e01b84526021600452602484fd5b60405162461bcd60e51b81526020600482015260136024820152726e6f7420656e6f756768206465706f7369747360681b6044820152606490fd5b60405162461bcd60e51b815260206004820152600e60248201526d0dcdee840cadcdeeaced040cae8d60931b6044820152606490fd5b908060209392818452848401375f828201840152601f01601f1916010190565b949190939695926040519160209283810190600160f81b82525f918260218301523060601b602c830152858252612806826121fb565b612811368686612271565b8681519101209151902003612d0c5760095460ff8116612cd2575b5060ff815416906004821015612cbe57612849600180931461257d565b67ffffffffffffffff90818911612aaf57612865600a54611ff2565b9189601f93848111612c5a575b5082848211600114612bcf578391612bc4575b505f1960038c901b1c19168a851b17600a555b808611612bb0576128aa600b54611ff2565b838111612b4e575b508582848211600114612ace578391612ac3575b505f19600388901b1c191686851b17600b555b8711612aaf576128ea600c54611ff2565b828111612a4d575b50809187116001146129a4579286807ffd84b86d2e47014cef6e8fc5310d3968b38c5998dd6a57a8b68b350628b8f9f89c9d979461298e9997946129809793612999575b501b905f198760031b1c191617600c555b87600d556201000062ff00001960095416176009556129736040519a8b9a60808c5260808c01916127b0565b92898403908a01526127b0565b9185830360408701526127b0565b9060608301520390a1565b89013592505f612936565b90601f198716600c83527fdf6966c971051c3d54ec59162606531493a51404a002842f56009d7e5cf4a8c7925b818110612a38575092879592612980959261298e997ffd84b86d2e47014cef6e8fc5310d3968b38c5998dd6a57a8b68b350628b8f9f89e9f999610612a1f575b505085811b01600c55612947565b8801355f19600389901b60f8161c191690555f80612a11565b8d8301358455928401929187019187016129d1565b600c82527fdf6966c971051c3d54ec59162606531493a51404a002842f56009d7e5cf4a8c783808a0160051c820192898b10612aa6575b0160051c019084905b828110612a9b5750506128f2565b838155018490612a8d565b92508192612a84565b634e487b7160e01b81526041600452602490fd5b90508501355f6128c6565b600b84527f0175b7a638427703f0dbe7bb9bbf987a2551717b34e79f33b5b1008d1fa01db9915087601f198116855b8b89838310612b375750505010612b1e575b50508386811b01600b556128d9565b8601355f19600389901b60f8161c191690555f80612b0f565b858c0135875590950194938401938b935001612afd565b600b83527f0175b7a638427703f0dbe7bb9bbf987a2551717b34e79f33b5b1008d1fa01db98480890160051c8201928a8a10612ba7575b0160051c019085905b828110612b9c5750506128b2565b848155018590612b8e565b92508192612b85565b634e487b7160e01b82526041600452602482fd5b90508b01355f612885565b8c91601f198116600a86527fc65a7bb8d6351c1cf70c95a316cc6a92839c986682d98bc35f958f4883f9d2a8938b8988925b848410612c3a575050505010612c21575b5050838a811b01600a55612898565b8c01355f1960038d901b60f8161c191690555f80612c12565b8294955095809791929396013581550194019201908d918f898d91612c01565b600a8452847fc65a7bb8d6351c1cf70c95a316cc6a92839c986682d98bc35f958f4883f9d2a8918a82850160051c84019410612cb5575b0160051c019085905b828110612caa57508b9150612872565b848155018590612c9a565b92508192612c91565b634e487b7160e01b81526021600452602490fd5b81549060ff8216600481101561272b5760ff60019392612cf5612cff931561257d565b60101c16156123d0565b60ff19161781555f61282c565b60405162461bcd60e51b815260048101859052601e60248201527f7769746864726177616c2063726564656e7469616c206d69736d6174636800006044820152606490fd5b919082039182116124bf57565b3d15612d88573d90612d6f82612255565b91612d7d6040519384612233565b82523d5f602084013e565b606090565b818102929181159184041417156124bf57565b4715612e0c575f908152600160205260408120546002602052612dd5604083205491612dcf47600654906124b2565b90612d8d565b600554908115612df857048015612df357612df09250612d51565b90565b505090565b634e487b7160e01b84526012600452602484fd5b505f90565b60ff5f5416906004821015612e725760018203612e2e5750505f90565b612e3790612da0565b90600854908115159081612e66575b50612e4f575090565b906064612e5f82612df094612d8d565b0490612d51565b6003915014155f612e46565b634e487b7160e01b5f52602160045260245ffd5b60ff5f54166004811015612e72578015612f4e5760028114612f2b5760018114612efc57600314612eda57604051612ebd816121fb565b600d81526c7374617465206661696c75726560981b602082015290565b604051612ee6816121fb565b6006815265195e1a5d195960d21b602082015290565b50604051612f09816121fb565b6012815271616363657074696e67206465706f7369747360701b602082015290565b50604051612f38816121fb565b60068152651cdd185ad95960d21b602082015290565b50604051612f5b816121fb565b601781527f6177616974696e672076616c696461746f7220696e666f00000000000000000060208201529056fe9016d09d72d40fdae2fd8ceac6b6234c7706214fd39c1cd1e609a0528c199300a26469706673582212209eb412ac31bb019a620deca2a22bab273e3533645eb0e38aeabc6c8bcf0d418364736f6c63430008140033",
  "devdoc": {
    "errors": {
      "InvalidInitialization()": [
        {
          "details": "The contract is already initialized."
        }
      ],
      "NotInitializing()": [
        {
          "details": "The contract is not initializing."
        }
      ],
      "OwnableInvalidOwner(address)": [
        {
          "details": "The owner is not a valid owner account. (eg. `address(0)`)"
        }
      ],
      "OwnableUnauthorizedAccount(address)": [
        {
          "details": "The caller account is not authorized to perform an operation."
        }
      ]
    },
    "events": {
      "Initialized(uint64)": {
        "details": "Triggered when the contract has been initialized or reinitialized."
      }
    },
    "kind": "dev",
    "methods": {
      "addToDeposit(uint256)": {
        "details": "recieves funds and increases deposit for a FrensPoolShare ID"
      },
      "claim(uint256)": {
        "details": "calculates the rewards due to `_id` and sends them to the owner of `_id`"
      },
      "depositToPool()": {
        "details": "recieves funds and returns FrenspoolShare NFT"
      },
      "getDistributableShare(uint256)": {
        "details": "this is used for the traits in the NFT",
        "returns": {
          "_0": "the share of the validator rewards climable by `_id` minus fees. Returns 0 if pool is still accepting deposits"
        }
      },
      "getShare(uint256)": {
        "returns": {
          "_0": "the share of the validator rewards climable by `_id`"
        }
      },
      "getState()": {
        "returns": {
          "_0": "pool state"
        }
      },
      "initialize(address,bool,address)": {
        "details": "when the pool is initalised by the factory, the owner, art contract,  storage contract, and if the validator is locked are all set.  The pool state is set according to whether or not the validator is locked."
      },
      "renounceOwnership()": {
        "details": "Leaves the contract without owner. It will not be possible to call `onlyOwner` functions. Can only be called by the current owner. NOTE: Renouncing ownership will leave the contract without an owner, thereby disabling any functionality that is only available to the owner."
      },
      "setArt(address)": {
        "details": "allows pool owner to change the art for the NFTs in the pool"
      },
      "setPubKey(bytes,bytes,bytes,bytes32)": {
        "details": "sets the validator info required when depositing to the deposit contract"
      },
      "stake()": {
        "details": "stakes 32 ETH from this pool to the deposit contract. validator info must already be entered"
      },
      "stake(bytes,bytes,bytes,bytes32)": {
        "details": "stakes 32 ETH from this pool to the deposit contract, accepts validator info"
      },
      "transferOwnership(address)": {
        "details": "Transfers ownership of the contract to a new account (`newOwner`). Can only be called by the current owner."
      },
      "withdraw(uint256,uint256)": {
        "details": "allows user to withdraw funds if they have not yet been deposited to the deposit contract with the Stake method"
      }
    },
    "version": 1
  },
  "userdoc": {
    "kind": "user",
    "methods": {
      "addToDeposit(uint256)": {
        "notice": "allows a user to add funds to an existing NFT ID"
      },
      "claim(uint256)": {
        "notice": "allows user to claim their portion of the rewards"
      },
      "depositToPool()": {
        "notice": "This allows a user to deposit funds to the pool, and recieve an NFT representing their share"
      },
      "withdraw(uint256,uint256)": {
        "notice": "To withdraw funds previously deposited - ONLY works before the funds are staked. Use Claim to get rewards."
      }
    },
    "version": 1
  },
  "storageLayout": {
    "storage": [
      {
        "astId": 5740,
        "contract": "contracts/StakingPool.sol:StakingPool",
        "label": "currentState",
        "offset": 0,
        "slot": "0",
        "type": "t_enum(PoolState)5737"
      },
      {
        "astId": 5751,
        "contract": "contracts/StakingPool.sol:StakingPool",
        "label": "depositForId",
        "offset": 0,
        "slot": "1",
        "type": "t_mapping(t_uint256,t_uint256)"
      },
      {
        "astId": 5755,
        "contract": "contracts/StakingPool.sol:StakingPool",
        "label": "frenPastClaim",
        "offset": 0,
        "slot": "2",
        "type": "t_mapping(t_uint256,t_uint256)"
      },
      {
        "astId": 5759,
        "contract": "contracts/StakingPool.sol:StakingPool",
        "label": "locked",
        "offset": 0,
        "slot": "3",
        "type": "t_mapping(t_uint256,t_bool)"
      },
      {
        "astId": 5764,
        "contract": "contracts/StakingPool.sol:StakingPool",
        "label": "rageQuitInfo",
        "offset": 0,
        "slot": "4",
        "type": "t_mapping(t_uint256,t_struct(RageQuit)5747_storage)"
      },
      {
        "astId": 5766,
        "contract": "contracts/StakingPool.sol:StakingPool",
        "label": "totalDeposits",
        "offset": 0,
        "slot": "5",
        "type": "t_uint256"
      },
      {
        "astId": 5768,
        "contract": "contracts/StakingPool.sol:StakingPool",
        "label": "totalClaims",
        "offset": 0,
        "slot": "6",
        "type": "t_uint256"
      },
      {
        "astId": 5771,
        "contract": "contracts/StakingPool.sol:StakingPool",
        "label": "idsInPool",
        "offset": 0,
        "slot": "7",
        "type": "t_array(t_uint256)dyn_storage"
      },
      {
        "astId": 5773,
        "contract": "contracts/StakingPool.sol:StakingPool",
        "label": "feePercent",
        "offset": 0,
        "slot": "8",
        "type": "t_uint256"
      },
      {
        "astId": 5775,
        "contract": "contracts/StakingPool.sol:StakingPool",
        "label": "validatorLocked",
        "offset": 0,
        "slot": "9",
        "type": "t_bool"
      },
      {
        "astId": 5777,
        "contract": "contracts/StakingPool.sol:StakingPool",
        "label": "transferLocked",
        "offset": 1,
        "slot": "9",
        "type": "t_bool"
      },
      {
        "astId": 5779,
        "contract": "contracts/StakingPool.sol:StakingPool",
        "label": "validatorSet",
        "offset": 2,
        "slot": "9",
        "type": "t_bool"
      },
      {
        "astId": 5781,
        "contract": "contracts/StakingPool.sol:StakingPool",
        "label": "pubKey",
        "offset": 0,
        "slot": "10",
        "type": "t_bytes_storage"
      },
      {
        "astId": 5783,
        "contract": "contracts/StakingPool.sol:StakingPool",
        "label": "withdrawal_credentials",
        "offset": 0,
        "slot": "11",
        "type": "t_bytes_storage"
      },
      {
        "astId": 5785,
        "contract": "contracts/StakingPool.sol:StakingPool",
        "label": "signature",
        "offset": 0,
        "slot": "12",
        "type": "t_bytes_storage"
      },
      {
        "astId": 5787,
        "contract": "contracts/StakingPool.sol:StakingPool",
        "label": "deposit_data_root",
        "offset": 0,
        "slot": "13",
        "type": "t_bytes32"
      },
      {
        "astId": 5789,
        "contract": "contracts/StakingPool.sol:StakingPool",
        "label": "feeRecipient",
        "offset": 0,
        "slot": "14",
        "type": "t_address"
      },
      {
        "astId": 5792,
        "contract": "contracts/StakingPool.sol:StakingPool",
        "label": "frensPoolShare",
        "offset": 0,
        "slot": "15",
        "type": "t_contract(IFrensPoolShare)7352"
      },
      {
        "astId": 5795,
        "contract": "contracts/StakingPool.sol:StakingPool",
        "label": "artForPool",
        "offset": 0,
        "slot": "16",
        "type": "t_contract(IFrensArt)7243"
      },
      {
        "astId": 5798,
        "contract": "contracts/StakingPool.sol:StakingPool",
        "label": "frensStorage",
        "offset": 0,
        "slot": "17",
        "type": "t_contract(IFrensStorage)7452"
      },
      {
        "astId": 5801,
        "contract": "contracts/StakingPool.sol:StakingPool",
        "label": "depositContract",
        "offset": 0,
        "slot": "18",
        "type": "t_contract(IDepositContract)7096"
      }
    ],
    "types": {
      "t_address": {
        "encoding": "inplace",
        "label": "address",
        "numberOfBytes": "20"
      },
      "t_array(t_uint256)dyn_storage": {
        "base": "t_uint256",
        "encoding": "dynamic_array",
        "label": "uint256[]",
        "numberOfBytes": "32"
      },
      "t_bool": {
        "encoding": "inplace",
        "label": "bool",
        "numberOfBytes": "1"
      },
      "t_bytes32": {
        "encoding": "inplace",
        "label": "bytes32",
        "numberOfBytes": "32"
      },
      "t_bytes_storage": {
        "encoding": "bytes",
        "label": "bytes",
        "numberOfBytes": "32"
      },
      "t_contract(IDepositContract)7096": {
        "encoding": "inplace",
        "label": "contract IDepositContract",
        "numberOfBytes": "20"
      },
      "t_contract(IFrensArt)7243": {
        "encoding": "inplace",
        "label": "contract IFrensArt",
        "numberOfBytes": "20"
      },
      "t_contract(IFrensPoolShare)7352": {
        "encoding": "inplace",
        "label": "contract IFrensPoolShare",
        "numberOfBytes": "20"
      },
      "t_contract(IFrensStorage)7452": {
        "encoding": "inplace",
        "label": "contract IFrensStorage",
        "numberOfBytes": "20"
      },
      "t_enum(PoolState)5737": {
        "encoding": "inplace",
        "label": "enum StakingPool.PoolState",
        "numberOfBytes": "1"
      },
      "t_mapping(t_uint256,t_bool)": {
        "encoding": "mapping",
        "key": "t_uint256",
        "label": "mapping(uint256 => bool)",
        "numberOfBytes": "32",
        "value": "t_bool"
      },
      "t_mapping(t_uint256,t_struct(RageQuit)5747_storage)": {
        "encoding": "mapping",
        "key": "t_uint256",
        "label": "mapping(uint256 => struct StakingPool.RageQuit)",
        "numberOfBytes": "32",
        "value": "t_struct(RageQuit)5747_storage"
      },
      "t_mapping(t_uint256,t_uint256)": {
        "encoding": "mapping",
        "key": "t_uint256",
        "label": "mapping(uint256 => uint256)",
        "numberOfBytes": "32",
        "value": "t_uint256"
      },
      "t_struct(RageQuit)5747_storage": {
        "encoding": "inplace",
        "label": "struct StakingPool.RageQuit",
        "members": [
          {
            "astId": 5742,
            "contract": "contracts/StakingPool.sol:StakingPool",
            "label": "price",
            "offset": 0,
            "slot": "0",
            "type": "t_uint256"
          },
          {
            "astId": 5744,
            "contract": "contracts/StakingPool.sol:StakingPool",
            "label": "time",
            "offset": 0,
            "slot": "1",
            "type": "t_uint256"
          },
          {
            "astId": 5746,
            "contract": "contracts/StakingPool.sol:StakingPool",
            "label": "rageQuitting",
            "offset": 0,
            "slot": "2",
            "type": "t_bool"
          }
        ],
        "numberOfBytes": "96"
      },
      "t_uint256": {
        "encoding": "inplace",
        "label": "uint256",
        "numberOfBytes": "32"
      }
    }
  }
}